Archive member included because of file (symbol)

/usr/lib/gcc/arm-none-eabi/4.8.2/../../../arm-none-eabi/lib/armv7-m/libc.a(lib_a-assert.o)
                              build/obj/atmel_adc.o (__assert_func)
/usr/lib/gcc/arm-none-eabi/4.8.2/../../../arm-none-eabi/lib/armv7-m/libc.a(lib_a-fiprintf.o)
                              /usr/lib/gcc/arm-none-eabi/4.8.2/../../../arm-none-eabi/lib/armv7-m/libc.a(lib_a-assert.o) (fiprintf)
/usr/lib/gcc/arm-none-eabi/4.8.2/../../../arm-none-eabi/lib/armv7-m/libc.a(lib_a-impure.o)
                              /usr/lib/gcc/arm-none-eabi/4.8.2/../../../arm-none-eabi/lib/armv7-m/libc.a(lib_a-assert.o) (_impure_ptr)
/usr/lib/gcc/arm-none-eabi/4.8.2/../../../arm-none-eabi/lib/armv7-m/libc.a(lib_a-memset.o)
                              build/obj/syscalls.o (memset)
/usr/lib/gcc/arm-none-eabi/4.8.2/../../../arm-none-eabi/lib/armv7-m/libc.a(lib_a-vfiprintf.o)
                              /usr/lib/gcc/arm-none-eabi/4.8.2/../../../arm-none-eabi/lib/armv7-m/libc.a(lib_a-fiprintf.o) (_vfiprintf_r)
/usr/lib/gcc/arm-none-eabi/4.8.2/../../../arm-none-eabi/lib/armv7-m/libc.a(lib_a-wsetup.o)
                              /usr/lib/gcc/arm-none-eabi/4.8.2/../../../arm-none-eabi/lib/armv7-m/libc.a(lib_a-vfiprintf.o) (__swsetup_r)
/usr/lib/gcc/arm-none-eabi/4.8.2/../../../arm-none-eabi/lib/armv7-m/libc.a(lib_a-abort.o)
                              /usr/lib/gcc/arm-none-eabi/4.8.2/../../../arm-none-eabi/lib/armv7-m/libc.a(lib_a-assert.o) (abort)
/usr/lib/gcc/arm-none-eabi/4.8.2/../../../arm-none-eabi/lib/armv7-m/libc.a(lib_a-fflush.o)
                              /usr/lib/gcc/arm-none-eabi/4.8.2/../../../arm-none-eabi/lib/armv7-m/libc.a(lib_a-vfiprintf.o) (_fflush_r)
/usr/lib/gcc/arm-none-eabi/4.8.2/../../../arm-none-eabi/lib/armv7-m/libc.a(lib_a-findfp.o)
                              /usr/lib/gcc/arm-none-eabi/4.8.2/../../../arm-none-eabi/lib/armv7-m/libc.a(lib_a-vfiprintf.o) (__sinit)
/usr/lib/gcc/arm-none-eabi/4.8.2/../../../arm-none-eabi/lib/armv7-m/libc.a(lib_a-fputwc.o)
                              /usr/lib/gcc/arm-none-eabi/4.8.2/../../../arm-none-eabi/lib/armv7-m/libc.a(lib_a-vfiprintf.o) (_fputwc_r)
/usr/lib/gcc/arm-none-eabi/4.8.2/../../../arm-none-eabi/lib/armv7-m/libc.a(lib_a-freer.o)
                              /usr/lib/gcc/arm-none-eabi/4.8.2/../../../arm-none-eabi/lib/armv7-m/libc.a(lib_a-wsetup.o) (_free_r)
/usr/lib/gcc/arm-none-eabi/4.8.2/../../../arm-none-eabi/lib/armv7-m/libc.a(lib_a-fvwrite.o)
                              /usr/lib/gcc/arm-none-eabi/4.8.2/../../../arm-none-eabi/lib/armv7-m/libc.a(lib_a-vfiprintf.o) (__sfvwrite_r)
/usr/lib/gcc/arm-none-eabi/4.8.2/../../../arm-none-eabi/lib/armv7-m/libc.a(lib_a-fwalk.o)
                              /usr/lib/gcc/arm-none-eabi/4.8.2/../../../arm-none-eabi/lib/armv7-m/libc.a(lib_a-findfp.o) (_fwalk)
/usr/lib/gcc/arm-none-eabi/4.8.2/../../../arm-none-eabi/lib/armv7-m/libc.a(lib_a-locale.o)
                              /usr/lib/gcc/arm-none-eabi/4.8.2/../../../arm-none-eabi/lib/armv7-m/libc.a(lib_a-fputwc.o) (__locale_mb_cur_max)
/usr/lib/gcc/arm-none-eabi/4.8.2/../../../arm-none-eabi/lib/armv7-m/libc.a(lib_a-makebuf.o)
                              /usr/lib/gcc/arm-none-eabi/4.8.2/../../../arm-none-eabi/lib/armv7-m/libc.a(lib_a-wsetup.o) (__smakebuf_r)
/usr/lib/gcc/arm-none-eabi/4.8.2/../../../arm-none-eabi/lib/armv7-m/libc.a(lib_a-mallocr.o)
                              /usr/lib/gcc/arm-none-eabi/4.8.2/../../../arm-none-eabi/lib/armv7-m/libc.a(lib_a-findfp.o) (_malloc_r)
/usr/lib/gcc/arm-none-eabi/4.8.2/../../../arm-none-eabi/lib/armv7-m/libc.a(lib_a-memchr-stub.o)
                              /usr/lib/gcc/arm-none-eabi/4.8.2/../../../arm-none-eabi/lib/armv7-m/libc.a(lib_a-vfiprintf.o) (memchr)
/usr/lib/gcc/arm-none-eabi/4.8.2/../../../arm-none-eabi/lib/armv7-m/libc.a(lib_a-memcpy.o)
                              /usr/lib/gcc/arm-none-eabi/4.8.2/../../../arm-none-eabi/lib/armv7-m/libc.a(lib_a-fvwrite.o) (memcpy)
/usr/lib/gcc/arm-none-eabi/4.8.2/../../../arm-none-eabi/lib/armv7-m/libc.a(lib_a-memmove.o)
                              /usr/lib/gcc/arm-none-eabi/4.8.2/../../../arm-none-eabi/lib/armv7-m/libc.a(lib_a-fvwrite.o) (memmove)
/usr/lib/gcc/arm-none-eabi/4.8.2/../../../arm-none-eabi/lib/armv7-m/libc.a(lib_a-mlock.o)
                              /usr/lib/gcc/arm-none-eabi/4.8.2/../../../arm-none-eabi/lib/armv7-m/libc.a(lib_a-freer.o) (__malloc_lock)
/usr/lib/gcc/arm-none-eabi/4.8.2/../../../arm-none-eabi/lib/armv7-m/libc.a(lib_a-reallocr.o)
                              /usr/lib/gcc/arm-none-eabi/4.8.2/../../../arm-none-eabi/lib/armv7-m/libc.a(lib_a-fvwrite.o) (_realloc_r)
/usr/lib/gcc/arm-none-eabi/4.8.2/../../../arm-none-eabi/lib/armv7-m/libc.a(lib_a-signal.o)
                              /usr/lib/gcc/arm-none-eabi/4.8.2/../../../arm-none-eabi/lib/armv7-m/libc.a(lib_a-abort.o) (raise)
/usr/lib/gcc/arm-none-eabi/4.8.2/../../../arm-none-eabi/lib/armv7-m/libc.a(lib_a-signalr.o)
                              /usr/lib/gcc/arm-none-eabi/4.8.2/../../../arm-none-eabi/lib/armv7-m/libc.a(lib_a-signal.o) (_kill_r)
/usr/lib/gcc/arm-none-eabi/4.8.2/../../../arm-none-eabi/lib/armv7-m/libc.a(lib_a-stdio.o)
                              /usr/lib/gcc/arm-none-eabi/4.8.2/../../../arm-none-eabi/lib/armv7-m/libc.a(lib_a-findfp.o) (__sread)
/usr/lib/gcc/arm-none-eabi/4.8.2/../../../arm-none-eabi/lib/armv7-m/libc.a(lib_a-strcmp.o)
                              /usr/lib/gcc/arm-none-eabi/4.8.2/../../../arm-none-eabi/lib/armv7-m/libc.a(lib_a-locale.o) (strcmp)
/usr/lib/gcc/arm-none-eabi/4.8.2/../../../arm-none-eabi/lib/armv7-m/libc.a(lib_a-strlen.o)
                              /usr/lib/gcc/arm-none-eabi/4.8.2/../../../arm-none-eabi/lib/armv7-m/libc.a(lib_a-vfiprintf.o) (strlen)
/usr/lib/gcc/arm-none-eabi/4.8.2/../../../arm-none-eabi/lib/armv7-m/libc.a(lib_a-wbuf.o)
                              /usr/lib/gcc/arm-none-eabi/4.8.2/../../../arm-none-eabi/lib/armv7-m/libc.a(lib_a-fputwc.o) (__swbuf_r)
/usr/lib/gcc/arm-none-eabi/4.8.2/../../../arm-none-eabi/lib/armv7-m/libc.a(lib_a-wcrtomb.o)
                              /usr/lib/gcc/arm-none-eabi/4.8.2/../../../arm-none-eabi/lib/armv7-m/libc.a(lib_a-fputwc.o) (_wcrtomb_r)
/usr/lib/gcc/arm-none-eabi/4.8.2/../../../arm-none-eabi/lib/armv7-m/libc.a(lib_a-wctomb_r.o)
                              /usr/lib/gcc/arm-none-eabi/4.8.2/../../../arm-none-eabi/lib/armv7-m/libc.a(lib_a-wcrtomb.o) (__wctomb)
/usr/lib/gcc/arm-none-eabi/4.8.2/../../../arm-none-eabi/lib/armv7-m/libc.a(lib_a-fclose.o)
                              /usr/lib/gcc/arm-none-eabi/4.8.2/../../../arm-none-eabi/lib/armv7-m/libc.a(lib_a-findfp.o) (fclose)
/usr/lib/gcc/arm-none-eabi/4.8.2/../../../arm-none-eabi/lib/armv7-m/libc.a(lib_a-reent.o)
                              /usr/lib/gcc/arm-none-eabi/4.8.2/../../../arm-none-eabi/lib/armv7-m/libc.a(lib_a-signalr.o) (errno)
/usr/lib/gcc/arm-none-eabi/4.8.2/armv7-m/libgcc.a(_aeabi_uldivmod.o)
                              /usr/lib/gcc/arm-none-eabi/4.8.2/../../../arm-none-eabi/lib/armv7-m/libc.a(lib_a-vfiprintf.o) (__aeabi_uldivmod)
/usr/lib/gcc/arm-none-eabi/4.8.2/armv7-m/libgcc.a(bpabi.o)
                              /usr/lib/gcc/arm-none-eabi/4.8.2/armv7-m/libgcc.a(_aeabi_uldivmod.o) (__gnu_uldivmod_helper)
/usr/lib/gcc/arm-none-eabi/4.8.2/armv7-m/libgcc.a(_dvmd_tls.o)
                              /usr/lib/gcc/arm-none-eabi/4.8.2/armv7-m/libgcc.a(_aeabi_uldivmod.o) (__aeabi_ldiv0)
/usr/lib/gcc/arm-none-eabi/4.8.2/armv7-m/libgcc.a(_divdi3.o)
                              /usr/lib/gcc/arm-none-eabi/4.8.2/armv7-m/libgcc.a(bpabi.o) (__divdi3)
/usr/lib/gcc/arm-none-eabi/4.8.2/armv7-m/libgcc.a(_udivdi3.o)
                              /usr/lib/gcc/arm-none-eabi/4.8.2/armv7-m/libgcc.a(bpabi.o) (__udivdi3)

Allocating common symbols
Common symbol       size              file

errno               0x4               /usr/lib/gcc/arm-none-eabi/4.8.2/../../../arm-none-eabi/lib/armv7-m/libc.a(lib_a-reent.o)

Discarded input sections

 .text          0x0000000000000000        0x0 build/obj/crt0.o
 .data          0x0000000000000000        0x0 build/obj/crt0.o
 .bss           0x0000000000000000        0x0 build/obj/crt0.o
 .text.__early_init
                0x0000000000000000       0x10 build/obj/crt0.o
 .text          0x0000000000000000        0x0 build/obj/vectors.o
 .data          0x0000000000000000        0x0 build/obj/vectors.o
 .bss           0x0000000000000000        0x0 build/obj/vectors.o
 .text          0x0000000000000000        0x0 build/obj/chcore.o
 .data          0x0000000000000000        0x0 build/obj/chcore.o
 .bss           0x0000000000000000        0x0 build/obj/chcore.o
 .text.port_halt
                0x0000000000000000       0x10 build/obj/chcore.o
 .debug_info    0x0000000000000000       0x8b build/obj/chcore.o
 .debug_abbrev  0x0000000000000000       0x42 build/obj/chcore.o
 .debug_aranges
                0x0000000000000000       0x20 build/obj/chcore.o
 .debug_ranges  0x0000000000000000       0x10 build/obj/chcore.o
Memory Configuration

Name             Origin             Length             Attributes
flash            0x0000000000200000 0x0000000000040000
ram              0x0000000020000000 0x0000000000006000
*default*        0x0000000000000000 0xffffffffffffffff

Linker script and memory map

LOAD build/obj/crt0.o
LOAD build/obj/vectors.o
LOAD build/obj/chcore.o
LOAD build/obj/chcore_v7m.o
LOAD build/obj/nvic.o
LOAD build/obj/chsys.o
LOAD build/obj/chlists.o
LOAD build/obj/chvt.o
LOAD build/obj/chschd.o
LOAD build/obj/chthreads.o
LOAD build/obj/chdynamic.o
LOAD build/obj/chregistry.o
LOAD build/obj/chsem.o
LOAD build/obj/chmtx.o
LOAD build/obj/chcond.o
LOAD build/obj/chevents.o
LOAD build/obj/chmsg.o
LOAD build/obj/chmboxes.o
LOAD build/obj/chqueues.o
LOAD build/obj/chmemcore.o
LOAD build/obj/chheap.o
LOAD build/obj/chmempools.o
LOAD build/obj/test.o
LOAD build/obj/testthd.o
LOAD build/obj/testsem.o
LOAD build/obj/testmtx.o
LOAD build/obj/testmsg.o
LOAD build/obj/testmbox.o
LOAD build/obj/testevt.o
LOAD build/obj/testheap.o
LOAD build/obj/testpools.o
LOAD build/obj/testdyn.o
LOAD build/obj/testqueues.o
LOAD build/obj/testbmk.o
LOAD build/obj/hal.o
LOAD build/obj/pal.o
LOAD build/obj/serial.o
LOAD build/obj/hal_lld.o
LOAD build/obj/system_SAM3.o
LOAD build/obj/pal_lld.o
LOAD build/obj/serial_lld.o
LOAD build/obj/board.o
LOAD build/obj/evtimer.o
LOAD build/obj/syscalls.o
LOAD build/obj/chprintf.o
LOAD build/obj/atmel_adc.o
LOAD build/obj/atmel_pwm.o
LOAD build/obj/main_test.o
START GROUP
LOAD /usr/lib/gcc/arm-none-eabi/4.8.2/armv7-m/libgcc.a
LOAD /usr/lib/gcc/arm-none-eabi/4.8.2/../../../arm-none-eabi/lib/armv7-m/libc.a
END GROUP
                0x0000000000000400                __main_stack_size__ = 0x400
                0x0000000000000400                __process_stack_size__ = 0x400
                0x0000000000000800                __stacks_total_size__ = (__main_stack_size__ + __process_stack_size__)
                0x0000000020000000                __ram_start__ = ORIGIN (ram)
                0x0000000000006000                __ram_size__ = 0x6000
                0x0000000020006000                __ram_end__ = (__ram_start__ + __ram_size__)
                0x0000000000000000                . = 0x0
                0x0000000000000000                _text = .

startup         0x0000000000200000       0xc0
 *(vectors)
 vectors        0x0000000000200000       0xc0 build/obj/vectors.o
                0x0000000000200000                _vectors

constructors    0x00000000002000c0        0x0
                0x00000000002000c0                PROVIDE (__init_array_start, .)
 *(SORT(.init_array.*))
 *(.init_array)
                0x00000000002000c0                PROVIDE (__init_array_end, .)

destructors     0x00000000002000c0        0x0
                0x00000000002000c0                PROVIDE (__fini_array_start, .)
 *(.fini_array)
 *(SORT(.fini_array.*))
                0x00000000002000c0                PROVIDE (__fini_array_end, .)

.text           0x00000000002000c0     0x1764
 *(.text.startup.*)
 .text.startup.main
                0x00000000002000c0       0x80 build/obj/main_test.o
                0x00000000002000c0                main
 *(.text)
 *(.text.*)
 .text.__late_init
                0x0000000000200140       0x10 build/obj/crt0.o
                0x0000000000200140                __late_init
 .text._default_exit
                0x0000000000200150       0x10 build/obj/crt0.o
                0x0000000000200150                _default_exit
 .text.ResetHandler
                0x0000000000200160      0x140 build/obj/crt0.o
                0x0000000000200160                ResetHandler
 .text._unhandled_exception
                0x00000000002002a0       0x10 build/obj/vectors.o
                0x00000000002002a0                Vector58
                0x00000000002002a0                Vector9C
                0x00000000002002a0                VectorAC
                0x00000000002002a0                Vector5C
                0x00000000002002a0                NMIVector
                0x00000000002002a0                Vector8C
                0x00000000002002a0                Vector94
                0x00000000002002a0                VectorA8
                0x00000000002002a0                VectorB4
                0x00000000002002a0                Vector74
                0x00000000002002a0                UsageFaultVector
                0x00000000002002a0                DebugMonitorVector
                0x00000000002002a0                Vector40
                0x00000000002002a0                VectorBC
                0x00000000002002a0                PendSVVector
                0x00000000002002a0                Vector54
                0x00000000002002a0                Vector98
                0x00000000002002a0                Vector24
                0x00000000002002a0                Vector84
                0x00000000002002a0                BusFaultVector
                0x00000000002002a0                HardFaultVector
                0x00000000002002a0                MemManageVector
                0x00000000002002a0                Vector6C
                0x00000000002002a0                VectorA0
                0x00000000002002a0                Vector7C
                0x00000000002002a0                VectorB0
                0x00000000002002a0                Vector90
                0x00000000002002a0                Vector1C
                0x00000000002002a0                Vector48
                0x00000000002002a0                Vector70
                0x00000000002002a0                Vector4C
                0x00000000002002a0                Vector80
                0x00000000002002a0                Vector68
                0x00000000002002a0                Vector78
                0x00000000002002a0                _unhandled_exception
                0x00000000002002a0                Vector88
                0x00000000002002a0                Vector50
                0x00000000002002a0                Vector44
                0x00000000002002a0                Vector28
                0x00000000002002a0                VectorB8
                0x00000000002002a0                Vector34
                0x00000000002002a0                VectorA4
                0x00000000002002a0                Vector20
 .text._port_switch_from_isr
                0x00000000002002b0       0x10 build/obj/chcore_v7m.o
                0x00000000002002b0                _port_switch_from_isr
 .text.SVCallVector
                0x00000000002002c0       0x20 build/obj/chcore_v7m.o
                0x00000000002002c0                SVCallVector
 .text._port_init
                0x00000000002002e0       0x40 build/obj/chcore_v7m.o
                0x00000000002002e0                _port_init
 .text._port_irq_epilogue
                0x0000000000200320       0x80 build/obj/chcore_v7m.o
                0x0000000000200320                _port_irq_epilogue
 .text.SysTickVector
                0x00000000002003a0       0x20 build/obj/chcore_v7m.o
                0x00000000002003a0                SysTickVector
 .text._port_switch
                0x00000000002003c0       0x10 build/obj/chcore_v7m.o
                0x00000000002003c0                _port_switch
 .text._port_thread_start
                0x00000000002003d0       0x10 build/obj/chcore_v7m.o
                0x00000000002003d0                _port_thread_start
 .text.nvicEnableVector
                0x00000000002003e0       0x50 build/obj/nvic.o
                0x00000000002003e0                nvicEnableVector
 .text.nvicSetSystemHandlerPriority
                0x0000000000200430       0x30 build/obj/nvic.o
                0x0000000000200430                nvicSetSystemHandlerPriority
 .text._idle_thread
                0x0000000000200460       0x20 build/obj/chsys.o
                0x0000000000200460                _idle_thread
 .text.chSysInit
                0x0000000000200480       0x70 build/obj/chsys.o
                0x0000000000200480                chSysInit
 .text.chSysTimerHandlerI
                0x00000000002004f0       0x60 build/obj/chsys.o
                0x00000000002004f0                chSysTimerHandlerI
 .text._vt_init
                0x0000000000200550       0x20 build/obj/chvt.o
                0x0000000000200550                _vt_init
 .text.chVTSetI
                0x0000000000200570       0x40 build/obj/chvt.o
                0x0000000000200570                chVTSetI
 .text.chVTResetI
                0x00000000002005b0       0x30 build/obj/chvt.o
                0x00000000002005b0                chVTResetI
 .text.wakeup   0x00000000002005e0       0x60 build/obj/chschd.o
 .text._scheduler_init
                0x0000000000200640       0x20 build/obj/chschd.o
                0x0000000000200640                _scheduler_init
 .text.chSchReadyI
                0x0000000000200660       0x30 build/obj/chschd.o
                0x0000000000200660                chSchReadyI
 .text.chSchGoSleepS
                0x0000000000200690       0x30 build/obj/chschd.o
                0x0000000000200690                chSchGoSleepS
 .text.chSchGoSleepTimeoutS
                0x00000000002006c0       0x50 build/obj/chschd.o
                0x00000000002006c0                chSchGoSleepTimeoutS
 .text.chSchWakeupS
                0x0000000000200710       0x70 build/obj/chschd.o
                0x0000000000200710                chSchWakeupS
 .text.chSchDoReschedule
                0x0000000000200780       0x50 build/obj/chschd.o
                0x0000000000200780                chSchDoReschedule
 .text._thread_init
                0x00000000002007d0       0x50 build/obj/chthreads.o
                0x00000000002007d0                _thread_init
 .text.chThdCreateStatic
                0x0000000000200820       0x90 build/obj/chthreads.o
                0x0000000000200820                chThdCreateStatic
 .text.chThdSleep
                0x00000000002008b0       0x20 build/obj/chthreads.o
                0x00000000002008b0                chThdSleep
 .text.chThdExitS
                0x00000000002008d0       0x50 build/obj/chthreads.o
                0x00000000002008d0                chThdExitS
 .text.chThdExit
                0x0000000000200920       0x10 build/obj/chthreads.o
                0x0000000000200920                chThdExit
 .text.chMtxInit
                0x0000000000200930       0x10 build/obj/chmtx.o
                0x0000000000200930                chMtxInit
 .text.chEvtSignalFlagsI
                0x0000000000200940       0x30 build/obj/chevents.o
                0x0000000000200940                chEvtSignalFlagsI
 .text.chEvtBroadcastFlagsI
                0x0000000000200970       0x20 build/obj/chevents.o
                0x0000000000200970                chEvtBroadcastFlagsI
 .text.qwait    0x0000000000200990       0x30 build/obj/chqueues.o
 .text.chIQInit
                0x00000000002009c0       0x20 build/obj/chqueues.o
                0x00000000002009c0                chIQInit
 .text.chIQPutI
                0x00000000002009e0       0x50 build/obj/chqueues.o
                0x00000000002009e0                chIQPutI
 .text.chIQGetTimeout
                0x0000000000200a30       0x50 build/obj/chqueues.o
                0x0000000000200a30                chIQGetTimeout
 .text.chIQReadTimeout
                0x0000000000200a80       0x80 build/obj/chqueues.o
                0x0000000000200a80                chIQReadTimeout
 .text.chOQInit
                0x0000000000200b00       0x20 build/obj/chqueues.o
                0x0000000000200b00                chOQInit
 .text.chOQPutTimeout
                0x0000000000200b20       0x60 build/obj/chqueues.o
                0x0000000000200b20                chOQPutTimeout
 .text.chOQGetI
                0x0000000000200b80       0x50 build/obj/chqueues.o
                0x0000000000200b80                chOQGetI
 .text.chOQWriteTimeout
                0x0000000000200bd0       0x80 build/obj/chqueues.o
                0x0000000000200bd0                chOQWriteTimeout
 .text._core_init
                0x0000000000200c50       0x30 build/obj/chmemcore.o
                0x0000000000200c50                _core_init
 .text.chCoreAlloc
                0x0000000000200c80       0x40 build/obj/chmemcore.o
                0x0000000000200c80                chCoreAlloc
 .text._heap_init
                0x0000000000200cc0       0x20 build/obj/chheap.o
                0x0000000000200cc0                _heap_init
 .text.halInit  0x0000000000200ce0       0x20 build/obj/hal.o
                0x0000000000200ce0                halInit
 .text.putwouldblock
                0x0000000000200d00       0x10 build/obj/serial.o
 .text.getwouldblock
                0x0000000000200d10       0x10 build/obj/serial.o
 .text.getflags
                0x0000000000200d20       0x20 build/obj/serial.o
 .text.readt    0x0000000000200d40       0x10 build/obj/serial.o
 .text.reads    0x0000000000200d50       0x10 build/obj/serial.o
 .text.writet   0x0000000000200d60       0x10 build/obj/serial.o
 .text.writes   0x0000000000200d70       0x10 build/obj/serial.o
 .text.gett     0x0000000000200d80       0x10 build/obj/serial.o
 .text.putt     0x0000000000200d90       0x10 build/obj/serial.o
 .text.sdInit   0x0000000000200da0       0x10 build/obj/serial.o
                0x0000000000200da0                sdInit
 .text.sdObjectInit
                0x0000000000200db0       0x50 build/obj/serial.o
                0x0000000000200db0                sdObjectInit
 .text.sdStart  0x0000000000200e00       0x20 build/obj/serial.o
                0x0000000000200e00                sdStart
 .text.sdIncomingDataI
                0x0000000000200e20       0x50 build/obj/serial.o
                0x0000000000200e20                sdIncomingDataI
 .text.hal_lld_init
                0x0000000000200e70       0x40 build/obj/hal_lld.o
                0x0000000000200e70                hal_lld_init
 .text.at91sam3_clock_init
                0x0000000000200eb0       0x10 build/obj/hal_lld.o
                0x0000000000200eb0                at91sam3_clock_init
 .text.SystemCoreClockUpdate
                0x0000000000200ec0      0x140 build/obj/system_SAM3.o
                0x0000000000200ec0                SystemCoreClockUpdate
 .text.SystemInit
                0x0000000000201000       0xc0 build/obj/system_SAM3.o
                0x0000000000201000                SystemInit
 .text._pal_lld_init
                0x00000000002010c0       0xc0 build/obj/pal_lld.o
                0x00000000002010c0                _pal_lld_init
 .text._pal_lld_setgroupmode
                0x0000000000201180       0x40 build/obj/pal_lld.o
                0x0000000000201180                _pal_lld_setgroupmode
 .text.notify1  0x00000000002011c0       0x10 build/obj/serial_lld.o
 .text.notify2  0x00000000002011d0       0x10 build/obj/serial_lld.o
 .text.serve_interrupt
                0x00000000002011e0       0xb0 build/obj/serial_lld.o
 .text.Vector60
                0x0000000000201290       0x20 build/obj/serial_lld.o
                0x0000000000201290                Vector60
 .text.Vector64
                0x00000000002012b0       0x20 build/obj/serial_lld.o
                0x00000000002012b0                Vector64
 .text.sd_lld_init
                0x00000000002012d0       0x70 build/obj/serial_lld.o
                0x00000000002012d0                sd_lld_init
 .text.sd_lld_start
                0x0000000000201340       0xd0 build/obj/serial_lld.o
                0x0000000000201340                sd_lld_start
 .text.__early_init
                0x0000000000201410       0x20 build/obj/board.o
                0x0000000000201410                __early_init
 .text.boardInit
                0x0000000000201430       0x60 build/obj/board.o
                0x0000000000201430                boardInit
 .text.ltoa     0x0000000000201490       0x50 build/obj/chprintf.o
 .text.chprintf
                0x00000000002014e0      0x270 build/obj/chprintf.o
                0x00000000002014e0                chprintf
 .text.Thread1  0x0000000000201750       0x30 build/obj/main_test.o
 *(.rodata)
 .rodata        0x0000000000201780        0xc build/obj/main_test.o
 *(.rodata.*)
 *fill*         0x000000000020178c        0x4 
 .rodata.str1.4
                0x0000000000201790        0xd build/obj/chsys.o
                                         0x10 (size before relaxing)
 *fill*         0x000000000020179d        0x3 
 .rodata.vmt    0x00000000002017a0       0x24 build/obj/serial.o
 *fill*         0x00000000002017c4        0xc 
 .rodata.default_config
                0x00000000002017d0        0x8 build/obj/serial_lld.o
 *fill*         0x00000000002017d8        0x8 
 .rodata.pal_default_config
                0x00000000002017e0       0x24 build/obj/board.o
                0x00000000002017e0                pal_default_config
 *fill*         0x0000000000201804        0xc 
 .rodata.str1.4
                0x0000000000201810        0x7 build/obj/chprintf.o
                                          0x8 (size before relaxing)
 *fill*         0x0000000000201817        0x9 
 .rodata.str1.4
                0x0000000000201820        0x4 build/obj/main_test.o
 *(.glue_7t)
 .glue_7t       0x0000000000000000        0x0 linker stubs
 *(.glue_7)
 .glue_7        0x0000000000000000        0x0 linker stubs
 *(.gcc*)

.vfp11_veneer   0x0000000000201824        0x0
 .vfp11_veneer  0x0000000000000000        0x0 linker stubs

.v4_bx          0x0000000000201824        0x0
 .v4_bx         0x0000000000000000        0x0 linker stubs

.iplt           0x0000000000201824        0x0
 .iplt          0x0000000000000000        0x0 build/obj/crt0.o

.rel.dyn        0x0000000000201824        0x0
 .rel.iplt      0x0000000000000000        0x0 build/obj/crt0.o

.ARM.extab
 *(.ARM.extab* .gnu.linkonce.armextab.*)

.ARM.exidx      0x0000000000201824        0x0
                0x0000000000201824                PROVIDE (__exidx_start, .)
 *(.ARM.exidx* .gnu.linkonce.armexidx.*)
                0x0000000000201824                PROVIDE (__exidx_end, .)

.eh_frame_hdr
 *(.eh_frame_hdr)

.eh_frame
 *(.eh_frame)

.textalign      0x0000000000201824        0x4
                0x0000000000201828                . = ALIGN (0x8)
 *fill*         0x0000000000201824        0x4 
                0x0000000000201828                _etext = .
                0x0000000000201828                _textdata = _etext

.stacks         0x0000000020000000      0x800
                0x0000000020000000                . = ALIGN (0x8)
                0x0000000020000000                __main_stack_base__ = .
                0x0000000020000400                . = (. + __main_stack_size__)
 *fill*         0x0000000020000000      0x400 
                0x0000000020000400                . = ALIGN (0x8)
                0x0000000020000400                __main_stack_end__ = .
                0x0000000020000400                __process_stack_base__ = .
                0x0000000020000400                __main_thread_stack_base__ = .
                0x0000000020000800                . = (. + __process_stack_size__)
 *fill*         0x0000000020000400      0x400 
                0x0000000020000800                . = ALIGN (0x8)
                0x0000000020000800                __process_stack_end__ = .
                0x0000000020000800                __main_thread_stack_end__ = .

.data           0x0000000020000800        0x4 load address 0x0000000000201828
                0x0000000020000800                . = ALIGN (0x4)
                0x0000000020000800                PROVIDE (_data, .)
 *(.data)
                0x0000000020000800                . = ALIGN (0x4)
 *(.data.*)
 .data.SystemCoreClock
                0x0000000020000800        0x4 build/obj/system_SAM3.o
                0x0000000020000800                SystemCoreClock
                0x0000000020000804                . = ALIGN (0x4)
 *(.ramtext)
                0x0000000020000804                . = ALIGN (0x4)
                0x0000000020000804                PROVIDE (_edata, .)

.igot.plt       0x0000000020000804        0x0 load address 0x000000000020182c
 .igot.plt      0x0000000000000000        0x0 build/obj/crt0.o

.bss            0x0000000020000808      0x378 load address 0x000000000020182c
                0x0000000020000808                . = ALIGN (0x4)
                0x0000000020000808                PROVIDE (_bss_start, .)
 *(.bss)
                0x0000000020000808                . = ALIGN (0x4)
 *(.bss.*)
 .bss.mainthread.4819
                0x0000000020000808       0x48 build/obj/chsys.o
 .bss._idle_thread_wa
                0x0000000020000850       0xc0 build/obj/chsys.o
                0x0000000020000850                _idle_thread_wa
 .bss.vtlist    0x0000000020000910       0x10 build/obj/chvt.o
                0x0000000020000910                vtlist
 .bss.rlist     0x0000000020000920       0x20 build/obj/chschd.o
                0x0000000020000920                rlist
 .bss.endmem    0x0000000020000940        0x4 build/obj/chmemcore.o
 .bss.nextmem   0x0000000020000944        0x4 build/obj/chmemcore.o
 .bss.default_heap
                0x0000000020000948       0x20 build/obj/chheap.o
 .bss.SD1       0x0000000020000968       0x74 build/obj/serial_lld.o
                0x0000000020000968                SD1
 .bss.SD2       0x00000000200009dc       0x74 build/obj/serial_lld.o
                0x00000000200009dc                SD2
 .bss.waThread1
                0x0000000020000a50      0x130 build/obj/main_test.o
                0x0000000020000b80                . = ALIGN (0x4)
 *(COMMON)
                0x0000000020000b80                . = ALIGN (0x4)
                0x0000000020000b80                PROVIDE (_bss_end, .)
                0x0000000020000b80                PROVIDE (end, .)
                0x0000000020000b80                _end = .
                0x0000000020000b80                __heap_base__ = _end
                0x0000000020006000                __heap_end__ = __ram_end__
OUTPUT(build/ch.elf elf32-littlearm)

.debug_info     0x0000000000000000     0xa4e1
 .debug_info    0x0000000000000000      0x2fe build/obj/crt0.o
 .debug_info    0x00000000000002fe       0xb3 build/obj/vectors.o
 .debug_info    0x00000000000003b1      0x7ed build/obj/chcore_v7m.o
 .debug_info    0x0000000000000b9e      0x3ff build/obj/nvic.o
 .debug_info    0x0000000000000f9d      0x6bf build/obj/chsys.o
 .debug_info    0x000000000000165c      0x260 build/obj/chvt.o
 .debug_info    0x00000000000018bc      0x87c build/obj/chschd.o
 .debug_info    0x0000000000002138      0xbd9 build/obj/chthreads.o
 .debug_info    0x0000000000002d11      0x9ca build/obj/chmtx.o
 .debug_info    0x00000000000036db      0xcb4 build/obj/chevents.o
 .debug_info    0x000000000000438f      0xb90 build/obj/chqueues.o
 .debug_info    0x0000000000004f1f      0x218 build/obj/chmemcore.o
 .debug_info    0x0000000000005137      0x6db build/obj/chheap.o
 .debug_info    0x0000000000005812      0x188 build/obj/hal.o
 .debug_info    0x000000000000599a     0x10e9 build/obj/serial.o
 .debug_info    0x0000000000006a83      0x177 build/obj/hal_lld.o
 .debug_info    0x0000000000006bfa      0x3e7 build/obj/system_SAM3.o
 .debug_info    0x0000000000006fe1      0x742 build/obj/pal_lld.o
 .debug_info    0x0000000000007723     0x1426 build/obj/serial_lld.o
 .debug_info    0x0000000000008b49      0x61f build/obj/board.o
 .debug_info    0x0000000000009168      0x49d build/obj/chprintf.o
 .debug_info    0x0000000000009605      0xedc build/obj/main_test.o

.debug_abbrev   0x0000000000000000     0x2a54
 .debug_abbrev  0x0000000000000000      0x131 build/obj/crt0.o
 .debug_abbrev  0x0000000000000131       0x75 build/obj/vectors.o
 .debug_abbrev  0x00000000000001a6      0x1e2 build/obj/chcore_v7m.o
 .debug_abbrev  0x0000000000000388      0x10e build/obj/nvic.o
 .debug_abbrev  0x0000000000000496      0x211 build/obj/chsys.o
 .debug_abbrev  0x00000000000006a7      0x142 build/obj/chvt.o
 .debug_abbrev  0x00000000000007e9      0x319 build/obj/chschd.o
 .debug_abbrev  0x0000000000000b02      0x344 build/obj/chthreads.o
 .debug_abbrev  0x0000000000000e46      0x2f1 build/obj/chmtx.o
 .debug_abbrev  0x0000000000001137      0x2cb build/obj/chevents.o
 .debug_abbrev  0x0000000000001402      0x31d build/obj/chqueues.o
 .debug_abbrev  0x000000000000171f      0x15b build/obj/chmemcore.o
 .debug_abbrev  0x000000000000187a      0x1e7 build/obj/chheap.o
 .debug_abbrev  0x0000000000001a61      0x10a build/obj/hal.o
 .debug_abbrev  0x0000000000001b6b      0x2c0 build/obj/serial.o
 .debug_abbrev  0x0000000000001e2b      0x114 build/obj/hal_lld.o
 .debug_abbrev  0x0000000000001f3f       0xe3 build/obj/system_SAM3.o
 .debug_abbrev  0x0000000000002022      0x11b build/obj/pal_lld.o
 .debug_abbrev  0x000000000000213d      0x3c2 build/obj/serial_lld.o
 .debug_abbrev  0x00000000000024ff      0x16a build/obj/board.o
 .debug_abbrev  0x0000000000002669      0x192 build/obj/chprintf.o
 .debug_abbrev  0x00000000000027fb      0x259 build/obj/main_test.o

.debug_loc      0x0000000000000000     0x2921
 .debug_loc     0x0000000000000000       0xe2 build/obj/crt0.o
 .debug_loc     0x00000000000000e2       0x5a build/obj/chcore_v7m.o
 .debug_loc     0x000000000000013c      0x169 build/obj/nvic.o
 .debug_loc     0x00000000000002a5       0x31 build/obj/chsys.o
 .debug_loc     0x00000000000002d6       0xa1 build/obj/chvt.o
 .debug_loc     0x0000000000000377      0x26b build/obj/chschd.o
 .debug_loc     0x00000000000005e2      0x32c build/obj/chthreads.o
 .debug_loc     0x000000000000090e      0x38b build/obj/chmtx.o
 .debug_loc     0x0000000000000c99      0x47c build/obj/chevents.o
 .debug_loc     0x0000000000001115      0x61d build/obj/chqueues.o
 .debug_loc     0x0000000000001732       0xaa build/obj/chmemcore.o
 .debug_loc     0x00000000000017dc      0x3ae build/obj/chheap.o
 .debug_loc     0x0000000000001b8a      0x4e0 build/obj/serial.o
 .debug_loc     0x000000000000206a       0x42 build/obj/pal_lld.o
 .debug_loc     0x00000000000020ac      0x312 build/obj/serial_lld.o
 .debug_loc     0x00000000000023be      0x542 build/obj/chprintf.o
 .debug_loc     0x0000000000002900       0x21 build/obj/main_test.o

.debug_aranges  0x0000000000000000      0x5d8
 .debug_aranges
                0x0000000000000000       0x38 build/obj/crt0.o
 .debug_aranges
                0x0000000000000038       0x20 build/obj/vectors.o
 .debug_aranges
                0x0000000000000058       0x50 build/obj/chcore_v7m.o
 .debug_aranges
                0x00000000000000a8       0x30 build/obj/nvic.o
 .debug_aranges
                0x00000000000000d8       0x30 build/obj/chsys.o
 .debug_aranges
                0x0000000000000108       0x38 build/obj/chvt.o
 .debug_aranges
                0x0000000000000140       0x58 build/obj/chschd.o
 .debug_aranges
                0x0000000000000198       0x78 build/obj/chthreads.o
 .debug_aranges
                0x0000000000000210       0x58 build/obj/chmtx.o
 .debug_aranges
                0x0000000000000268       0x90 build/obj/chevents.o
 .debug_aranges
                0x00000000000002f8       0x70 build/obj/chqueues.o
 .debug_aranges
                0x0000000000000368       0x38 build/obj/chmemcore.o
 .debug_aranges
                0x00000000000003a0       0x40 build/obj/chheap.o
 .debug_aranges
                0x00000000000003e0       0x20 build/obj/hal.o
 .debug_aranges
                0x0000000000000400       0x90 build/obj/serial.o
 .debug_aranges
                0x0000000000000490       0x28 build/obj/hal_lld.o
 .debug_aranges
                0x00000000000004b8       0x28 build/obj/system_SAM3.o
 .debug_aranges
                0x00000000000004e0       0x28 build/obj/pal_lld.o
 .debug_aranges
                0x0000000000000508       0x58 build/obj/serial_lld.o
 .debug_aranges
                0x0000000000000560       0x28 build/obj/board.o
 .debug_aranges
                0x0000000000000588       0x28 build/obj/chprintf.o
 .debug_aranges
                0x00000000000005b0       0x28 build/obj/main_test.o

.debug_ranges   0x0000000000000000      0x8b8
 .debug_ranges  0x0000000000000000       0x28 build/obj/crt0.o
 .debug_ranges  0x0000000000000028       0x10 build/obj/vectors.o
 .debug_ranges  0x0000000000000038       0x58 build/obj/chcore_v7m.o
 .debug_ranges  0x0000000000000090       0x20 build/obj/nvic.o
 .debug_ranges  0x00000000000000b0       0x38 build/obj/chsys.o
 .debug_ranges  0x00000000000000e8       0x28 build/obj/chvt.o
 .debug_ranges  0x0000000000000110      0x108 build/obj/chschd.o
 .debug_ranges  0x0000000000000218      0x148 build/obj/chthreads.o
 .debug_ranges  0x0000000000000360      0x170 build/obj/chmtx.o
 .debug_ranges  0x00000000000004d0      0x110 build/obj/chevents.o
 .debug_ranges  0x00000000000005e0       0xb8 build/obj/chqueues.o
 .debug_ranges  0x0000000000000698       0x28 build/obj/chmemcore.o
 .debug_ranges  0x00000000000006c0       0x30 build/obj/chheap.o
 .debug_ranges  0x00000000000006f0       0x10 build/obj/hal.o
 .debug_ranges  0x0000000000000700       0xc8 build/obj/serial.o
 .debug_ranges  0x00000000000007c8       0x18 build/obj/hal_lld.o
 .debug_ranges  0x00000000000007e0       0x18 build/obj/system_SAM3.o
 .debug_ranges  0x00000000000007f8       0x18 build/obj/pal_lld.o
 .debug_ranges  0x0000000000000810       0x60 build/obj/serial_lld.o
 .debug_ranges  0x0000000000000870       0x18 build/obj/board.o
 .debug_ranges  0x0000000000000888       0x18 build/obj/chprintf.o
 .debug_ranges  0x00000000000008a0       0x18 build/obj/main_test.o

.debug_line     0x0000000000000000     0x2b68
 .debug_line    0x0000000000000000       0xf9 build/obj/crt0.o
 .debug_line    0x00000000000000f9       0x5f build/obj/vectors.o
 .debug_line    0x0000000000000158      0x1dd build/obj/chcore_v7m.o
 .debug_line    0x0000000000000335       0xe7 build/obj/nvic.o
 .debug_line    0x000000000000041c      0x1c1 build/obj/chsys.o
 .debug_line    0x00000000000005dd      0x14b build/obj/chvt.o
 .debug_line    0x0000000000000728      0x2cc build/obj/chschd.o
 .debug_line    0x00000000000009f4      0x353 build/obj/chthreads.o
 .debug_line    0x0000000000000d47      0x31b build/obj/chmtx.o
 .debug_line    0x0000000000001062      0x2c9 build/obj/chevents.o
 .debug_line    0x000000000000132b      0x354 build/obj/chqueues.o
 .debug_line    0x000000000000167f      0x123 build/obj/chmemcore.o
 .debug_line    0x00000000000017a2      0x23f build/obj/chheap.o
 .debug_line    0x00000000000019e1      0x130 build/obj/hal.o
 .debug_line    0x0000000000001b11      0x324 build/obj/serial.o
 .debug_line    0x0000000000001e35      0x10a build/obj/hal_lld.o
 .debug_line    0x0000000000001f3f      0x174 build/obj/system_SAM3.o
 .debug_line    0x00000000000020b3      0x177 build/obj/pal_lld.o
 .debug_line    0x000000000000222a      0x36c build/obj/serial_lld.o
 .debug_line    0x0000000000002596      0x13a build/obj/board.o
 .debug_line    0x00000000000026d0      0x224 build/obj/chprintf.o
 .debug_line    0x00000000000028f4      0x274 build/obj/main_test.o

.debug_str      0x0000000000000000     0x1818
 .debug_str     0x0000000000000000      0x28f build/obj/crt0.o
                                        0x2df (size before relaxing)
 .debug_str     0x000000000000028f       0x4c build/obj/vectors.o
                                        0x1bf (size before relaxing)
 .debug_str     0x00000000000002db      0x2ef build/obj/chcore_v7m.o
                                        0x490 (size before relaxing)
 .debug_str     0x00000000000005ca       0x9e build/obj/nvic.o
                                        0x2aa (size before relaxing)
 .debug_str     0x0000000000000668      0x10f build/obj/chsys.o
                                        0x47b (size before relaxing)
 .debug_str     0x0000000000000777       0x4c build/obj/chvt.o
                                        0x259 (size before relaxing)
 .debug_str     0x00000000000007c3       0xa6 build/obj/chschd.o
                                        0x468 (size before relaxing)
 .debug_str     0x0000000000000869       0xd8 build/obj/chthreads.o
                                        0x502 (size before relaxing)
 .debug_str     0x0000000000000941       0x8a build/obj/chmtx.o
                                        0x422 (size before relaxing)
 .debug_str     0x00000000000009cb      0x179 build/obj/chevents.o
                                        0x500 (size before relaxing)
 .debug_str     0x0000000000000b44      0x11f build/obj/chqueues.o
                                        0x4a1 (size before relaxing)
 .debug_str     0x0000000000000c63       0x70 build/obj/chmemcore.o
                                        0x220 (size before relaxing)
 .debug_str     0x0000000000000cd3       0xad build/obj/chheap.o
                                        0x401 (size before relaxing)
 .debug_str     0x0000000000000d80       0xa9 build/obj/hal.o
                                        0x230 (size before relaxing)
 .debug_str     0x0000000000000e29      0x273 build/obj/serial.o
                                        0x6ec (size before relaxing)
 .debug_str     0x000000000000109c       0x8c build/obj/hal_lld.o
                                        0x24a (size before relaxing)
 .debug_str     0x0000000000001128      0x196 build/obj/system_SAM3.o
                                        0x372 (size before relaxing)
 .debug_str     0x00000000000012be      0x259 build/obj/pal_lld.o
                                        0x55a (size before relaxing)
 .debug_str     0x0000000000001517      0x212 build/obj/serial_lld.o
                                        0xb28 (size before relaxing)
 .debug_str     0x0000000000001729       0x24 build/obj/board.o
                                        0x4c5 (size before relaxing)
 .debug_str     0x000000000000174d       0xa3 build/obj/chprintf.o
                                        0x2af (size before relaxing)
 .debug_str     0x00000000000017f0       0x28 build/obj/main_test.o
                                        0x84e (size before relaxing)

.comment        0x0000000000000000       0x1f
 .comment       0x0000000000000000       0x1f build/obj/crt0.o
                                         0x20 (size before relaxing)
 .comment       0x0000000000000000       0x20 build/obj/vectors.o
 .comment       0x0000000000000000       0x20 build/obj/chcore_v7m.o
 .comment       0x0000000000000000       0x20 build/obj/nvic.o
 .comment       0x0000000000000000       0x20 build/obj/chsys.o
 .comment       0x0000000000000000       0x20 build/obj/chvt.o
 .comment       0x0000000000000000       0x20 build/obj/chschd.o
 .comment       0x0000000000000000       0x20 build/obj/chthreads.o
 .comment       0x0000000000000000       0x20 build/obj/chmtx.o
 .comment       0x0000000000000000       0x20 build/obj/chevents.o
 .comment       0x0000000000000000       0x20 build/obj/chqueues.o
 .comment       0x0000000000000000       0x20 build/obj/chmemcore.o
 .comment       0x0000000000000000       0x20 build/obj/chheap.o
 .comment       0x0000000000000000       0x20 build/obj/hal.o
 .comment       0x0000000000000000       0x20 build/obj/serial.o
 .comment       0x0000000000000000       0x20 build/obj/hal_lld.o
 .comment       0x0000000000000000       0x20 build/obj/system_SAM3.o
 .comment       0x0000000000000000       0x20 build/obj/pal_lld.o
 .comment       0x0000000000000000       0x20 build/obj/serial_lld.o
 .comment       0x0000000000000000       0x20 build/obj/board.o
 .comment       0x0000000000000000       0x20 build/obj/chprintf.o
 .comment       0x0000000000000000       0x20 build/obj/main_test.o

.ARM.attributes
                0x0000000000000000       0x31
 .ARM.attributes
                0x0000000000000000       0x33 build/obj/crt0.o
 .ARM.attributes
                0x0000000000000033       0x33 build/obj/vectors.o
 .ARM.attributes
                0x0000000000000066       0x33 build/obj/chcore_v7m.o
 .ARM.attributes
                0x0000000000000099       0x33 build/obj/nvic.o
 .ARM.attributes
                0x00000000000000cc       0x33 build/obj/chsys.o
 .ARM.attributes
                0x00000000000000ff       0x33 build/obj/chvt.o
 .ARM.attributes
                0x0000000000000132       0x33 build/obj/chschd.o
 .ARM.attributes
                0x0000000000000165       0x33 build/obj/chthreads.o
 .ARM.attributes
                0x0000000000000198       0x33 build/obj/chmtx.o
 .ARM.attributes
                0x00000000000001cb       0x33 build/obj/chevents.o
 .ARM.attributes
                0x00000000000001fe       0x33 build/obj/chqueues.o
 .ARM.attributes
                0x0000000000000231       0x33 build/obj/chmemcore.o
 .ARM.attributes
                0x0000000000000264       0x33 build/obj/chheap.o
 .ARM.attributes
                0x0000000000000297       0x33 build/obj/hal.o
 .ARM.attributes
                0x00000000000002ca       0x33 build/obj/serial.o
 .ARM.attributes
                0x00000000000002fd       0x33 build/obj/hal_lld.o
 .ARM.attributes
                0x0000000000000330       0x33 build/obj/system_SAM3.o
 .ARM.attributes
                0x0000000000000363       0x33 build/obj/pal_lld.o
 .ARM.attributes
                0x0000000000000396       0x33 build/obj/serial_lld.o
 .ARM.attributes
                0x00000000000003c9       0x33 build/obj/board.o
 .ARM.attributes
                0x00000000000003fc       0x33 build/obj/chprintf.o
 .ARM.attributes
                0x000000000000042f       0x33 build/obj/main_test.o

.debug_frame    0x0000000000000000      0xd7c
 .debug_frame   0x0000000000000000       0x50 build/obj/crt0.o
 .debug_frame   0x0000000000000050       0x20 build/obj/vectors.o
 .debug_frame   0x0000000000000070       0x98 build/obj/chcore_v7m.o
 .debug_frame   0x0000000000000108       0x54 build/obj/nvic.o
 .debug_frame   0x000000000000015c       0x5c build/obj/chsys.o
 .debug_frame   0x00000000000001b8       0x5c build/obj/chvt.o
 .debug_frame   0x0000000000000214       0xdc build/obj/chschd.o
 .debug_frame   0x00000000000002f0      0x180 build/obj/chthreads.o
 .debug_frame   0x0000000000000470       0xe4 build/obj/chmtx.o
 .debug_frame   0x0000000000000554      0x1c0 build/obj/chevents.o
 .debug_frame   0x0000000000000714      0x17c build/obj/chqueues.o
 .debug_frame   0x0000000000000890       0x50 build/obj/chmemcore.o
 .debug_frame   0x00000000000008e0       0x98 build/obj/chheap.o
 .debug_frame   0x0000000000000978       0x2c build/obj/hal.o
 .debug_frame   0x00000000000009a4      0x150 build/obj/serial.o
 .debug_frame   0x0000000000000af4       0x3c build/obj/hal_lld.o
 .debug_frame   0x0000000000000b30       0x3c build/obj/system_SAM3.o
 .debug_frame   0x0000000000000b6c       0x3c build/obj/pal_lld.o
 .debug_frame   0x0000000000000ba8       0xe4 build/obj/serial_lld.o
 .debug_frame   0x0000000000000c8c       0x3c build/obj/board.o
 .debug_frame   0x0000000000000cc8       0x6c build/obj/chprintf.o
 .debug_frame   0x0000000000000d34       0x48 build/obj/main_test.o

Cross Reference Table

Symbol                                            File
ADC_CfgChannelMode                                build/obj/atmel_adc.o
ADC_CfgLowRes                                     build/obj/atmel_adc.o
ADC_CfgPowerSave                                  build/obj/atmel_adc.o
ADC_CfgTiming                                     build/obj/atmel_adc.o
ADC_CfgTrigering                                  build/obj/atmel_adc.o
ADC_GetConvertedData                              build/obj/atmel_adc.o
ADC_Initialize                                    build/obj/atmel_adc.o
ADC_IsChannelInterruptStatusSet                   build/obj/atmel_adc.o
ADC_IsInterruptMasked                             build/obj/atmel_adc.o
ADC_IsStatusSet                                   build/obj/atmel_adc.o
ADC_ReadBuffer                                    build/obj/atmel_adc.o
ADC_SetCompareChannel                             build/obj/atmel_adc.o
ADC_SetCompareMode                                build/obj/atmel_adc.o
ADC_SetComparisonWindow                           build/obj/atmel_adc.o
ADC_cfgFrequency                                  build/obj/atmel_adc.o
ADC_check                                         build/obj/atmel_adc.o
BusFaultVector                                    build/obj/vectors.o
DebugMonitorVector                                build/obj/vectors.o
HardFaultVector                                   build/obj/vectors.o
MemManageVector                                   build/obj/vectors.o
NMIVector                                         build/obj/vectors.o
PWMC_ConfigureChannel                             build/obj/atmel_pwm.o
PWMC_ConfigureClocks                              build/obj/atmel_pwm.o
PWMC_DisableChannel                               build/obj/atmel_pwm.o
PWMC_DisableChannelIt                             build/obj/atmel_pwm.o
PWMC_EnableChannel                                build/obj/atmel_pwm.o
PWMC_EnableChannelIt                              build/obj/atmel_pwm.o
PWMC_SetDutyCycle                                 build/obj/atmel_pwm.o
PWMC_SetPeriod                                    build/obj/atmel_pwm.o
PendSVVector                                      build/obj/vectors.o
ResetHandler                                      build/obj/crt0.o
                                                  build/obj/vectors.o
SD1                                               build/obj/serial_lld.o
                                                  build/obj/main_test.o
SD2                                               build/obj/serial_lld.o
                                                  build/obj/atmel_pwm.o
                                                  build/obj/atmel_adc.o
SVCallVector                                      build/obj/chcore_v7m.o
                                                  build/obj/vectors.o
SysTickVector                                     build/obj/chcore_v7m.o
                                                  build/obj/vectors.o
SystemCoreClock                                   build/obj/system_SAM3.o
                                                  build/obj/serial_lld.o
                                                  build/obj/hal_lld.o
SystemCoreClockUpdate                             build/obj/system_SAM3.o
                                                  build/obj/serial_lld.o
                                                  build/obj/hal_lld.o
SystemInit                                        build/obj/system_SAM3.o
                                                  build/obj/hal_lld.o
TestThread                                        build/obj/test.o
UsageFaultVector                                  build/obj/vectors.o
Vector1C                                          build/obj/vectors.o
Vector20                                          build/obj/vectors.o
Vector24                                          build/obj/vectors.o
Vector28                                          build/obj/vectors.o
Vector34                                          build/obj/vectors.o
Vector40                                          build/obj/vectors.o
Vector44                                          build/obj/vectors.o
Vector48                                          build/obj/vectors.o
Vector4C                                          build/obj/vectors.o
Vector50                                          build/obj/vectors.o
Vector54                                          build/obj/vectors.o
Vector58                                          build/obj/vectors.o
Vector5C                                          build/obj/vectors.o
Vector60                                          build/obj/serial_lld.o
                                                  build/obj/vectors.o
Vector64                                          build/obj/serial_lld.o
                                                  build/obj/vectors.o
Vector68                                          build/obj/vectors.o
Vector6C                                          build/obj/vectors.o
Vector70                                          build/obj/vectors.o
Vector74                                          build/obj/vectors.o
Vector78                                          build/obj/vectors.o
Vector7C                                          build/obj/vectors.o
Vector80                                          build/obj/vectors.o
Vector84                                          build/obj/vectors.o
Vector88                                          build/obj/vectors.o
Vector8C                                          build/obj/vectors.o
Vector90                                          build/obj/vectors.o
Vector94                                          build/obj/vectors.o
Vector98                                          build/obj/vectors.o
Vector9C                                          build/obj/vectors.o
VectorA0                                          build/obj/vectors.o
VectorA4                                          build/obj/vectors.o
VectorA8                                          build/obj/vectors.o
VectorAC                                          build/obj/vectors.o
VectorB0                                          build/obj/vectors.o
VectorB4                                          build/obj/vectors.o
VectorB8                                          build/obj/vectors.o
VectorBC                                          build/obj/vectors.o
_PathLocale                                       /usr/lib/gcc/arm-none-eabi/4.8.2/../../../arm-none-eabi/lib/armv7-m/libc.a(lib_a-locale.o)
__aeabi_idiv0                                     /usr/lib/gcc/arm-none-eabi/4.8.2/armv7-m/libgcc.a(_dvmd_tls.o)
__aeabi_ldiv0                                     /usr/lib/gcc/arm-none-eabi/4.8.2/armv7-m/libgcc.a(_dvmd_tls.o)
                                                  /usr/lib/gcc/arm-none-eabi/4.8.2/armv7-m/libgcc.a(_aeabi_uldivmod.o)
__aeabi_uldivmod                                  /usr/lib/gcc/arm-none-eabi/4.8.2/armv7-m/libgcc.a(_aeabi_uldivmod.o)
                                                  /usr/lib/gcc/arm-none-eabi/4.8.2/../../../arm-none-eabi/lib/armv7-m/libc.a(lib_a-vfiprintf.o)
__ascii_wctomb                                    /usr/lib/gcc/arm-none-eabi/4.8.2/../../../arm-none-eabi/lib/armv7-m/libc.a(lib_a-wctomb_r.o)
__assert                                          /usr/lib/gcc/arm-none-eabi/4.8.2/../../../arm-none-eabi/lib/armv7-m/libc.a(lib_a-assert.o)
__assert_func                                     /usr/lib/gcc/arm-none-eabi/4.8.2/../../../arm-none-eabi/lib/armv7-m/libc.a(lib_a-assert.o)
                                                  build/obj/atmel_pwm.o
                                                  build/obj/atmel_adc.o
__divdi3                                          /usr/lib/gcc/arm-none-eabi/4.8.2/armv7-m/libgcc.a(_divdi3.o)
                                                  /usr/lib/gcc/arm-none-eabi/4.8.2/armv7-m/libgcc.a(bpabi.o)
__early_init                                      build/obj/board.o
                                                  build/obj/crt0.o
__fini_array_end                                  build/obj/crt0.o
__fini_array_start                                build/obj/crt0.o
__fp_lock_all                                     /usr/lib/gcc/arm-none-eabi/4.8.2/../../../arm-none-eabi/lib/armv7-m/libc.a(lib_a-findfp.o)
__fp_unlock_all                                   /usr/lib/gcc/arm-none-eabi/4.8.2/../../../arm-none-eabi/lib/armv7-m/libc.a(lib_a-findfp.o)
__gnu_ldivmod_helper                              /usr/lib/gcc/arm-none-eabi/4.8.2/armv7-m/libgcc.a(bpabi.o)
__gnu_uldivmod_helper                             /usr/lib/gcc/arm-none-eabi/4.8.2/armv7-m/libgcc.a(bpabi.o)
                                                  /usr/lib/gcc/arm-none-eabi/4.8.2/armv7-m/libgcc.a(_aeabi_uldivmod.o)
__heap_base__                                     build/obj/chmemcore.o
__heap_end__                                      build/obj/chmemcore.o
__init_array_end                                  build/obj/crt0.o
__init_array_start                                build/obj/crt0.o
__late_init                                       build/obj/crt0.o
__locale_charset                                  /usr/lib/gcc/arm-none-eabi/4.8.2/../../../arm-none-eabi/lib/armv7-m/libc.a(lib_a-locale.o)
                                                  /usr/lib/gcc/arm-none-eabi/4.8.2/../../../arm-none-eabi/lib/armv7-m/libc.a(lib_a-wctomb_r.o)
                                                  /usr/lib/gcc/arm-none-eabi/4.8.2/../../../arm-none-eabi/lib/armv7-m/libc.a(lib_a-wcrtomb.o)
__locale_cjk_lang                                 /usr/lib/gcc/arm-none-eabi/4.8.2/../../../arm-none-eabi/lib/armv7-m/libc.a(lib_a-locale.o)
__locale_mb_cur_max                               /usr/lib/gcc/arm-none-eabi/4.8.2/../../../arm-none-eabi/lib/armv7-m/libc.a(lib_a-locale.o)
                                                  /usr/lib/gcc/arm-none-eabi/4.8.2/../../../arm-none-eabi/lib/armv7-m/libc.a(lib_a-fputwc.o)
__locale_msgcharset                               /usr/lib/gcc/arm-none-eabi/4.8.2/../../../arm-none-eabi/lib/armv7-m/libc.a(lib_a-locale.o)
__main_stack_base__                               build/obj/crt0.o
__main_stack_end__                                build/obj/crt0.o
__malloc_av_                                      /usr/lib/gcc/arm-none-eabi/4.8.2/../../../arm-none-eabi/lib/armv7-m/libc.a(lib_a-mallocr.o)
                                                  /usr/lib/gcc/arm-none-eabi/4.8.2/../../../arm-none-eabi/lib/armv7-m/libc.a(lib_a-reallocr.o)
                                                  /usr/lib/gcc/arm-none-eabi/4.8.2/../../../arm-none-eabi/lib/armv7-m/libc.a(lib_a-freer.o)
__malloc_current_mallinfo                         /usr/lib/gcc/arm-none-eabi/4.8.2/../../../arm-none-eabi/lib/armv7-m/libc.a(lib_a-mallocr.o)
                                                  /usr/lib/gcc/arm-none-eabi/4.8.2/../../../arm-none-eabi/lib/armv7-m/libc.a(lib_a-freer.o)
__malloc_lock                                     /usr/lib/gcc/arm-none-eabi/4.8.2/../../../arm-none-eabi/lib/armv7-m/libc.a(lib_a-mlock.o)
                                                  /usr/lib/gcc/arm-none-eabi/4.8.2/../../../arm-none-eabi/lib/armv7-m/libc.a(lib_a-reallocr.o)
                                                  /usr/lib/gcc/arm-none-eabi/4.8.2/../../../arm-none-eabi/lib/armv7-m/libc.a(lib_a-mallocr.o)
                                                  /usr/lib/gcc/arm-none-eabi/4.8.2/../../../arm-none-eabi/lib/armv7-m/libc.a(lib_a-freer.o)
__malloc_max_sbrked_mem                           /usr/lib/gcc/arm-none-eabi/4.8.2/../../../arm-none-eabi/lib/armv7-m/libc.a(lib_a-mallocr.o)
__malloc_max_total_mem                            /usr/lib/gcc/arm-none-eabi/4.8.2/../../../arm-none-eabi/lib/armv7-m/libc.a(lib_a-mallocr.o)
__malloc_sbrk_base                                /usr/lib/gcc/arm-none-eabi/4.8.2/../../../arm-none-eabi/lib/armv7-m/libc.a(lib_a-mallocr.o)
                                                  /usr/lib/gcc/arm-none-eabi/4.8.2/../../../arm-none-eabi/lib/armv7-m/libc.a(lib_a-freer.o)
__malloc_top_pad                                  /usr/lib/gcc/arm-none-eabi/4.8.2/../../../arm-none-eabi/lib/armv7-m/libc.a(lib_a-mallocr.o)
                                                  /usr/lib/gcc/arm-none-eabi/4.8.2/../../../arm-none-eabi/lib/armv7-m/libc.a(lib_a-freer.o)
__malloc_trim_threshold                           /usr/lib/gcc/arm-none-eabi/4.8.2/../../../arm-none-eabi/lib/armv7-m/libc.a(lib_a-mallocr.o)
                                                  /usr/lib/gcc/arm-none-eabi/4.8.2/../../../arm-none-eabi/lib/armv7-m/libc.a(lib_a-freer.o)
__malloc_unlock                                   /usr/lib/gcc/arm-none-eabi/4.8.2/../../../arm-none-eabi/lib/armv7-m/libc.a(lib_a-mlock.o)
                                                  /usr/lib/gcc/arm-none-eabi/4.8.2/../../../arm-none-eabi/lib/armv7-m/libc.a(lib_a-reallocr.o)
                                                  /usr/lib/gcc/arm-none-eabi/4.8.2/../../../arm-none-eabi/lib/armv7-m/libc.a(lib_a-mallocr.o)
                                                  /usr/lib/gcc/arm-none-eabi/4.8.2/../../../arm-none-eabi/lib/armv7-m/libc.a(lib_a-freer.o)
__mb_cur_max                                      /usr/lib/gcc/arm-none-eabi/4.8.2/../../../arm-none-eabi/lib/armv7-m/libc.a(lib_a-locale.o)
__mlocale_changed                                 /usr/lib/gcc/arm-none-eabi/4.8.2/../../../arm-none-eabi/lib/armv7-m/libc.a(lib_a-locale.o)
__nlocale_changed                                 /usr/lib/gcc/arm-none-eabi/4.8.2/../../../arm-none-eabi/lib/armv7-m/libc.a(lib_a-locale.o)
__process_stack_base__                            build/obj/crt0.o
__process_stack_end__                             build/obj/crt0.o
__ram_end__                                       build/obj/vectors.o
__sclose                                          /usr/lib/gcc/arm-none-eabi/4.8.2/../../../arm-none-eabi/lib/armv7-m/libc.a(lib_a-stdio.o)
                                                  /usr/lib/gcc/arm-none-eabi/4.8.2/../../../arm-none-eabi/lib/armv7-m/libc.a(lib_a-findfp.o)
__seofread                                        /usr/lib/gcc/arm-none-eabi/4.8.2/../../../arm-none-eabi/lib/armv7-m/libc.a(lib_a-stdio.o)
__sflush_r                                        /usr/lib/gcc/arm-none-eabi/4.8.2/../../../arm-none-eabi/lib/armv7-m/libc.a(lib_a-fflush.o)
__sfmoreglue                                      /usr/lib/gcc/arm-none-eabi/4.8.2/../../../arm-none-eabi/lib/armv7-m/libc.a(lib_a-findfp.o)
__sfp                                             /usr/lib/gcc/arm-none-eabi/4.8.2/../../../arm-none-eabi/lib/armv7-m/libc.a(lib_a-findfp.o)
__sfp_lock_acquire                                /usr/lib/gcc/arm-none-eabi/4.8.2/../../../arm-none-eabi/lib/armv7-m/libc.a(lib_a-findfp.o)
                                                  /usr/lib/gcc/arm-none-eabi/4.8.2/../../../arm-none-eabi/lib/armv7-m/libc.a(lib_a-fclose.o)
__sfp_lock_release                                /usr/lib/gcc/arm-none-eabi/4.8.2/../../../arm-none-eabi/lib/armv7-m/libc.a(lib_a-findfp.o)
                                                  /usr/lib/gcc/arm-none-eabi/4.8.2/../../../arm-none-eabi/lib/armv7-m/libc.a(lib_a-fclose.o)
__sfvwrite_r                                      /usr/lib/gcc/arm-none-eabi/4.8.2/../../../arm-none-eabi/lib/armv7-m/libc.a(lib_a-fvwrite.o)
                                                  /usr/lib/gcc/arm-none-eabi/4.8.2/../../../arm-none-eabi/lib/armv7-m/libc.a(lib_a-vfiprintf.o)
__sigtramp                                        /usr/lib/gcc/arm-none-eabi/4.8.2/../../../arm-none-eabi/lib/armv7-m/libc.a(lib_a-signal.o)
__sigtramp_r                                      /usr/lib/gcc/arm-none-eabi/4.8.2/../../../arm-none-eabi/lib/armv7-m/libc.a(lib_a-signal.o)
__sinit                                           /usr/lib/gcc/arm-none-eabi/4.8.2/../../../arm-none-eabi/lib/armv7-m/libc.a(lib_a-findfp.o)
                                                  /usr/lib/gcc/arm-none-eabi/4.8.2/../../../arm-none-eabi/lib/armv7-m/libc.a(lib_a-fclose.o)
                                                  /usr/lib/gcc/arm-none-eabi/4.8.2/../../../arm-none-eabi/lib/armv7-m/libc.a(lib_a-wbuf.o)
                                                  /usr/lib/gcc/arm-none-eabi/4.8.2/../../../arm-none-eabi/lib/armv7-m/libc.a(lib_a-fputwc.o)
                                                  /usr/lib/gcc/arm-none-eabi/4.8.2/../../../arm-none-eabi/lib/armv7-m/libc.a(lib_a-fflush.o)
                                                  /usr/lib/gcc/arm-none-eabi/4.8.2/../../../arm-none-eabi/lib/armv7-m/libc.a(lib_a-wsetup.o)
                                                  /usr/lib/gcc/arm-none-eabi/4.8.2/../../../arm-none-eabi/lib/armv7-m/libc.a(lib_a-vfiprintf.o)
__sinit_lock_acquire                              /usr/lib/gcc/arm-none-eabi/4.8.2/../../../arm-none-eabi/lib/armv7-m/libc.a(lib_a-findfp.o)
__sinit_lock_release                              /usr/lib/gcc/arm-none-eabi/4.8.2/../../../arm-none-eabi/lib/armv7-m/libc.a(lib_a-findfp.o)
__smakebuf_r                                      /usr/lib/gcc/arm-none-eabi/4.8.2/../../../arm-none-eabi/lib/armv7-m/libc.a(lib_a-makebuf.o)
                                                  /usr/lib/gcc/arm-none-eabi/4.8.2/../../../arm-none-eabi/lib/armv7-m/libc.a(lib_a-wsetup.o)
__sprint_r                                        /usr/lib/gcc/arm-none-eabi/4.8.2/../../../arm-none-eabi/lib/armv7-m/libc.a(lib_a-vfiprintf.o)
__sread                                           /usr/lib/gcc/arm-none-eabi/4.8.2/../../../arm-none-eabi/lib/armv7-m/libc.a(lib_a-stdio.o)
                                                  /usr/lib/gcc/arm-none-eabi/4.8.2/../../../arm-none-eabi/lib/armv7-m/libc.a(lib_a-findfp.o)
__sseek                                           /usr/lib/gcc/arm-none-eabi/4.8.2/../../../arm-none-eabi/lib/armv7-m/libc.a(lib_a-stdio.o)
                                                  /usr/lib/gcc/arm-none-eabi/4.8.2/../../../arm-none-eabi/lib/armv7-m/libc.a(lib_a-makebuf.o)
                                                  /usr/lib/gcc/arm-none-eabi/4.8.2/../../../arm-none-eabi/lib/armv7-m/libc.a(lib_a-findfp.o)
__swbuf                                           /usr/lib/gcc/arm-none-eabi/4.8.2/../../../arm-none-eabi/lib/armv7-m/libc.a(lib_a-wbuf.o)
__swbuf_r                                         /usr/lib/gcc/arm-none-eabi/4.8.2/../../../arm-none-eabi/lib/armv7-m/libc.a(lib_a-wbuf.o)
                                                  /usr/lib/gcc/arm-none-eabi/4.8.2/../../../arm-none-eabi/lib/armv7-m/libc.a(lib_a-fputwc.o)
__swrite                                          /usr/lib/gcc/arm-none-eabi/4.8.2/../../../arm-none-eabi/lib/armv7-m/libc.a(lib_a-stdio.o)
                                                  /usr/lib/gcc/arm-none-eabi/4.8.2/../../../arm-none-eabi/lib/armv7-m/libc.a(lib_a-findfp.o)
__swsetup_r                                       /usr/lib/gcc/arm-none-eabi/4.8.2/../../../arm-none-eabi/lib/armv7-m/libc.a(lib_a-wsetup.o)
                                                  /usr/lib/gcc/arm-none-eabi/4.8.2/../../../arm-none-eabi/lib/armv7-m/libc.a(lib_a-wbuf.o)
                                                  /usr/lib/gcc/arm-none-eabi/4.8.2/../../../arm-none-eabi/lib/armv7-m/libc.a(lib_a-fvwrite.o)
                                                  /usr/lib/gcc/arm-none-eabi/4.8.2/../../../arm-none-eabi/lib/armv7-m/libc.a(lib_a-vfiprintf.o)
__udivdi3                                         /usr/lib/gcc/arm-none-eabi/4.8.2/armv7-m/libgcc.a(_udivdi3.o)
                                                  /usr/lib/gcc/arm-none-eabi/4.8.2/armv7-m/libgcc.a(bpabi.o)
__wctomb                                          /usr/lib/gcc/arm-none-eabi/4.8.2/../../../arm-none-eabi/lib/armv7-m/libc.a(lib_a-wctomb_r.o)
                                                  /usr/lib/gcc/arm-none-eabi/4.8.2/../../../arm-none-eabi/lib/armv7-m/libc.a(lib_a-wcrtomb.o)
_bss_end                                          build/obj/crt0.o
_bss_start                                        build/obj/crt0.o
_cleanup                                          /usr/lib/gcc/arm-none-eabi/4.8.2/../../../arm-none-eabi/lib/armv7-m/libc.a(lib_a-findfp.o)
_cleanup_r                                        /usr/lib/gcc/arm-none-eabi/4.8.2/../../../arm-none-eabi/lib/armv7-m/libc.a(lib_a-findfp.o)
                                                  /usr/lib/gcc/arm-none-eabi/4.8.2/../../../arm-none-eabi/lib/armv7-m/libc.a(lib_a-makebuf.o)
_close_r                                          build/obj/syscalls.o
                                                  /usr/lib/gcc/arm-none-eabi/4.8.2/../../../arm-none-eabi/lib/armv7-m/libc.a(lib_a-stdio.o)
_core_init                                        build/obj/chmemcore.o
                                                  build/obj/chsys.o
_data                                             build/obj/crt0.o
_default_exit                                     build/obj/crt0.o
_edata                                            build/obj/crt0.o
_exit                                             build/obj/syscalls.o
                                                  /usr/lib/gcc/arm-none-eabi/4.8.2/../../../arm-none-eabi/lib/armv7-m/libc.a(lib_a-abort.o)
_fclose_r                                         /usr/lib/gcc/arm-none-eabi/4.8.2/../../../arm-none-eabi/lib/armv7-m/libc.a(lib_a-fclose.o)
_fflush_r                                         /usr/lib/gcc/arm-none-eabi/4.8.2/../../../arm-none-eabi/lib/armv7-m/libc.a(lib_a-fflush.o)
                                                  /usr/lib/gcc/arm-none-eabi/4.8.2/../../../arm-none-eabi/lib/armv7-m/libc.a(lib_a-fclose.o)
                                                  /usr/lib/gcc/arm-none-eabi/4.8.2/../../../arm-none-eabi/lib/armv7-m/libc.a(lib_a-wbuf.o)
                                                  /usr/lib/gcc/arm-none-eabi/4.8.2/../../../arm-none-eabi/lib/armv7-m/libc.a(lib_a-fvwrite.o)
                                                  /usr/lib/gcc/arm-none-eabi/4.8.2/../../../arm-none-eabi/lib/armv7-m/libc.a(lib_a-vfiprintf.o)
_fiprintf_r                                       /usr/lib/gcc/arm-none-eabi/4.8.2/../../../arm-none-eabi/lib/armv7-m/libc.a(lib_a-fiprintf.o)
_fputwc_r                                         /usr/lib/gcc/arm-none-eabi/4.8.2/../../../arm-none-eabi/lib/armv7-m/libc.a(lib_a-fputwc.o)
                                                  /usr/lib/gcc/arm-none-eabi/4.8.2/../../../arm-none-eabi/lib/armv7-m/libc.a(lib_a-vfiprintf.o)
_free_r                                           /usr/lib/gcc/arm-none-eabi/4.8.2/../../../arm-none-eabi/lib/armv7-m/libc.a(lib_a-freer.o)
                                                  /usr/lib/gcc/arm-none-eabi/4.8.2/../../../arm-none-eabi/lib/armv7-m/libc.a(lib_a-reent.o)
                                                  /usr/lib/gcc/arm-none-eabi/4.8.2/../../../arm-none-eabi/lib/armv7-m/libc.a(lib_a-fclose.o)
                                                  /usr/lib/gcc/arm-none-eabi/4.8.2/../../../arm-none-eabi/lib/armv7-m/libc.a(lib_a-reallocr.o)
                                                  /usr/lib/gcc/arm-none-eabi/4.8.2/../../../arm-none-eabi/lib/armv7-m/libc.a(lib_a-mallocr.o)
                                                  /usr/lib/gcc/arm-none-eabi/4.8.2/../../../arm-none-eabi/lib/armv7-m/libc.a(lib_a-fvwrite.o)
                                                  /usr/lib/gcc/arm-none-eabi/4.8.2/../../../arm-none-eabi/lib/armv7-m/libc.a(lib_a-fflush.o)
                                                  /usr/lib/gcc/arm-none-eabi/4.8.2/../../../arm-none-eabi/lib/armv7-m/libc.a(lib_a-wsetup.o)
_fstat_r                                          build/obj/syscalls.o
                                                  /usr/lib/gcc/arm-none-eabi/4.8.2/../../../arm-none-eabi/lib/armv7-m/libc.a(lib_a-makebuf.o)
_fwalk                                            /usr/lib/gcc/arm-none-eabi/4.8.2/../../../arm-none-eabi/lib/armv7-m/libc.a(lib_a-fwalk.o)
                                                  /usr/lib/gcc/arm-none-eabi/4.8.2/../../../arm-none-eabi/lib/armv7-m/libc.a(lib_a-findfp.o)
_fwalk_reent                                      /usr/lib/gcc/arm-none-eabi/4.8.2/../../../arm-none-eabi/lib/armv7-m/libc.a(lib_a-fwalk.o)
                                                  /usr/lib/gcc/arm-none-eabi/4.8.2/../../../arm-none-eabi/lib/armv7-m/libc.a(lib_a-fflush.o)
_getpid                                           build/obj/syscalls.o
                                                  /usr/lib/gcc/arm-none-eabi/4.8.2/../../../arm-none-eabi/lib/armv7-m/libc.a(lib_a-signalr.o)
_getpid_r                                         /usr/lib/gcc/arm-none-eabi/4.8.2/../../../arm-none-eabi/lib/armv7-m/libc.a(lib_a-signalr.o)
                                                  /usr/lib/gcc/arm-none-eabi/4.8.2/../../../arm-none-eabi/lib/armv7-m/libc.a(lib_a-signal.o)
_global_impure_ptr                                /usr/lib/gcc/arm-none-eabi/4.8.2/../../../arm-none-eabi/lib/armv7-m/libc.a(lib_a-impure.o)
                                                  /usr/lib/gcc/arm-none-eabi/4.8.2/../../../arm-none-eabi/lib/armv7-m/libc.a(lib_a-findfp.o)
                                                  /usr/lib/gcc/arm-none-eabi/4.8.2/../../../arm-none-eabi/lib/armv7-m/libc.a(lib_a-fflush.o)
_heap_init                                        build/obj/chheap.o
                                                  build/obj/chsys.o
_idle_thread                                      build/obj/chsys.o
_idle_thread_wa                                   build/obj/chsys.o
_impure_ptr                                       /usr/lib/gcc/arm-none-eabi/4.8.2/../../../arm-none-eabi/lib/armv7-m/libc.a(lib_a-impure.o)
                                                  /usr/lib/gcc/arm-none-eabi/4.8.2/../../../arm-none-eabi/lib/armv7-m/libc.a(lib_a-reent.o)
                                                  /usr/lib/gcc/arm-none-eabi/4.8.2/../../../arm-none-eabi/lib/armv7-m/libc.a(lib_a-fclose.o)
                                                  /usr/lib/gcc/arm-none-eabi/4.8.2/../../../arm-none-eabi/lib/armv7-m/libc.a(lib_a-wcrtomb.o)
                                                  /usr/lib/gcc/arm-none-eabi/4.8.2/../../../arm-none-eabi/lib/armv7-m/libc.a(lib_a-wbuf.o)
                                                  /usr/lib/gcc/arm-none-eabi/4.8.2/../../../arm-none-eabi/lib/armv7-m/libc.a(lib_a-signal.o)
                                                  /usr/lib/gcc/arm-none-eabi/4.8.2/../../../arm-none-eabi/lib/armv7-m/libc.a(lib_a-locale.o)
                                                  /usr/lib/gcc/arm-none-eabi/4.8.2/../../../arm-none-eabi/lib/armv7-m/libc.a(lib_a-fputwc.o)
                                                  /usr/lib/gcc/arm-none-eabi/4.8.2/../../../arm-none-eabi/lib/armv7-m/libc.a(lib_a-findfp.o)
                                                  /usr/lib/gcc/arm-none-eabi/4.8.2/../../../arm-none-eabi/lib/armv7-m/libc.a(lib_a-fflush.o)
                                                  /usr/lib/gcc/arm-none-eabi/4.8.2/../../../arm-none-eabi/lib/armv7-m/libc.a(lib_a-wsetup.o)
                                                  /usr/lib/gcc/arm-none-eabi/4.8.2/../../../arm-none-eabi/lib/armv7-m/libc.a(lib_a-vfiprintf.o)
                                                  /usr/lib/gcc/arm-none-eabi/4.8.2/../../../arm-none-eabi/lib/armv7-m/libc.a(lib_a-fiprintf.o)
                                                  /usr/lib/gcc/arm-none-eabi/4.8.2/../../../arm-none-eabi/lib/armv7-m/libc.a(lib_a-assert.o)
_init_signal                                      /usr/lib/gcc/arm-none-eabi/4.8.2/../../../arm-none-eabi/lib/armv7-m/libc.a(lib_a-signal.o)
_init_signal_r                                    /usr/lib/gcc/arm-none-eabi/4.8.2/../../../arm-none-eabi/lib/armv7-m/libc.a(lib_a-signal.o)
_isatty_r                                         build/obj/syscalls.o
                                                  /usr/lib/gcc/arm-none-eabi/4.8.2/../../../arm-none-eabi/lib/armv7-m/libc.a(lib_a-makebuf.o)
_kill                                             build/obj/syscalls.o
                                                  /usr/lib/gcc/arm-none-eabi/4.8.2/../../../arm-none-eabi/lib/armv7-m/libc.a(lib_a-signalr.o)
_kill_r                                           /usr/lib/gcc/arm-none-eabi/4.8.2/../../../arm-none-eabi/lib/armv7-m/libc.a(lib_a-signalr.o)
                                                  /usr/lib/gcc/arm-none-eabi/4.8.2/../../../arm-none-eabi/lib/armv7-m/libc.a(lib_a-signal.o)
_localeconv_r                                     /usr/lib/gcc/arm-none-eabi/4.8.2/../../../arm-none-eabi/lib/armv7-m/libc.a(lib_a-locale.o)
_lseek_r                                          build/obj/syscalls.o
                                                  /usr/lib/gcc/arm-none-eabi/4.8.2/../../../arm-none-eabi/lib/armv7-m/libc.a(lib_a-stdio.o)
_malloc_r                                         /usr/lib/gcc/arm-none-eabi/4.8.2/../../../arm-none-eabi/lib/armv7-m/libc.a(lib_a-mallocr.o)
                                                  /usr/lib/gcc/arm-none-eabi/4.8.2/../../../arm-none-eabi/lib/armv7-m/libc.a(lib_a-signal.o)
                                                  /usr/lib/gcc/arm-none-eabi/4.8.2/../../../arm-none-eabi/lib/armv7-m/libc.a(lib_a-reallocr.o)
                                                  /usr/lib/gcc/arm-none-eabi/4.8.2/../../../arm-none-eabi/lib/armv7-m/libc.a(lib_a-makebuf.o)
                                                  /usr/lib/gcc/arm-none-eabi/4.8.2/../../../arm-none-eabi/lib/armv7-m/libc.a(lib_a-fvwrite.o)
                                                  /usr/lib/gcc/arm-none-eabi/4.8.2/../../../arm-none-eabi/lib/armv7-m/libc.a(lib_a-findfp.o)
_malloc_trim_r                                    /usr/lib/gcc/arm-none-eabi/4.8.2/../../../arm-none-eabi/lib/armv7-m/libc.a(lib_a-freer.o)
_pal_lld_init                                     build/obj/pal_lld.o
                                                  build/obj/hal.o
_pal_lld_setgroupmode                             build/obj/pal_lld.o
                                                  build/obj/board.o
                                                  build/obj/pal.o
_port_init                                        build/obj/chcore_v7m.o
                                                  build/obj/chsys.o
_port_irq_epilogue                                build/obj/chcore_v7m.o
                                                  build/obj/serial_lld.o
_port_switch                                      build/obj/chcore_v7m.o
                                                  build/obj/chschd.o
_port_switch_from_isr                             build/obj/chcore_v7m.o
_port_thread_start                                build/obj/chcore_v7m.o
                                                  build/obj/chthreads.o
_raise_r                                          /usr/lib/gcc/arm-none-eabi/4.8.2/../../../arm-none-eabi/lib/armv7-m/libc.a(lib_a-signal.o)
_read_r                                           build/obj/syscalls.o
                                                  /usr/lib/gcc/arm-none-eabi/4.8.2/../../../arm-none-eabi/lib/armv7-m/libc.a(lib_a-stdio.o)
_realloc_r                                        /usr/lib/gcc/arm-none-eabi/4.8.2/../../../arm-none-eabi/lib/armv7-m/libc.a(lib_a-reallocr.o)
                                                  /usr/lib/gcc/arm-none-eabi/4.8.2/../../../arm-none-eabi/lib/armv7-m/libc.a(lib_a-fvwrite.o)
_reclaim_reent                                    /usr/lib/gcc/arm-none-eabi/4.8.2/../../../arm-none-eabi/lib/armv7-m/libc.a(lib_a-reent.o)
_sbrk_r                                           build/obj/syscalls.o
                                                  /usr/lib/gcc/arm-none-eabi/4.8.2/../../../arm-none-eabi/lib/armv7-m/libc.a(lib_a-mallocr.o)
                                                  /usr/lib/gcc/arm-none-eabi/4.8.2/../../../arm-none-eabi/lib/armv7-m/libc.a(lib_a-freer.o)
_scheduler_init                                   build/obj/chschd.o
                                                  build/obj/chsys.o
_setlocale_r                                      /usr/lib/gcc/arm-none-eabi/4.8.2/../../../arm-none-eabi/lib/armv7-m/libc.a(lib_a-locale.o)
_signal_r                                         /usr/lib/gcc/arm-none-eabi/4.8.2/../../../arm-none-eabi/lib/armv7-m/libc.a(lib_a-signal.o)
_test_assert                                      build/obj/test.o
                                                  build/obj/testqueues.o
                                                  build/obj/testdyn.o
                                                  build/obj/testpools.o
                                                  build/obj/testheap.o
                                                  build/obj/testevt.o
                                                  build/obj/testmbox.o
                                                  build/obj/testmtx.o
                                                  build/obj/testsem.o
                                                  build/obj/testthd.o
_test_assert_sequence                             build/obj/test.o
                                                  build/obj/testqueues.o
                                                  build/obj/testdyn.o
                                                  build/obj/testevt.o
                                                  build/obj/testmbox.o
                                                  build/obj/testmsg.o
                                                  build/obj/testmtx.o
                                                  build/obj/testsem.o
                                                  build/obj/testthd.o
_test_assert_time_window                          build/obj/test.o
                                                  build/obj/testevt.o
                                                  build/obj/testmtx.o
                                                  build/obj/testsem.o
                                                  build/obj/testthd.o
_test_fail                                        build/obj/test.o
_textdata                                         build/obj/crt0.o
_thread_init                                      build/obj/chthreads.o
                                                  build/obj/chsys.o
_unhandled_exception                              build/obj/vectors.o
_vectors                                          build/obj/vectors.o
_vfiprintf_r                                      /usr/lib/gcc/arm-none-eabi/4.8.2/../../../arm-none-eabi/lib/armv7-m/libc.a(lib_a-vfiprintf.o)
                                                  /usr/lib/gcc/arm-none-eabi/4.8.2/../../../arm-none-eabi/lib/armv7-m/libc.a(lib_a-fiprintf.o)
_vt_init                                          build/obj/chvt.o
                                                  build/obj/chsys.o
_wcrtomb_r                                        /usr/lib/gcc/arm-none-eabi/4.8.2/../../../arm-none-eabi/lib/armv7-m/libc.a(lib_a-wcrtomb.o)
                                                  /usr/lib/gcc/arm-none-eabi/4.8.2/../../../arm-none-eabi/lib/armv7-m/libc.a(lib_a-fputwc.o)
_wctomb_r                                         /usr/lib/gcc/arm-none-eabi/4.8.2/../../../arm-none-eabi/lib/armv7-m/libc.a(lib_a-wctomb_r.o)
_write_r                                          build/obj/syscalls.o
                                                  /usr/lib/gcc/arm-none-eabi/4.8.2/../../../arm-none-eabi/lib/armv7-m/libc.a(lib_a-stdio.o)
abort                                             /usr/lib/gcc/arm-none-eabi/4.8.2/../../../arm-none-eabi/lib/armv7-m/libc.a(lib_a-abort.o)
                                                  /usr/lib/gcc/arm-none-eabi/4.8.2/../../../arm-none-eabi/lib/armv7-m/libc.a(lib_a-assert.o)
at91sam3_clock_init                               build/obj/hal_lld.o
                                                  build/obj/board.o
boardInit                                         build/obj/board.o
                                                  build/obj/hal.o
chCondBroadcast                                   build/obj/chcond.o
                                                  build/obj/testmtx.o
chCondBroadcastI                                  build/obj/chcond.o
chCondInit                                        build/obj/chcond.o
                                                  build/obj/testmtx.o
chCondSignal                                      build/obj/chcond.o
                                                  build/obj/testmtx.o
chCondSignalI                                     build/obj/chcond.o
                                                  build/obj/testmtx.o
chCondWait                                        build/obj/chcond.o
                                                  build/obj/testmtx.o
chCondWaitS                                       build/obj/chcond.o
chCondWaitTimeout                                 build/obj/chcond.o
                                                  build/obj/testmtx.o
chCondWaitTimeoutS                                build/obj/chcond.o
chCoreAlloc                                       build/obj/chmemcore.o
                                                  build/obj/syscalls.o
                                                  build/obj/chheap.o
chCoreAllocI                                      build/obj/chmemcore.o
chCoreStatus                                      build/obj/chmemcore.o
                                                  build/obj/testheap.o
chEvtAddFlags                                     build/obj/chevents.o
                                                  build/obj/testevt.o
chEvtBroadcastFlags                               build/obj/chevents.o
                                                  build/obj/testevt.o
chEvtBroadcastFlagsI                              build/obj/chevents.o
                                                  build/obj/evtimer.o
                                                  build/obj/serial_lld.o
                                                  build/obj/serial.o
chEvtClearFlags                                   build/obj/chevents.o
                                                  build/obj/testevt.o
chEvtDispatch                                     build/obj/chevents.o
                                                  build/obj/testevt.o
chEvtRegisterMask                                 build/obj/chevents.o
                                                  build/obj/testevt.o
chEvtSignalFlags                                  build/obj/chevents.o
                                                  build/obj/testevt.o
chEvtSignalFlagsI                                 build/obj/chevents.o
chEvtUnregister                                   build/obj/chevents.o
                                                  build/obj/testevt.o
chEvtWaitAll                                      build/obj/chevents.o
                                                  build/obj/testevt.o
chEvtWaitAllTimeout                               build/obj/chevents.o
                                                  build/obj/testevt.o
chEvtWaitAny                                      build/obj/chevents.o
                                                  build/obj/testevt.o
chEvtWaitAnyTimeout                               build/obj/chevents.o
                                                  build/obj/testevt.o
chEvtWaitOne                                      build/obj/chevents.o
                                                  build/obj/testevt.o
chEvtWaitOneTimeout                               build/obj/chevents.o
                                                  build/obj/testevt.o
chHeapAlloc                                       build/obj/chheap.o
                                                  build/obj/testdyn.o
                                                  build/obj/testheap.o
                                                  build/obj/chdynamic.o
chHeapFree                                        build/obj/chheap.o
                                                  build/obj/testdyn.o
                                                  build/obj/testheap.o
                                                  build/obj/chdynamic.o
chHeapInit                                        build/obj/chheap.o
                                                  build/obj/testdyn.o
                                                  build/obj/testheap.o
chHeapStatus                                      build/obj/chheap.o
                                                  build/obj/testdyn.o
                                                  build/obj/testheap.o
chIQGetTimeout                                    build/obj/chqueues.o
                                                  build/obj/serial.o
                                                  build/obj/testbmk.o
                                                  build/obj/testqueues.o
chIQInit                                          build/obj/chqueues.o
                                                  build/obj/serial.o
                                                  build/obj/testbmk.o
                                                  build/obj/testqueues.o
chIQPutI                                          build/obj/chqueues.o
                                                  build/obj/serial.o
                                                  build/obj/testbmk.o
                                                  build/obj/testqueues.o
chIQReadTimeout                                   build/obj/chqueues.o
                                                  build/obj/serial.o
                                                  build/obj/testqueues.o
chIQResetI                                        build/obj/chqueues.o
                                                  build/obj/serial.o
                                                  build/obj/testqueues.o
chMBFetch                                         build/obj/chmboxes.o
                                                  build/obj/testmbox.o
chMBFetchI                                        build/obj/chmboxes.o
                                                  build/obj/testmbox.o
chMBFetchS                                        build/obj/chmboxes.o
chMBInit                                          build/obj/chmboxes.o
                                                  build/obj/testmbox.o
chMBPost                                          build/obj/chmboxes.o
                                                  build/obj/testmbox.o
chMBPostAhead                                     build/obj/chmboxes.o
                                                  build/obj/testmbox.o
chMBPostAheadI                                    build/obj/chmboxes.o
                                                  build/obj/testmbox.o
chMBPostAheadS                                    build/obj/chmboxes.o
chMBPostI                                         build/obj/chmboxes.o
                                                  build/obj/testmbox.o
chMBPostS                                         build/obj/chmboxes.o
chMBReset                                         build/obj/chmboxes.o
                                                  build/obj/testmbox.o
chMsgRelease                                      build/obj/chmsg.o
                                                  build/obj/testbmk.o
                                                  build/obj/testmsg.o
chMsgSend                                         build/obj/chmsg.o
                                                  build/obj/testbmk.o
                                                  build/obj/testmsg.o
chMsgWait                                         build/obj/chmsg.o
                                                  build/obj/testbmk.o
                                                  build/obj/testmsg.o
chMtxInit                                         build/obj/chmtx.o
                                                  build/obj/testbmk.o
                                                  build/obj/testmtx.o
                                                  build/obj/chheap.o
chMtxLock                                         build/obj/chmtx.o
                                                  build/obj/testbmk.o
                                                  build/obj/testmtx.o
                                                  build/obj/chheap.o
chMtxLockS                                        build/obj/chmtx.o
                                                  build/obj/chcond.o
chMtxTryLock                                      build/obj/chmtx.o
                                                  build/obj/testmtx.o
chMtxTryLockS                                     build/obj/chmtx.o
chMtxUnlock                                       build/obj/chmtx.o
                                                  build/obj/testbmk.o
                                                  build/obj/testmtx.o
                                                  build/obj/chheap.o
chMtxUnlockAll                                    build/obj/chmtx.o
                                                  build/obj/testmtx.o
chMtxUnlockS                                      build/obj/chmtx.o
                                                  build/obj/testmtx.o
                                                  build/obj/chcond.o
chOQGetI                                          build/obj/chqueues.o
                                                  build/obj/serial_lld.o
                                                  build/obj/serial.o
                                                  build/obj/testqueues.o
chOQInit                                          build/obj/chqueues.o
                                                  build/obj/serial.o
                                                  build/obj/testqueues.o
chOQPutTimeout                                    build/obj/chqueues.o
                                                  build/obj/serial.o
                                                  build/obj/testqueues.o
chOQResetI                                        build/obj/chqueues.o
                                                  build/obj/serial.o
                                                  build/obj/testqueues.o
chOQWriteTimeout                                  build/obj/chqueues.o
                                                  build/obj/serial.o
                                                  build/obj/testqueues.o
chPoolAlloc                                       build/obj/chmempools.o
                                                  build/obj/testdyn.o
                                                  build/obj/testpools.o
                                                  build/obj/chdynamic.o
chPoolAllocI                                      build/obj/chmempools.o
chPoolFree                                        build/obj/chmempools.o
                                                  build/obj/testdyn.o
                                                  build/obj/testpools.o
                                                  build/obj/chdynamic.o
chPoolFreeI                                       build/obj/chmempools.o
chPoolInit                                        build/obj/chmempools.o
                                                  build/obj/testdyn.o
                                                  build/obj/testpools.o
chRegFirstThread                                  build/obj/chregistry.o
                                                  build/obj/testdyn.o
chRegNextThread                                   build/obj/chregistry.o
                                                  build/obj/testdyn.o
chSchDoReschedule                                 build/obj/chschd.o
                                                  build/obj/chthreads.o
                                                  build/obj/chcore_v7m.o
chSchGoSleepS                                     build/obj/chschd.o
                                                  build/obj/testbmk.o
                                                  build/obj/chmsg.o
                                                  build/obj/chevents.o
                                                  build/obj/chcond.o
                                                  build/obj/chmtx.o
                                                  build/obj/chsem.o
                                                  build/obj/chthreads.o
chSchGoSleepTimeoutS                              build/obj/chschd.o
                                                  build/obj/chqueues.o
                                                  build/obj/chevents.o
                                                  build/obj/chcond.o
                                                  build/obj/chsem.o
                                                  build/obj/chthreads.o
chSchReadyI                                       build/obj/chschd.o
                                                  build/obj/chqueues.o
                                                  build/obj/chmsg.o
                                                  build/obj/chevents.o
                                                  build/obj/chcond.o
                                                  build/obj/chmtx.o
                                                  build/obj/chsem.o
                                                  build/obj/chthreads.o
chSchRescheduleS                                  build/obj/chschd.o
                                                  build/obj/serial.o
                                                  build/obj/testmtx.o
                                                  build/obj/testsem.o
                                                  build/obj/chmboxes.o
                                                  build/obj/chevents.o
                                                  build/obj/chcond.o
                                                  build/obj/chmtx.o
                                                  build/obj/chsem.o
                                                  build/obj/chthreads.o
chSchWakeupS                                      build/obj/chschd.o
                                                  build/obj/testbmk.o
                                                  build/obj/chmsg.o
                                                  build/obj/chcond.o
                                                  build/obj/chmtx.o
                                                  build/obj/chsem.o
                                                  build/obj/chdynamic.o
                                                  build/obj/chthreads.o
chSemAddCounterI                                  build/obj/chsem.o
                                                  build/obj/testsem.o
chSemInit                                         build/obj/chsem.o
                                                  build/obj/testbmk.o
                                                  build/obj/testsem.o
                                                  build/obj/chmboxes.o
chSemReset                                        build/obj/chsem.o
                                                  build/obj/testbmk.o
                                                  build/obj/testsem.o
chSemResetI                                       build/obj/chsem.o
                                                  build/obj/chmboxes.o
chSemSignal                                       build/obj/chsem.o
                                                  build/obj/testbmk.o
                                                  build/obj/testsem.o
chSemSignalI                                      build/obj/chsem.o
                                                  build/obj/testsem.o
                                                  build/obj/chmboxes.o
chSemSignalWait                                   build/obj/chsem.o
                                                  build/obj/testsem.o
chSemWait                                         build/obj/chsem.o
                                                  build/obj/testbmk.o
                                                  build/obj/testsem.o
chSemWaitS                                        build/obj/chsem.o
chSemWaitTimeout                                  build/obj/chsem.o
                                                  build/obj/testsem.o
chSemWaitTimeoutS                                 build/obj/chsem.o
                                                  build/obj/chmboxes.o
chSysInit                                         build/obj/chsys.o
                                                  build/obj/main_test.o
chSysTimerHandlerI                                build/obj/chsys.o
                                                  build/obj/chcore_v7m.o
chThdAddRef                                       build/obj/chdynamic.o
                                                  build/obj/testdyn.o
chThdCreateFromHeap                               build/obj/chdynamic.o
                                                  build/obj/testdyn.o
chThdCreateFromMemoryPool                         build/obj/chdynamic.o
                                                  build/obj/testdyn.o
chThdCreateI                                      build/obj/chthreads.o
                                                  build/obj/testthd.o
                                                  build/obj/chdynamic.o
chThdCreateStatic                                 build/obj/chthreads.o
                                                  build/obj/main_test.o
                                                  build/obj/testbmk.o
                                                  build/obj/testqueues.o
                                                  build/obj/testevt.o
                                                  build/obj/testmsg.o
                                                  build/obj/testmtx.o
                                                  build/obj/testsem.o
                                                  build/obj/testthd.o
                                                  build/obj/chsys.o
chThdExit                                         build/obj/chthreads.o
                                                  build/obj/chcore_v7m.o
chThdExitS                                        build/obj/chthreads.o
chThdRelease                                      build/obj/chdynamic.o
                                                  build/obj/testdyn.o
                                                  build/obj/chregistry.o
                                                  build/obj/chthreads.o
chThdResume                                       build/obj/chthreads.o
                                                  build/obj/testthd.o
chThdSetPriority                                  build/obj/chthreads.o
                                                  build/obj/testthd.o
chThdSleep                                        build/obj/chthreads.o
                                                  build/obj/main_test.o
                                                  build/obj/testbmk.o
                                                  build/obj/testdyn.o
                                                  build/obj/testevt.o
                                                  build/obj/testmtx.o
                                                  build/obj/testsem.o
                                                  build/obj/testthd.o
                                                  build/obj/test.o
chThdSleepUntil                                   build/obj/chthreads.o
                                                  build/obj/testthd.o
chThdTerminate                                    build/obj/chthreads.o
                                                  build/obj/test.o
chThdWait                                         build/obj/chthreads.o
                                                  build/obj/testbmk.o
                                                  build/obj/test.o
chThdYield                                        build/obj/chthreads.o
                                                  build/obj/testbmk.o
chTimeIsWithin                                    build/obj/chvt.o
                                                  build/obj/test.o
chVTResetI                                        build/obj/chvt.o
                                                  build/obj/evtimer.o
                                                  build/obj/testbmk.o
                                                  build/obj/chschd.o
chVTSetI                                          build/obj/chvt.o
                                                  build/obj/evtimer.o
                                                  build/obj/testbmk.o
                                                  build/obj/test.o
                                                  build/obj/chschd.o
chprintf                                          build/obj/chprintf.o
                                                  build/obj/main_test.o
                                                  build/obj/atmel_pwm.o
                                                  build/obj/atmel_adc.o
cleanup_glue                                      /usr/lib/gcc/arm-none-eabi/4.8.2/../../../arm-none-eabi/lib/armv7-m/libc.a(lib_a-reent.o)
errno                                             /usr/lib/gcc/arm-none-eabi/4.8.2/../../../arm-none-eabi/lib/armv7-m/libc.a(lib_a-reent.o)
                                                  /usr/lib/gcc/arm-none-eabi/4.8.2/../../../arm-none-eabi/lib/armv7-m/libc.a(lib_a-signalr.o)
evtStart                                          build/obj/evtimer.o
evtStop                                           build/obj/evtimer.o
fclose                                            /usr/lib/gcc/arm-none-eabi/4.8.2/../../../arm-none-eabi/lib/armv7-m/libc.a(lib_a-fclose.o)
                                                  /usr/lib/gcc/arm-none-eabi/4.8.2/../../../arm-none-eabi/lib/armv7-m/libc.a(lib_a-findfp.o)
fflush                                            /usr/lib/gcc/arm-none-eabi/4.8.2/../../../arm-none-eabi/lib/armv7-m/libc.a(lib_a-fflush.o)
fiprintf                                          /usr/lib/gcc/arm-none-eabi/4.8.2/../../../arm-none-eabi/lib/armv7-m/libc.a(lib_a-fiprintf.o)
                                                  /usr/lib/gcc/arm-none-eabi/4.8.2/../../../arm-none-eabi/lib/armv7-m/libc.a(lib_a-assert.o)
fputwc                                            /usr/lib/gcc/arm-none-eabi/4.8.2/../../../arm-none-eabi/lib/armv7-m/libc.a(lib_a-fputwc.o)
halInit                                           build/obj/hal.o
                                                  build/obj/main_test.o
hal_lld_init                                      build/obj/hal_lld.o
                                                  build/obj/hal.o
localeconv                                        /usr/lib/gcc/arm-none-eabi/4.8.2/../../../arm-none-eabi/lib/armv7-m/libc.a(lib_a-locale.o)
main                                              build/obj/main_test.o
                                                  build/obj/crt0.o
memchr                                            /usr/lib/gcc/arm-none-eabi/4.8.2/../../../arm-none-eabi/lib/armv7-m/libc.a(lib_a-memchr-stub.o)
                                                  /usr/lib/gcc/arm-none-eabi/4.8.2/../../../arm-none-eabi/lib/armv7-m/libc.a(lib_a-fvwrite.o)
                                                  /usr/lib/gcc/arm-none-eabi/4.8.2/../../../arm-none-eabi/lib/armv7-m/libc.a(lib_a-vfiprintf.o)
memcpy                                            /usr/lib/gcc/arm-none-eabi/4.8.2/../../../arm-none-eabi/lib/armv7-m/libc.a(lib_a-memcpy.o)
                                                  /usr/lib/gcc/arm-none-eabi/4.8.2/../../../arm-none-eabi/lib/armv7-m/libc.a(lib_a-fvwrite.o)
memmove                                           /usr/lib/gcc/arm-none-eabi/4.8.2/../../../arm-none-eabi/lib/armv7-m/libc.a(lib_a-memmove.o)
                                                  /usr/lib/gcc/arm-none-eabi/4.8.2/../../../arm-none-eabi/lib/armv7-m/libc.a(lib_a-reallocr.o)
                                                  /usr/lib/gcc/arm-none-eabi/4.8.2/../../../arm-none-eabi/lib/armv7-m/libc.a(lib_a-fvwrite.o)
memset                                            /usr/lib/gcc/arm-none-eabi/4.8.2/../../../arm-none-eabi/lib/armv7-m/libc.a(lib_a-memset.o)
                                                  /usr/lib/gcc/arm-none-eabi/4.8.2/../../../arm-none-eabi/lib/armv7-m/libc.a(lib_a-findfp.o)
                                                  build/obj/syscalls.o
nvicDisableVector                                 build/obj/nvic.o
                                                  build/obj/serial_lld.o
nvicEnableVector                                  build/obj/nvic.o
                                                  build/obj/serial_lld.o
nvicSetSystemHandlerPriority                      build/obj/nvic.o
                                                  build/obj/hal_lld.o
                                                  build/obj/chcore_v7m.o
palReadBus                                        build/obj/pal.o
palSetBusMode                                     build/obj/pal.o
palWriteBus                                       build/obj/pal.o
pal_default_config                                build/obj/board.o
                                                  build/obj/hal.o
patternbmk                                        build/obj/testbmk.o
                                                  build/obj/test.o
patterndyn                                        build/obj/testdyn.o
                                                  build/obj/test.o
patternevt                                        build/obj/testevt.o
                                                  build/obj/test.o
patternheap                                       build/obj/testheap.o
                                                  build/obj/test.o
patternmbox                                       build/obj/testmbox.o
                                                  build/obj/test.o
patternmsg                                        build/obj/testmsg.o
                                                  build/obj/test.o
patternmtx                                        build/obj/testmtx.o
                                                  build/obj/test.o
patternpools                                      build/obj/testpools.o
                                                  build/obj/test.o
patternqueues                                     build/obj/testqueues.o
                                                  build/obj/test.o
patternsem                                        build/obj/testsem.o
                                                  build/obj/test.o
patternthd                                        build/obj/testthd.o
                                                  build/obj/test.o
port_halt                                         build/obj/chcore.o
raise                                             /usr/lib/gcc/arm-none-eabi/4.8.2/../../../arm-none-eabi/lib/armv7-m/libc.a(lib_a-signal.o)
                                                  /usr/lib/gcc/arm-none-eabi/4.8.2/../../../arm-none-eabi/lib/armv7-m/libc.a(lib_a-abort.o)
rlist                                             build/obj/chschd.o
                                                  build/obj/testbmk.o
                                                  build/obj/testqueues.o
                                                  build/obj/testdyn.o
                                                  build/obj/testevt.o
                                                  build/obj/testmsg.o
                                                  build/obj/testmtx.o
                                                  build/obj/testsem.o
                                                  build/obj/testthd.o
                                                  build/obj/test.o
                                                  build/obj/chqueues.o
                                                  build/obj/chmsg.o
                                                  build/obj/chevents.o
                                                  build/obj/chcond.o
                                                  build/obj/chmtx.o
                                                  build/obj/chsem.o
                                                  build/obj/chregistry.o
                                                  build/obj/chthreads.o
                                                  build/obj/chsys.o
                                                  build/obj/chcore_v7m.o
sdIncomingDataI                                   build/obj/serial.o
                                                  build/obj/serial_lld.o
sdInit                                            build/obj/serial.o
                                                  build/obj/hal.o
sdObjectInit                                      build/obj/serial.o
                                                  build/obj/serial_lld.o
sdRequestDataI                                    build/obj/serial.o
sdStart                                           build/obj/serial.o
                                                  build/obj/main_test.o
sdStop                                            build/obj/serial.o
sd_lld_init                                       build/obj/serial_lld.o
                                                  build/obj/serial.o
sd_lld_start                                      build/obj/serial_lld.o
                                                  build/obj/serial.o
sd_lld_stop                                       build/obj/serial_lld.o
                                                  build/obj/serial.o
setlocale                                         /usr/lib/gcc/arm-none-eabi/4.8.2/../../../arm-none-eabi/lib/armv7-m/libc.a(lib_a-locale.o)
signal                                            /usr/lib/gcc/arm-none-eabi/4.8.2/../../../arm-none-eabi/lib/armv7-m/libc.a(lib_a-signal.o)
strcmp                                            /usr/lib/gcc/arm-none-eabi/4.8.2/../../../arm-none-eabi/lib/armv7-m/libc.a(lib_a-strcmp.o)
                                                  /usr/lib/gcc/arm-none-eabi/4.8.2/../../../arm-none-eabi/lib/armv7-m/libc.a(lib_a-locale.o)
strlen                                            /usr/lib/gcc/arm-none-eabi/4.8.2/../../../arm-none-eabi/lib/armv7-m/libc.a(lib_a-strlen.o)
                                                  /usr/lib/gcc/arm-none-eabi/4.8.2/../../../arm-none-eabi/lib/armv7-m/libc.a(lib_a-vfiprintf.o)
test                                              build/obj/test.o
                                                  build/obj/testqueues.o
                                                  build/obj/testdyn.o
                                                  build/obj/testheap.o
                                                  build/obj/testmbox.o
test_cpu_pulse                                    build/obj/test.o
                                                  build/obj/testmtx.o
test_emit_token                                   build/obj/test.o
                                                  build/obj/testqueues.o
                                                  build/obj/testdyn.o
                                                  build/obj/testevt.o
                                                  build/obj/testmbox.o
                                                  build/obj/testmsg.o
                                                  build/obj/testmtx.o
                                                  build/obj/testsem.o
                                                  build/obj/testthd.o
test_print                                        build/obj/test.o
                                                  build/obj/testbmk.o
test_println                                      build/obj/test.o
                                                  build/obj/testbmk.o
test_printn                                       build/obj/test.o
                                                  build/obj/testbmk.o
test_start_timer                                  build/obj/test.o
                                                  build/obj/testbmk.o
test_terminate_threads                            build/obj/test.o
                                                  build/obj/testbmk.o
test_timer_done                                   build/obj/test.o
                                                  build/obj/testbmk.o
test_wait_threads                                 build/obj/test.o
                                                  build/obj/testbmk.o
                                                  build/obj/testqueues.o
                                                  build/obj/testdyn.o
                                                  build/obj/testevt.o
                                                  build/obj/testmtx.o
                                                  build/obj/testsem.o
                                                  build/obj/testthd.o
test_wait_tick                                    build/obj/test.o
                                                  build/obj/testbmk.o
                                                  build/obj/testevt.o
                                                  build/obj/testmtx.o
                                                  build/obj/testsem.o
                                                  build/obj/testthd.o
testbmk1                                          build/obj/testbmk.o
testbmk10                                         build/obj/testbmk.o
testbmk11                                         build/obj/testbmk.o
testbmk12                                         build/obj/testbmk.o
testbmk13                                         build/obj/testbmk.o
testbmk2                                          build/obj/testbmk.o
testbmk3                                          build/obj/testbmk.o
testbmk4                                          build/obj/testbmk.o
testbmk5                                          build/obj/testbmk.o
testbmk6                                          build/obj/testbmk.o
testbmk7                                          build/obj/testbmk.o
testbmk8                                          build/obj/testbmk.o
testbmk9                                          build/obj/testbmk.o
testdyn1                                          build/obj/testdyn.o
testdyn2                                          build/obj/testdyn.o
testdyn3                                          build/obj/testdyn.o
testevt1                                          build/obj/testevt.o
testevt2                                          build/obj/testevt.o
testevt3                                          build/obj/testevt.o
testheap1                                         build/obj/testheap.o
testmbox1                                         build/obj/testmbox.o
testmsg1                                          build/obj/testmsg.o
testmtx1                                          build/obj/testmtx.o
testmtx2                                          build/obj/testmtx.o
testmtx3                                          build/obj/testmtx.o
testmtx4                                          build/obj/testmtx.o
testmtx5                                          build/obj/testmtx.o
testmtx6                                          build/obj/testmtx.o
testmtx7                                          build/obj/testmtx.o
testmtx8                                          build/obj/testmtx.o
testpools1                                        build/obj/testpools.o
testqueues1                                       build/obj/testqueues.o
testqueues2                                       build/obj/testqueues.o
testsem1                                          build/obj/testsem.o
testsem2                                          build/obj/testsem.o
testsem3                                          build/obj/testsem.o
testsem4                                          build/obj/testsem.o
testthd1                                          build/obj/testthd.o
testthd2                                          build/obj/testthd.o
testthd3                                          build/obj/testthd.o
testthd4                                          build/obj/testthd.o
thread4                                           build/obj/testbmk.o
threads                                           build/obj/test.o
                                                  build/obj/testbmk.o
                                                  build/obj/testqueues.o
                                                  build/obj/testdyn.o
                                                  build/obj/testevt.o
                                                  build/obj/testmsg.o
                                                  build/obj/testmtx.o
                                                  build/obj/testsem.o
                                                  build/obj/testthd.o
vfiprintf                                         /usr/lib/gcc/arm-none-eabi/4.8.2/../../../arm-none-eabi/lib/armv7-m/libc.a(lib_a-vfiprintf.o)
vtlist                                            build/obj/chvt.o
                                                  build/obj/testevt.o
                                                  build/obj/testmtx.o
                                                  build/obj/testsem.o
                                                  build/obj/testthd.o
                                                  build/obj/test.o
                                                  build/obj/chthreads.o
                                                  build/obj/chsys.o
wa                                                build/obj/test.o
                                                  build/obj/testbmk.o
                                                  build/obj/testqueues.o
                                                  build/obj/testdyn.o
                                                  build/obj/testpools.o
                                                  build/obj/testevt.o
                                                  build/obj/testmsg.o
                                                  build/obj/testmtx.o
                                                  build/obj/testsem.o
                                                  build/obj/testthd.o
wcrtomb                                           /usr/lib/gcc/arm-none-eabi/4.8.2/../../../arm-none-eabi/lib/armv7-m/libc.a(lib_a-wcrtomb.o)
