ARM GAS  /tmp/ccleMCWB.s 			page 1


   1              		.syntax unified
   2              		.cpu cortex-m3
   3              		.fpu softvfp
   4              		.eabi_attribute 20, 1
   5              		.eabi_attribute 21, 1
   6              		.eabi_attribute 23, 3
   7              		.eabi_attribute 24, 1
   8              		.eabi_attribute 25, 1
   9              		.eabi_attribute 26, 1
  10              		.eabi_attribute 30, 2
  11              		.eabi_attribute 34, 1
  12              		.eabi_attribute 18, 4
  13              		.thumb
  14              		.file	"atmel_twi.c"
  15              		.text
  16              	.Ltext0:
  17              		.cfi_sections	.debug_frame
  18              		.section	.text.TWI0_Initialize,"ax",%progbits
  19              		.align	2
  20              		.p2align 4,,15
  21              		.global	TWI0_Initialize
  22              		.thumb
  23              		.thumb_func
  24              		.type	TWI0_Initialize, %function
  25              	TWI0_Initialize:
  26              	.LFB36:
  27              		.file 1 "./atmel_lib/atmel_twi.c"
  28              		.loc 1 102 0
  29              		.cfi_startproc
  30              		@ args = 0, pretend = 0, frame = 0
  31              		@ frame_needed = 0, uses_anonymous_args = 0
  32              		@ link register save eliminated.
  33              		.loc 1 104 0
  34 0000 4FF48063 		mov	r3, #1024
  35 0004 4FF48641 		mov	r1, #17152
  36              		.loc 1 106 0
  37 0008 44F20132 		movw	r2, #17153
  38              		.loc 1 104 0
  39 000c C4F20E03 		movt	r3, 16398
  40 0010 C5F24D01 		movt	r1, 20557
  41              		.loc 1 105 0
  42 0014 4FF40020 		mov	r0, #524288
  43              		.loc 1 106 0
  44 0018 C5F24D02 		movt	r2, 20557
  45              		.loc 1 104 0
  46 001c C3F8E410 		str	r1, [r3, #228]
  47              		.loc 1 105 0
  48 0020 1861     		str	r0, [r3, #16]
  49              		.loc 1 106 0
  50 0022 C3F8E420 		str	r2, [r3, #228]
  51 0026 7047     		bx	lr
  52              		.cfi_endproc
  53              	.LFE36:
  54              		.size	TWI0_Initialize, .-TWI0_Initialize
  55 0028 AFF30080 		.section	.text.TWI_ConfigureMaster,"ax",%progbits
  55      AFF30080 
  56              		.align	2
ARM GAS  /tmp/ccleMCWB.s 			page 2


  57              		.p2align 4,,15
  58              		.global	TWI_ConfigureMaster
  59              		.thumb
  60              		.thumb_func
  61              		.type	TWI_ConfigureMaster, %function
  62              	TWI_ConfigureMaster:
  63              	.LFB37:
  64              		.loc 1 111 0
  65              		.cfi_startproc
  66              		@ args = 0, pretend = 0, frame = 0
  67              		@ frame_needed = 0, uses_anonymous_args = 0
  68              	.LVL0:
  69 0000 70B5     		push	{r4, r5, r6, lr}
  70              		.cfi_def_cfa_offset 16
  71              		.cfi_offset 4, -16
  72              		.cfi_offset 5, -12
  73              		.cfi_offset 6, -8
  74              		.cfi_offset 14, -4
  75              		.loc 1 117 0
  76 0002 10B3     		cbz	r0, .L11
  77 0004 4900     		lsls	r1, r1, #1
  78              	.LVL1:
  79              		.loc 1 120 0
  80 0006 1024     		movs	r4, #16
  81              		.loc 1 122 0
  82 0008 8023     		movs	r3, #128
  83              		.loc 1 120 0
  84 000a 0460     		str	r4, [r0]
  85 000c B2FBF1F2 		udiv	r2, r2, r1
  86              	.LVL2:
  87              		.loc 1 122 0
  88 0010 0360     		str	r3, [r0]
  89              		.loc 1 123 0
  90 0012 036B     		ldr	r3, [r0, #48]
  91 0014 043A     		subs	r2, r2, #4
  92              		.loc 1 112 0
  93 0016 0023     		movs	r3, #0
  94              		.loc 1 135 0
  95 0018 22FA03F1 		lsr	r1, r2, r3
  96              		.loc 1 126 0
  97 001c 2026     		movs	r6, #32
  98              		.loc 1 127 0
  99 001e 0825     		movs	r5, #8
 100              		.loc 1 130 0
 101 0020 0424     		movs	r4, #4
 102              		.loc 1 137 0
 103 0022 FF29     		cmp	r1, #255
 104              		.loc 1 126 0
 105 0024 0660     		str	r6, [r0]
 106              		.loc 1 127 0
 107 0026 0560     		str	r5, [r0]
 108              		.loc 1 130 0
 109 0028 0460     		str	r4, [r0]
 110              	.LVL3:
 111              		.loc 1 137 0
 112 002a 04D9     		bls	.L4
 113              	.L12:
ARM GAS  /tmp/ccleMCWB.s 			page 3


 114              		.loc 1 143 0
 115 002c 0133     		adds	r3, r3, #1
 116              	.LVL4:
 117              		.loc 1 135 0
 118 002e 22FA03F1 		lsr	r1, r2, r3
 119              	.LVL5:
 120              		.loc 1 137 0
 121 0032 FF29     		cmp	r1, #255
 122 0034 FAD8     		bhi	.L12
 123              	.L4:
 124              	.LVL6:
 125              		.loc 1 147 0
 126 0036 072B     		cmp	r3, #7
 127 0038 16D8     		bhi	.L13
 128              		.loc 1 151 0
 129 003a 0A02     		lsls	r2, r1, #8
 130 003c 42EA0343 		orr	r3, r2, r3, lsl #16
 131              	.LVL7:
 132 0040 1943     		orrs	r1, r1, r3
 133              	.LVL8:
 134              		.loc 1 150 0
 135 0042 0023     		movs	r3, #0
 136 0044 0361     		str	r3, [r0, #16]
 137              		.loc 1 151 0
 138 0046 0161     		str	r1, [r0, #16]
 139 0048 70BD     		pop	{r4, r5, r6, pc}
 140              	.LVL9:
 141              	.L11:
 142              		.loc 1 117 0 discriminator 1
 143 004a 40F20000 		movw	r0, #:lower16:.LC0
 144              	.LVL10:
 145 004e 40F20002 		movw	r2, #:lower16:.LANCHOR0
 146              	.LVL11:
 147 0052 40F20003 		movw	r3, #:lower16:.LC1
 148 0056 C0F20000 		movt	r0, #:upper16:.LC0
 149 005a C0F20002 		movt	r2, #:upper16:.LANCHOR0
 150 005e C0F20003 		movt	r3, #:upper16:.LC1
 151 0062 7521     		movs	r1, #117
 152              	.LVL12:
 153 0064 FFF7FEFF 		bl	__assert_func
 154              	.LVL13:
 155              	.L13:
 156              		.loc 1 147 0 discriminator 1
 157 0068 40F20000 		movw	r0, #:lower16:.LC0
 158              	.LVL14:
 159 006c 40F20002 		movw	r2, #:lower16:.LANCHOR0
 160 0070 40F20003 		movw	r3, #:lower16:.LC2
 161              	.LVL15:
 162 0074 C0F20000 		movt	r0, #:upper16:.LC0
 163 0078 C0F20002 		movt	r2, #:upper16:.LANCHOR0
 164 007c C0F20003 		movt	r3, #:upper16:.LC2
 165 0080 9321     		movs	r1, #147
 166              	.LVL16:
 167 0082 FFF7FEFF 		bl	__assert_func
 168              	.LVL17:
 169              		.cfi_endproc
 170              	.LFE37:
ARM GAS  /tmp/ccleMCWB.s 			page 4


 171              		.size	TWI_ConfigureMaster, .-TWI_ConfigureMaster
 172 0086 00BFAFF3 		.section	.text.TWI_ConfigureSlave,"ax",%progbits
 172      0080AFF3 
 172      0080
 173              		.align	2
 174              		.p2align 4,,15
 175              		.global	TWI_ConfigureSlave
 176              		.thumb
 177              		.thumb_func
 178              		.type	TWI_ConfigureSlave, %function
 179              	TWI_ConfigureSlave:
 180              	.LFB38:
 181              		.loc 1 160 0
 182              		.cfi_startproc
 183              		@ args = 0, pretend = 0, frame = 0
 184              		@ frame_needed = 0, uses_anonymous_args = 0
 185              	.LVL18:
 186 0000 38B5     		push	{r3, r4, r5, lr}
 187              		.cfi_def_cfa_offset 16
 188              		.cfi_offset 3, -16
 189              		.cfi_offset 4, -12
 190              		.cfi_offset 5, -8
 191              		.cfi_offset 14, -4
 192              		.loc 1 175 0
 193 0002 0904     		lsls	r1, r1, #16
 194              	.LVL19:
 195              		.loc 1 164 0
 196 0004 8023     		movs	r3, #128
 197 0006 0360     		str	r3, [r0]
 198              		.loc 1 175 0
 199 0008 01F4FE01 		and	r1, r1, #8323072
 200              		.loc 1 178 0
 201 000c 1023     		movs	r3, #16
 202              		.loc 1 171 0
 203 000e 2824     		movs	r4, #40
 204              		.loc 1 174 0
 205 0010 0022     		movs	r2, #0
 206              		.loc 1 165 0
 207 0012 056B     		ldr	r5, [r0, #48]
 208              	.LVL20:
 209              		.loc 1 171 0
 210 0014 0460     		str	r4, [r0]
 211              		.loc 1 174 0
 212 0016 8260     		str	r2, [r0, #8]
 213              		.loc 1 175 0
 214 0018 8160     		str	r1, [r0, #8]
 215              		.loc 1 178 0
 216 001a 0360     		str	r3, [r0]
 217              		.loc 1 182 0
 218 001c 0368     		ldr	r3, [r0]
 219 001e 9B06     		lsls	r3, r3, #26
 220 0020 00D4     		bmi	.L16
 221 0022 38BD     		pop	{r3, r4, r5, pc}
 222              	.L16:
 223              		.loc 1 182 0 is_stmt 0 discriminator 1
 224 0024 40F20000 		movw	r0, #:lower16:.LC0
 225              	.LVL21:
ARM GAS  /tmp/ccleMCWB.s 			page 5


 226 0028 40F20002 		movw	r2, #:lower16:.LANCHOR1
 227 002c 40F20003 		movw	r3, #:lower16:.LC3
 228 0030 C0F20000 		movt	r0, #:upper16:.LC0
 229 0034 C0F20002 		movt	r2, #:upper16:.LANCHOR1
 230 0038 C0F20003 		movt	r3, #:upper16:.LC3
 231 003c B621     		movs	r1, #182
 232 003e FFF7FEFF 		bl	__assert_func
 233              	.LVL22:
 234              		.cfi_endproc
 235              	.LFE38:
 236              		.size	TWI_ConfigureSlave, .-TWI_ConfigureSlave
 237 0042 00BFAFF3 		.section	.text.TWI_Stop,"ax",%progbits
 237      0080AFF3 
 237      0080AFF3 
 237      0080
 238              		.align	2
 239              		.p2align 4,,15
 240              		.global	TWI_Stop
 241              		.thumb
 242              		.thumb_func
 243              		.type	TWI_Stop, %function
 244              	TWI_Stop:
 245              	.LFB39:
 246              		.loc 1 190 0 is_stmt 1
 247              		.cfi_startproc
 248              		@ args = 0, pretend = 0, frame = 0
 249              		@ frame_needed = 0, uses_anonymous_args = 0
 250              	.LVL23:
 251 0000 08B5     		push	{r3, lr}
 252              		.cfi_def_cfa_offset 8
 253              		.cfi_offset 3, -8
 254              		.cfi_offset 14, -4
 255              		.loc 1 191 0
 256 0002 10B1     		cbz	r0, .L19
 257              		.loc 1 192 0
 258 0004 0223     		movs	r3, #2
 259 0006 0360     		str	r3, [r0]
 260 0008 08BD     		pop	{r3, pc}
 261              	.L19:
 262              		.loc 1 191 0 discriminator 1
 263 000a 40F20000 		movw	r0, #:lower16:.LC0
 264              	.LVL24:
 265 000e 40F20002 		movw	r2, #:lower16:.LANCHOR2
 266 0012 40F20003 		movw	r3, #:lower16:.LC4
 267 0016 C0F20000 		movt	r0, #:upper16:.LC0
 268 001a C0F20002 		movt	r2, #:upper16:.LANCHOR2
 269 001e C0F20003 		movt	r3, #:upper16:.LC4
 270 0022 BF21     		movs	r1, #191
 271 0024 FFF7FEFF 		bl	__assert_func
 272              	.LVL25:
 273              		.cfi_endproc
 274              	.LFE39:
 275              		.size	TWI_Stop, .-TWI_Stop
 276              		.section	.text.TWI_StartRead,"ax",%progbits
 277              		.align	2
 278              		.p2align 4,,15
 279              		.global	TWI_StartRead
ARM GAS  /tmp/ccleMCWB.s 			page 6


 280              		.thumb
 281              		.thumb_func
 282              		.type	TWI_StartRead, %function
 283              	TWI_StartRead:
 284              	.LFB40:
 285              		.loc 1 209 0
 286              		.cfi_startproc
 287              		@ args = 0, pretend = 0, frame = 0
 288              		@ frame_needed = 0, uses_anonymous_args = 0
 289              	.LVL26:
 290 0000 38B5     		push	{r3, r4, r5, lr}
 291              		.cfi_def_cfa_offset 16
 292              		.cfi_offset 3, -16
 293              		.cfi_offset 4, -12
 294              		.cfi_offset 5, -8
 295              		.cfi_offset 14, -4
 296              		.loc 1 210 0
 297 0002 90B1     		cbz	r0, .L25
 298              		.loc 1 211 0
 299 0004 0C06     		lsls	r4, r1, #24
 300 0006 3DD4     		bmi	.L26
 301              		.loc 1 212 0
 302 0008 12F07F44 		ands	r4, r2, #-16777216
 303 000c 2BD1     		bne	.L27
 304              		.loc 1 213 0
 305 000e 032B     		cmp	r3, #3
 306 0010 1AD8     		bhi	.L28
 307              		.loc 1 217 0
 308 0012 1B02     		lsls	r3, r3, #8
 309              	.LVL27:
 310 0014 43F48053 		orr	r3, r3, #4096
 311 0018 43EA0141 		orr	r1, r3, r1, lsl #16
 312              	.LVL28:
 313              		.loc 1 224 0
 314 001c 0125     		movs	r5, #1
 315              		.loc 1 216 0
 316 001e 4460     		str	r4, [r0, #4]
 317              		.loc 1 217 0
 318 0020 4160     		str	r1, [r0, #4]
 319              		.loc 1 220 0
 320 0022 C460     		str	r4, [r0, #12]
 321              		.loc 1 221 0
 322 0024 C260     		str	r2, [r0, #12]
 323              		.loc 1 224 0
 324 0026 0560     		str	r5, [r0]
 325 0028 38BD     		pop	{r3, r4, r5, pc}
 326              	.LVL29:
 327              	.L25:
 328              		.loc 1 210 0 discriminator 1
 329 002a 40F20000 		movw	r0, #:lower16:.LC0
 330              	.LVL30:
 331 002e 40F20002 		movw	r2, #:lower16:.LANCHOR3
 332              	.LVL31:
 333 0032 40F20003 		movw	r3, #:lower16:.LC4
 334              	.LVL32:
 335 0036 C0F20000 		movt	r0, #:upper16:.LC0
 336 003a C0F20002 		movt	r2, #:upper16:.LANCHOR3
ARM GAS  /tmp/ccleMCWB.s 			page 7


 337 003e C0F20003 		movt	r3, #:upper16:.LC4
 338 0042 D221     		movs	r1, #210
 339              	.LVL33:
 340 0044 FFF7FEFF 		bl	__assert_func
 341              	.LVL34:
 342              	.L28:
 343              		.loc 1 213 0 discriminator 1
 344 0048 40F20000 		movw	r0, #:lower16:.LC0
 345              	.LVL35:
 346 004c 40F20002 		movw	r2, #:lower16:.LANCHOR3
 347              	.LVL36:
 348 0050 40F20003 		movw	r3, #:lower16:.LC7
 349              	.LVL37:
 350 0054 C0F20000 		movt	r0, #:upper16:.LC0
 351 0058 C0F20002 		movt	r2, #:upper16:.LANCHOR3
 352 005c C0F20003 		movt	r3, #:upper16:.LC7
 353 0060 D521     		movs	r1, #213
 354              	.LVL38:
 355 0062 FFF7FEFF 		bl	__assert_func
 356              	.LVL39:
 357              	.L27:
 358              		.loc 1 212 0 discriminator 1
 359 0066 40F20000 		movw	r0, #:lower16:.LC0
 360              	.LVL40:
 361 006a 40F20002 		movw	r2, #:lower16:.LANCHOR3
 362              	.LVL41:
 363 006e 40F20003 		movw	r3, #:lower16:.LC6
 364              	.LVL42:
 365 0072 C0F20000 		movt	r0, #:upper16:.LC0
 366 0076 C0F20002 		movt	r2, #:upper16:.LANCHOR3
 367 007a C0F20003 		movt	r3, #:upper16:.LC6
 368 007e D421     		movs	r1, #212
 369              	.LVL43:
 370 0080 FFF7FEFF 		bl	__assert_func
 371              	.LVL44:
 372              	.L26:
 373              		.loc 1 211 0 discriminator 1
 374 0084 40F20000 		movw	r0, #:lower16:.LC0
 375              	.LVL45:
 376 0088 40F20002 		movw	r2, #:lower16:.LANCHOR3
 377              	.LVL46:
 378 008c 40F20003 		movw	r3, #:lower16:.LC5
 379              	.LVL47:
 380 0090 C0F20000 		movt	r0, #:upper16:.LC0
 381 0094 C0F20002 		movt	r2, #:upper16:.LANCHOR3
 382 0098 C0F20003 		movt	r3, #:upper16:.LC5
 383 009c D321     		movs	r1, #211
 384              	.LVL48:
 385 009e FFF7FEFF 		bl	__assert_func
 386              	.LVL49:
 387              		.cfi_endproc
 388              	.LFE40:
 389              		.size	TWI_StartRead, .-TWI_StartRead
 390 00a2 00BFAFF3 		.section	.text.TWI_ReadByte,"ax",%progbits
 390      0080AFF3 
 390      0080AFF3 
 390      0080
ARM GAS  /tmp/ccleMCWB.s 			page 8


 391              		.align	2
 392              		.p2align 4,,15
 393              		.global	TWI_ReadByte
 394              		.thumb
 395              		.thumb_func
 396              		.type	TWI_ReadByte, %function
 397              	TWI_ReadByte:
 398              	.LFB41:
 399              		.loc 1 234 0
 400              		.cfi_startproc
 401              		@ args = 0, pretend = 0, frame = 0
 402              		@ frame_needed = 0, uses_anonymous_args = 0
 403              	.LVL50:
 404 0000 08B5     		push	{r3, lr}
 405              		.cfi_def_cfa_offset 8
 406              		.cfi_offset 3, -8
 407              		.cfi_offset 14, -4
 408              		.loc 1 235 0
 409 0002 10B1     		cbz	r0, .L31
 410              		.loc 1 237 0
 411 0004 006B     		ldr	r0, [r0, #48]
 412              	.LVL51:
 413              		.loc 1 238 0
 414 0006 C0B2     		uxtb	r0, r0
 415 0008 08BD     		pop	{r3, pc}
 416              	.LVL52:
 417              	.L31:
 418              		.loc 1 235 0 discriminator 1
 419 000a 40F20000 		movw	r0, #:lower16:.LC0
 420              	.LVL53:
 421 000e 40F20002 		movw	r2, #:lower16:.LANCHOR4
 422 0012 40F20003 		movw	r3, #:lower16:.LC4
 423 0016 C0F20000 		movt	r0, #:upper16:.LC0
 424 001a C0F20002 		movt	r2, #:upper16:.LANCHOR4
 425 001e C0F20003 		movt	r3, #:upper16:.LC4
 426 0022 EB21     		movs	r1, #235
 427 0024 FFF7FEFF 		bl	__assert_func
 428              	.LVL54:
 429              		.cfi_endproc
 430              	.LFE41:
 431              		.size	TWI_ReadByte, .-TWI_ReadByte
 432 0028 AFF30080 		.section	.text.TWI_WriteByte,"ax",%progbits
 432      AFF30080 
 433              		.align	2
 434              		.p2align 4,,15
 435              		.global	TWI_WriteByte
 436              		.thumb
 437              		.thumb_func
 438              		.type	TWI_WriteByte, %function
 439              	TWI_WriteByte:
 440              	.LFB42:
 441              		.loc 1 248 0
 442              		.cfi_startproc
 443              		@ args = 0, pretend = 0, frame = 0
 444              		@ frame_needed = 0, uses_anonymous_args = 0
 445              	.LVL55:
 446 0000 08B5     		push	{r3, lr}
ARM GAS  /tmp/ccleMCWB.s 			page 9


 447              		.cfi_def_cfa_offset 8
 448              		.cfi_offset 3, -8
 449              		.cfi_offset 14, -4
 450              		.loc 1 249 0
 451 0002 08B1     		cbz	r0, .L34
 452              		.loc 1 251 0
 453 0004 4163     		str	r1, [r0, #52]
 454 0006 08BD     		pop	{r3, pc}
 455              	.L34:
 456              		.loc 1 249 0 discriminator 1
 457 0008 40F20000 		movw	r0, #:lower16:.LC0
 458              	.LVL56:
 459 000c 40F20002 		movw	r2, #:lower16:.LANCHOR5
 460 0010 40F20003 		movw	r3, #:lower16:.LC4
 461 0014 C0F20000 		movt	r0, #:upper16:.LC0
 462 0018 C0F20002 		movt	r2, #:upper16:.LANCHOR5
 463 001c C0F20003 		movt	r3, #:upper16:.LC4
 464 0020 F921     		movs	r1, #249
 465              	.LVL57:
 466 0022 FFF7FEFF 		bl	__assert_func
 467              	.LVL58:
 468              		.cfi_endproc
 469              	.LFE42:
 470              		.size	TWI_WriteByte, .-TWI_WriteByte
 471 0026 00BFAFF3 		.section	.text.TWI_StartWrite,"ax",%progbits
 471      0080AFF3 
 471      0080
 472              		.align	2
 473              		.p2align 4,,15
 474              		.global	TWI_StartWrite
 475              		.thumb
 476              		.thumb_func
 477              		.type	TWI_StartWrite, %function
 478              	TWI_StartWrite:
 479              	.LFB43:
 480              		.loc 1 268 0
 481              		.cfi_startproc
 482              		@ args = 0, pretend = 0, frame = 0
 483              		@ frame_needed = 0, uses_anonymous_args = 0
 484              	.LVL59:
 485 0000 10B5     		push	{r4, lr}
 486              		.cfi_def_cfa_offset 8
 487              		.cfi_offset 4, -8
 488              		.cfi_offset 14, -4
 489              		.loc 1 269 0
 490 0002 70B1     		cbz	r0, .L40
 491              		.loc 1 270 0
 492 0004 0C06     		lsls	r4, r1, #24
 493 0006 3CD4     		bmi	.L41
 494              		.loc 1 271 0
 495 0008 12F07F44 		ands	r4, r2, #-16777216
 496 000c 29D1     		bne	.L42
 497              		.loc 1 272 0
 498 000e 032B     		cmp	r3, #3
 499 0010 17D8     		bhi	.L43
 500              		.loc 1 276 0
 501 0012 1B02     		lsls	r3, r3, #8
ARM GAS  /tmp/ccleMCWB.s 			page 10


 502              	.LVL60:
 503 0014 43EA0141 		orr	r1, r3, r1, lsl #16
 504              	.LVL61:
 505              		.loc 1 275 0
 506 0018 4460     		str	r4, [r0, #4]
 507              		.loc 1 276 0
 508 001a 4160     		str	r1, [r0, #4]
 509              		.loc 1 279 0
 510 001c C460     		str	r4, [r0, #12]
 511              		.loc 1 280 0
 512 001e C260     		str	r2, [r0, #12]
 513 0020 10BD     		pop	{r4, pc}
 514              	.LVL62:
 515              	.L40:
 516              		.loc 1 269 0 discriminator 1
 517 0022 40F20000 		movw	r0, #:lower16:.LC0
 518              	.LVL63:
 519 0026 40F20002 		movw	r2, #:lower16:.LANCHOR6
 520              	.LVL64:
 521 002a 40F20003 		movw	r3, #:lower16:.LC4
 522              	.LVL65:
 523 002e C0F20000 		movt	r0, #:upper16:.LC0
 524 0032 C0F20002 		movt	r2, #:upper16:.LANCHOR6
 525 0036 C0F20003 		movt	r3, #:upper16:.LC4
 526 003a 40F20D11 		movw	r1, #269
 527              	.LVL66:
 528 003e FFF7FEFF 		bl	__assert_func
 529              	.LVL67:
 530              	.L43:
 531              		.loc 1 272 0 discriminator 1
 532 0042 40F20000 		movw	r0, #:lower16:.LC0
 533              	.LVL68:
 534 0046 40F20002 		movw	r2, #:lower16:.LANCHOR6
 535              	.LVL69:
 536 004a 40F20003 		movw	r3, #:lower16:.LC7
 537              	.LVL70:
 538 004e C0F20000 		movt	r0, #:upper16:.LC0
 539 0052 C0F20002 		movt	r2, #:upper16:.LANCHOR6
 540 0056 C0F20003 		movt	r3, #:upper16:.LC7
 541 005a 4FF48871 		mov	r1, #272
 542              	.LVL71:
 543 005e FFF7FEFF 		bl	__assert_func
 544              	.LVL72:
 545              	.L42:
 546              		.loc 1 271 0 discriminator 1
 547 0062 40F20000 		movw	r0, #:lower16:.LC0
 548              	.LVL73:
 549 0066 40F20002 		movw	r2, #:lower16:.LANCHOR6
 550              	.LVL74:
 551 006a 40F20003 		movw	r3, #:lower16:.LC6
 552              	.LVL75:
 553 006e C0F20000 		movt	r0, #:upper16:.LC0
 554 0072 C0F20002 		movt	r2, #:upper16:.LANCHOR6
 555 0076 C0F20003 		movt	r3, #:upper16:.LC6
 556 007a 40F20F11 		movw	r1, #271
 557              	.LVL76:
 558 007e FFF7FEFF 		bl	__assert_func
ARM GAS  /tmp/ccleMCWB.s 			page 11


 559              	.LVL77:
 560              	.L41:
 561              		.loc 1 270 0 discriminator 1
 562 0082 40F20000 		movw	r0, #:lower16:.LC0
 563              	.LVL78:
 564 0086 40F20002 		movw	r2, #:lower16:.LANCHOR6
 565              	.LVL79:
 566 008a 40F20003 		movw	r3, #:lower16:.LC5
 567              	.LVL80:
 568 008e C0F20000 		movt	r0, #:upper16:.LC0
 569 0092 C0F20002 		movt	r2, #:upper16:.LANCHOR6
 570 0096 C0F20003 		movt	r3, #:upper16:.LC5
 571 009a 4FF48771 		mov	r1, #270
 572              	.LVL81:
 573 009e FFF7FEFF 		bl	__assert_func
 574              	.LVL82:
 575              		.cfi_endproc
 576              	.LFE43:
 577              		.size	TWI_StartWrite, .-TWI_StartWrite
 578 00a2 00BFAFF3 		.section	.text.TWI_ByteReceived,"ax",%progbits
 578      0080AFF3 
 578      0080AFF3 
 578      0080
 579              		.align	2
 580              		.p2align 4,,15
 581              		.global	TWI_ByteReceived
 582              		.thumb
 583              		.thumb_func
 584              		.type	TWI_ByteReceived, %function
 585              	TWI_ByteReceived:
 586              	.LFB44:
 587              		.loc 1 291 0
 588              		.cfi_startproc
 589              		@ args = 0, pretend = 0, frame = 0
 590              		@ frame_needed = 0, uses_anonymous_args = 0
 591              		@ link register save eliminated.
 592              	.LVL83:
 593              		.loc 1 292 0
 594 0000 006A     		ldr	r0, [r0, #32]
 595              	.LVL84:
 596              		.loc 1 293 0
 597 0002 C0F34000 		ubfx	r0, r0, #1, #1
 598 0006 7047     		bx	lr
 599              		.cfi_endproc
 600              	.LFE44:
 601              		.size	TWI_ByteReceived, .-TWI_ByteReceived
 602 0008 AFF30080 		.section	.text.TWI_ByteSent,"ax",%progbits
 602      AFF30080 
 603              		.align	2
 604              		.p2align 4,,15
 605              		.global	TWI_ByteSent
 606              		.thumb
 607              		.thumb_func
 608              		.type	TWI_ByteSent, %function
 609              	TWI_ByteSent:
 610              	.LFB45:
 611              		.loc 1 302 0
ARM GAS  /tmp/ccleMCWB.s 			page 12


 612              		.cfi_startproc
 613              		@ args = 0, pretend = 0, frame = 0
 614              		@ frame_needed = 0, uses_anonymous_args = 0
 615              		@ link register save eliminated.
 616              	.LVL85:
 617              		.loc 1 303 0
 618 0000 006A     		ldr	r0, [r0, #32]
 619              	.LVL86:
 620              		.loc 1 304 0
 621 0002 C0F38000 		ubfx	r0, r0, #2, #1
 622 0006 7047     		bx	lr
 623              		.cfi_endproc
 624              	.LFE45:
 625              		.size	TWI_ByteSent, .-TWI_ByteSent
 626 0008 AFF30080 		.section	.text.TWI_TransferComplete,"ax",%progbits
 626      AFF30080 
 627              		.align	2
 628              		.p2align 4,,15
 629              		.global	TWI_TransferComplete
 630              		.thumb
 631              		.thumb_func
 632              		.type	TWI_TransferComplete, %function
 633              	TWI_TransferComplete:
 634              	.LFB46:
 635              		.loc 1 313 0
 636              		.cfi_startproc
 637              		@ args = 0, pretend = 0, frame = 0
 638              		@ frame_needed = 0, uses_anonymous_args = 0
 639              		@ link register save eliminated.
 640              	.LVL87:
 641              		.loc 1 314 0
 642 0000 006A     		ldr	r0, [r0, #32]
 643              	.LVL88:
 644              		.loc 1 315 0
 645 0002 00F00100 		and	r0, r0, #1
 646 0006 7047     		bx	lr
 647              		.cfi_endproc
 648              	.LFE46:
 649              		.size	TWI_TransferComplete, .-TWI_TransferComplete
 650 0008 AFF30080 		.section	.text.TWI_PDCTransferComplete,"ax",%progbits
 650      AFF30080 
 651              		.align	2
 652              		.p2align 4,,15
 653              		.global	TWI_PDCTransferComplete
 654              		.thumb
 655              		.thumb_func
 656              		.type	TWI_PDCTransferComplete, %function
 657              	TWI_PDCTransferComplete:
 658              	.LFB47:
 659              		.loc 1 324 0
 660              		.cfi_startproc
 661              		@ args = 0, pretend = 0, frame = 0
 662              		@ frame_needed = 0, uses_anonymous_args = 0
 663              		@ link register save eliminated.
 664              	.LVL89:
 665              		.loc 1 325 0
 666 0000 006A     		ldr	r0, [r0, #32]
ARM GAS  /tmp/ccleMCWB.s 			page 13


 667              	.LVL90:
 668              		.loc 1 326 0
 669 0002 C0F3C030 		ubfx	r0, r0, #15, #1
 670 0006 7047     		bx	lr
 671              		.cfi_endproc
 672              	.LFE47:
 673              		.size	TWI_PDCTransferComplete, .-TWI_PDCTransferComplete
 674 0008 AFF30080 		.section	.text.TWI_PDCReceiveComplete,"ax",%progbits
 674      AFF30080 
 675              		.align	2
 676              		.p2align 4,,15
 677              		.global	TWI_PDCReceiveComplete
 678              		.thumb
 679              		.thumb_func
 680              		.type	TWI_PDCReceiveComplete, %function
 681              	TWI_PDCReceiveComplete:
 682              	.LFB48:
 683              		.loc 1 335 0
 684              		.cfi_startproc
 685              		@ args = 0, pretend = 0, frame = 0
 686              		@ frame_needed = 0, uses_anonymous_args = 0
 687              		@ link register save eliminated.
 688              	.LVL91:
 689              		.loc 1 336 0
 690 0000 006A     		ldr	r0, [r0, #32]
 691              	.LVL92:
 692              		.loc 1 337 0
 693 0002 C0F38030 		ubfx	r0, r0, #14, #1
 694 0006 7047     		bx	lr
 695              		.cfi_endproc
 696              	.LFE48:
 697              		.size	TWI_PDCReceiveComplete, .-TWI_PDCReceiveComplete
 698 0008 AFF30080 		.section	.text.TWI_EnableIt,"ax",%progbits
 698      AFF30080 
 699              		.align	2
 700              		.p2align 4,,15
 701              		.global	TWI_EnableIt
 702              		.thumb
 703              		.thumb_func
 704              		.type	TWI_EnableIt, %function
 705              	TWI_EnableIt:
 706              	.LFB49:
 707              		.loc 1 345 0
 708              		.cfi_startproc
 709              		@ args = 0, pretend = 0, frame = 0
 710              		@ frame_needed = 0, uses_anonymous_args = 0
 711              	.LVL93:
 712 0000 08B5     		push	{r3, lr}
 713              		.cfi_def_cfa_offset 8
 714              		.cfi_offset 3, -8
 715              		.cfi_offset 14, -4
 716              		.loc 1 346 0
 717 0002 30B1     		cbz	r0, .L52
 718              		.loc 1 347 0
 719 0004 21F47763 		bic	r3, r1, #3952
 720 0008 23F00703 		bic	r3, r3, #7
 721 000c 8BB9     		cbnz	r3, .L53
ARM GAS  /tmp/ccleMCWB.s 			page 14


 722              		.loc 1 349 0
 723 000e 4162     		str	r1, [r0, #36]
 724 0010 08BD     		pop	{r3, pc}
 725              	.L52:
 726              		.loc 1 346 0 discriminator 1
 727 0012 40F20000 		movw	r0, #:lower16:.LC0
 728              	.LVL94:
 729 0016 40F20002 		movw	r2, #:lower16:.LANCHOR7
 730 001a 40F20003 		movw	r3, #:lower16:.LC4
 731 001e C0F20000 		movt	r0, #:upper16:.LC0
 732 0022 C0F20002 		movt	r2, #:upper16:.LANCHOR7
 733 0026 C0F20003 		movt	r3, #:upper16:.LC4
 734 002a 4FF4AD71 		mov	r1, #346
 735              	.LVL95:
 736 002e FFF7FEFF 		bl	__assert_func
 737              	.LVL96:
 738              	.L53:
 739              		.loc 1 347 0 discriminator 1
 740 0032 40F20000 		movw	r0, #:lower16:.LC0
 741              	.LVL97:
 742 0036 40F20002 		movw	r2, #:lower16:.LANCHOR7
 743 003a 40F20003 		movw	r3, #:lower16:.LC8
 744 003e C0F20000 		movt	r0, #:upper16:.LC0
 745 0042 C0F20002 		movt	r2, #:upper16:.LANCHOR7
 746 0046 C0F20003 		movt	r3, #:upper16:.LC8
 747 004a 40F25B11 		movw	r1, #347
 748              	.LVL98:
 749 004e FFF7FEFF 		bl	__assert_func
 750              	.LVL99:
 751              		.cfi_endproc
 752              	.LFE49:
 753              		.size	TWI_EnableIt, .-TWI_EnableIt
 754 0052 00BFAFF3 		.section	.text.TWI_DisableIt,"ax",%progbits
 754      0080AFF3 
 754      0080AFF3 
 754      0080
 755              		.align	2
 756              		.p2align 4,,15
 757              		.global	TWI_DisableIt
 758              		.thumb
 759              		.thumb_func
 760              		.type	TWI_DisableIt, %function
 761              	TWI_DisableIt:
 762              	.LFB50:
 763              		.loc 1 358 0
 764              		.cfi_startproc
 765              		@ args = 0, pretend = 0, frame = 0
 766              		@ frame_needed = 0, uses_anonymous_args = 0
 767              	.LVL100:
 768 0000 08B5     		push	{r3, lr}
 769              		.cfi_def_cfa_offset 8
 770              		.cfi_offset 3, -8
 771              		.cfi_offset 14, -4
 772              		.loc 1 359 0
 773 0002 30B1     		cbz	r0, .L57
 774              		.loc 1 360 0
 775 0004 21F47763 		bic	r3, r1, #3952
ARM GAS  /tmp/ccleMCWB.s 			page 15


 776 0008 23F00703 		bic	r3, r3, #7
 777 000c 8BB9     		cbnz	r3, .L58
 778              		.loc 1 362 0
 779 000e 8162     		str	r1, [r0, #40]
 780 0010 08BD     		pop	{r3, pc}
 781              	.L57:
 782              		.loc 1 359 0 discriminator 1
 783 0012 40F20000 		movw	r0, #:lower16:.LC0
 784              	.LVL101:
 785 0016 40F20002 		movw	r2, #:lower16:.LANCHOR8
 786 001a 40F20003 		movw	r3, #:lower16:.LC4
 787 001e C0F20000 		movt	r0, #:upper16:.LC0
 788 0022 C0F20002 		movt	r2, #:upper16:.LANCHOR8
 789 0026 C0F20003 		movt	r3, #:upper16:.LC4
 790 002a 40F26711 		movw	r1, #359
 791              	.LVL102:
 792 002e FFF7FEFF 		bl	__assert_func
 793              	.LVL103:
 794              	.L58:
 795              		.loc 1 360 0 discriminator 1
 796 0032 40F20000 		movw	r0, #:lower16:.LC0
 797              	.LVL104:
 798 0036 40F20002 		movw	r2, #:lower16:.LANCHOR8
 799 003a 40F20003 		movw	r3, #:lower16:.LC8
 800 003e C0F20000 		movt	r0, #:upper16:.LC0
 801 0042 C0F20002 		movt	r2, #:upper16:.LANCHOR8
 802 0046 C0F20003 		movt	r3, #:upper16:.LC8
 803 004a 4FF4B471 		mov	r1, #360
 804              	.LVL105:
 805 004e FFF7FEFF 		bl	__assert_func
 806              	.LVL106:
 807              		.cfi_endproc
 808              	.LFE50:
 809              		.size	TWI_DisableIt, .-TWI_DisableIt
 810 0052 00BFAFF3 		.section	.text.TWI_GetStatus,"ax",%progbits
 810      0080AFF3 
 810      0080AFF3 
 810      0080
 811              		.align	2
 812              		.p2align 4,,15
 813              		.global	TWI_GetStatus
 814              		.thumb
 815              		.thumb_func
 816              		.type	TWI_GetStatus, %function
 817              	TWI_GetStatus:
 818              	.LFB51:
 819              		.loc 1 373 0
 820              		.cfi_startproc
 821              		@ args = 0, pretend = 0, frame = 0
 822              		@ frame_needed = 0, uses_anonymous_args = 0
 823              	.LVL107:
 824 0000 08B5     		push	{r3, lr}
 825              		.cfi_def_cfa_offset 8
 826              		.cfi_offset 3, -8
 827              		.cfi_offset 14, -4
 828              		.loc 1 374 0
 829 0002 08B1     		cbz	r0, .L61
ARM GAS  /tmp/ccleMCWB.s 			page 16


 830              		.loc 1 376 0
 831 0004 006A     		ldr	r0, [r0, #32]
 832              	.LVL108:
 833              		.loc 1 377 0
 834 0006 08BD     		pop	{r3, pc}
 835              	.LVL109:
 836              	.L61:
 837              		.loc 1 374 0 discriminator 1
 838 0008 40F20000 		movw	r0, #:lower16:.LC0
 839              	.LVL110:
 840 000c 40F20002 		movw	r2, #:lower16:.LANCHOR9
 841 0010 40F20003 		movw	r3, #:lower16:.LC4
 842 0014 C0F20000 		movt	r0, #:upper16:.LC0
 843 0018 C0F20002 		movt	r2, #:upper16:.LANCHOR9
 844 001c C0F20003 		movt	r3, #:upper16:.LC4
 845 0020 4FF4BB71 		mov	r1, #374
 846 0024 FFF7FEFF 		bl	__assert_func
 847              	.LVL111:
 848              		.cfi_endproc
 849              	.LFE51:
 850              		.size	TWI_GetStatus, .-TWI_GetStatus
 851 0028 AFF30080 		.section	.text.TWI_GetMaskedStatus,"ax",%progbits
 851      AFF30080 
 852              		.align	2
 853              		.p2align 4,,15
 854              		.global	TWI_GetMaskedStatus
 855              		.thumb
 856              		.thumb_func
 857              		.type	TWI_GetMaskedStatus, %function
 858              	TWI_GetMaskedStatus:
 859              	.LFB52:
 860              		.loc 1 387 0
 861              		.cfi_startproc
 862              		@ args = 0, pretend = 0, frame = 0
 863              		@ frame_needed = 0, uses_anonymous_args = 0
 864              	.LVL112:
 865 0000 08B5     		push	{r3, lr}
 866              		.cfi_def_cfa_offset 8
 867              		.cfi_offset 3, -8
 868              		.cfi_offset 14, -4
 869              		.loc 1 390 0
 870 0002 18B1     		cbz	r0, .L64
 871              		.loc 1 392 0
 872 0004 036A     		ldr	r3, [r0, #32]
 873              	.LVL113:
 874              		.loc 1 393 0
 875 0006 C06A     		ldr	r0, [r0, #44]
 876              	.LVL114:
 877              		.loc 1 396 0
 878 0008 1840     		ands	r0, r0, r3
 879              	.LVL115:
 880 000a 08BD     		pop	{r3, pc}
 881              	.LVL116:
 882              	.L64:
 883              		.loc 1 390 0 discriminator 1
 884 000c 40F20000 		movw	r0, #:lower16:.LC0
 885              	.LVL117:
ARM GAS  /tmp/ccleMCWB.s 			page 17


 886 0010 40F20002 		movw	r2, #:lower16:.LANCHOR10
 887 0014 40F20003 		movw	r3, #:lower16:.LC4
 888 0018 C0F20000 		movt	r0, #:upper16:.LC0
 889 001c C0F20002 		movt	r2, #:upper16:.LANCHOR10
 890 0020 C0F20003 		movt	r3, #:upper16:.LC4
 891 0024 4FF4C371 		mov	r1, #390
 892 0028 FFF7FEFF 		bl	__assert_func
 893              	.LVL118:
 894              		.cfi_endproc
 895              	.LFE52:
 896              		.size	TWI_GetMaskedStatus, .-TWI_GetMaskedStatus
 897 002c AFF30080 		.section	.text.TWI_SendSTOPCondition,"ax",%progbits
 898              		.align	2
 899              		.p2align 4,,15
 900              		.global	TWI_SendSTOPCondition
 901              		.thumb
 902              		.thumb_func
 903              		.type	TWI_SendSTOPCondition, %function
 904              	TWI_SendSTOPCondition:
 905              	.LFB53:
 906              		.loc 1 404 0
 907              		.cfi_startproc
 908              		@ args = 0, pretend = 0, frame = 0
 909              		@ frame_needed = 0, uses_anonymous_args = 0
 910              	.LVL119:
 911 0000 08B5     		push	{r3, lr}
 912              		.cfi_def_cfa_offset 8
 913              		.cfi_offset 3, -8
 914              		.cfi_offset 14, -4
 915              		.loc 1 405 0
 916 0002 20B1     		cbz	r0, .L67
 917              		.loc 1 407 0
 918 0004 0368     		ldr	r3, [r0]
 919 0006 43F00203 		orr	r3, r3, #2
 920 000a 0360     		str	r3, [r0]
 921 000c 08BD     		pop	{r3, pc}
 922              	.L67:
 923              		.loc 1 405 0 discriminator 1
 924 000e 40F20000 		movw	r0, #:lower16:.LC0
 925              	.LVL120:
 926 0012 40F20002 		movw	r2, #:lower16:.LANCHOR11
 927 0016 40F20003 		movw	r3, #:lower16:.LC4
 928 001a C0F20000 		movt	r0, #:upper16:.LC0
 929 001e C0F20002 		movt	r2, #:upper16:.LANCHOR11
 930 0022 C0F20003 		movt	r3, #:upper16:.LC4
 931 0026 40F29511 		movw	r1, #405
 932 002a FFF7FEFF 		bl	__assert_func
 933              	.LVL121:
 934              		.cfi_endproc
 935              	.LFE53:
 936              		.size	TWI_SendSTOPCondition, .-TWI_SendSTOPCondition
 937 002e 00BF     		.section	.text.TWI_PDC_write,"ax",%progbits
 938              		.align	2
 939              		.p2align 4,,15
 940              		.global	TWI_PDC_write
 941              		.thumb
 942              		.thumb_func
ARM GAS  /tmp/ccleMCWB.s 			page 18


 943              		.type	TWI_PDC_write, %function
 944              	TWI_PDC_write:
 945              	.LFB54:
 946              		.loc 1 417 0
 947              		.cfi_startproc
 948              		@ args = 0, pretend = 0, frame = 0
 949              		@ frame_needed = 0, uses_anonymous_args = 0
 950              		@ link register save eliminated.
 951              	.LVL122:
 952 0000 0346     		mov	r3, r0
 953              		.loc 1 419 0
 954 0002 D0F80C01 		ldr	r0, [r0, #268]
 955              	.LVL123:
 956              		.loc 1 417 0
 957 0006 10B4     		push	{r4}
 958              		.cfi_def_cfa_offset 4
 959              		.cfi_offset 4, -4
 960              		.loc 1 419 0
 961 0008 10B9     		cbnz	r0, .L69
 962              		.loc 1 419 0 is_stmt 0 discriminator 1
 963 000a D3F81C01 		ldr	r0, [r3, #284]
 964 000e 70B1     		cbz	r0, .L72
 965              	.L69:
 966              		.loc 1 430 0 is_stmt 1
 967 0010 D3F81C01 		ldr	r0, [r3, #284]
 968 0014 38B9     		cbnz	r0, .L71
 969              		.loc 1 432 0
 970 0016 C3F81811 		str	r1, [r3, #280]
 971              		.loc 1 435 0
 972 001a 0120     		movs	r0, #1
 973              		.loc 1 433 0
 974 001c C3F81C21 		str	r2, [r3, #284]
 975              		.loc 1 442 0
 976 0020 5DF8044B 		ldr	r4, [sp], #4
 977 0024 7047     		bx	lr
 978              	.L71:
 979              		.loc 1 439 0
 980 0026 0020     		movs	r0, #0
 981              		.loc 1 442 0
 982 0028 5DF8044B 		ldr	r4, [sp], #4
 983 002c 7047     		bx	lr
 984              	.L72:
 985              		.loc 1 423 0
 986 002e 4FF48074 		mov	r4, #256
 987              		.loc 1 421 0
 988 0032 C3F80811 		str	r1, [r3, #264]
 989              		.loc 1 425 0
 990 0036 0120     		movs	r0, #1
 991              		.loc 1 422 0
 992 0038 C3F80C21 		str	r2, [r3, #268]
 993              		.loc 1 423 0
 994 003c C3F82041 		str	r4, [r3, #288]
 995              		.loc 1 442 0
 996 0040 5DF8044B 		ldr	r4, [sp], #4
 997 0044 7047     		bx	lr
 998              		.cfi_endproc
 999              	.LFE54:
ARM GAS  /tmp/ccleMCWB.s 			page 19


 1000              		.size	TWI_PDC_write, .-TWI_PDC_write
 1001 0046 00BFAFF3 		.section	.text.TWI_PDC_read,"ax",%progbits
 1001      0080AFF3 
 1001      0080
 1002              		.align	2
 1003              		.p2align 4,,15
 1004              		.global	TWI_PDC_read
 1005              		.thumb
 1006              		.thumb_func
 1007              		.type	TWI_PDC_read, %function
 1008              	TWI_PDC_read:
 1009              	.LFB55:
 1010              		.loc 1 452 0
 1011              		.cfi_startproc
 1012              		@ args = 0, pretend = 0, frame = 0
 1013              		@ frame_needed = 0, uses_anonymous_args = 0
 1014              		@ link register save eliminated.
 1015              	.LVL124:
 1016 0000 0346     		mov	r3, r0
 1017              		.loc 1 454 0
 1018 0002 D0F80401 		ldr	r0, [r0, #260]
 1019              	.LVL125:
 1020              		.loc 1 452 0
 1021 0006 10B4     		push	{r4}
 1022              		.cfi_def_cfa_offset 4
 1023              		.cfi_offset 4, -4
 1024              		.loc 1 454 0
 1025 0008 10B9     		cbnz	r0, .L74
 1026              		.loc 1 454 0 is_stmt 0 discriminator 1
 1027 000a D3F81401 		ldr	r0, [r3, #276]
 1028 000e 70B1     		cbz	r0, .L77
 1029              	.L74:
 1030              		.loc 1 465 0 is_stmt 1
 1031 0010 D3F81401 		ldr	r0, [r3, #276]
 1032 0014 38B9     		cbnz	r0, .L76
 1033              		.loc 1 467 0
 1034 0016 C3F81011 		str	r1, [r3, #272]
 1035              		.loc 1 470 0
 1036 001a 0120     		movs	r0, #1
 1037              		.loc 1 468 0
 1038 001c C3F81421 		str	r2, [r3, #276]
 1039              		.loc 1 477 0
 1040 0020 5DF8044B 		ldr	r4, [sp], #4
 1041 0024 7047     		bx	lr
 1042              	.L76:
 1043              		.loc 1 474 0
 1044 0026 0020     		movs	r0, #0
 1045              		.loc 1 477 0
 1046 0028 5DF8044B 		ldr	r4, [sp], #4
 1047 002c 7047     		bx	lr
 1048              	.L77:
 1049              		.loc 1 458 0
 1050 002e 0124     		movs	r4, #1
 1051              		.loc 1 456 0
 1052 0030 C3F80011 		str	r1, [r3, #256]
 1053              		.loc 1 460 0
 1054 0034 2046     		mov	r0, r4
ARM GAS  /tmp/ccleMCWB.s 			page 20


 1055              		.loc 1 457 0
 1056 0036 C3F80421 		str	r2, [r3, #260]
 1057              		.loc 1 458 0
 1058 003a C3F82041 		str	r4, [r3, #288]
 1059              		.loc 1 477 0
 1060 003e 5DF8044B 		ldr	r4, [sp], #4
 1061 0042 7047     		bx	lr
 1062              		.cfi_endproc
 1063              	.LFE55:
 1064              		.size	TWI_PDC_read, .-TWI_PDC_read
 1065 0044 AFF30080 		.section	.text.TWI_PDC_Disable,"ax",%progbits
 1065      AFF30080 
 1065      AFF30080 
 1066              		.align	2
 1067              		.p2align 4,,15
 1068              		.global	TWI_PDC_Disable
 1069              		.thumb
 1070              		.thumb_func
 1071              		.type	TWI_PDC_Disable, %function
 1072              	TWI_PDC_Disable:
 1073              	.LFB56:
 1074              		.loc 1 485 0
 1075              		.cfi_startproc
 1076              		@ args = 0, pretend = 0, frame = 0
 1077              		@ frame_needed = 0, uses_anonymous_args = 0
 1078              	.LVL126:
 1079 0000 08B5     		push	{r3, lr}
 1080              		.cfi_def_cfa_offset 8
 1081              		.cfi_offset 3, -8
 1082              		.cfi_offset 14, -4
 1083              		.loc 1 486 0
 1084 0002 38B1     		cbz	r0, .L80
 1085              		.loc 1 487 0
 1086 0004 0222     		movs	r2, #2
 1087              		.loc 1 488 0
 1088 0006 4FF40073 		mov	r3, #512
 1089              		.loc 1 487 0
 1090 000a C0F82021 		str	r2, [r0, #288]
 1091              		.loc 1 488 0
 1092 000e C0F82031 		str	r3, [r0, #288]
 1093 0012 08BD     		pop	{r3, pc}
 1094              	.L80:
 1095              		.loc 1 486 0 discriminator 1
 1096 0014 40F20000 		movw	r0, #:lower16:.LC0
 1097              	.LVL127:
 1098 0018 40F20002 		movw	r2, #:lower16:.LANCHOR12
 1099 001c 40F20003 		movw	r3, #:lower16:.LC4
 1100 0020 C0F20000 		movt	r0, #:upper16:.LC0
 1101 0024 C0F20002 		movt	r2, #:upper16:.LANCHOR12
 1102 0028 C0F20003 		movt	r3, #:upper16:.LC4
 1103 002c 4FF4F371 		mov	r1, #486
 1104 0030 FFF7FEFF 		bl	__assert_func
 1105              	.LVL128:
 1106              		.cfi_endproc
 1107              	.LFE56:
 1108              		.size	TWI_PDC_Disable, .-TWI_PDC_Disable
 1109 0034 AFF30080 		.section	.rodata.__func__.5910,"a",%progbits
ARM GAS  /tmp/ccleMCWB.s 			page 21


 1109      AFF30080 
 1109      AFF30080 
 1110              		.align	2
 1111              		.set	.LANCHOR8,. + 0
 1112              		.type	__func__.5910, %object
 1113              		.size	__func__.5910, 14
 1114              	__func__.5910:
 1115 0000 5457495F 		.ascii	"TWI_DisableIt\000"
 1115      44697361 
 1115      626C6549 
 1115      7400
 1116 000e 0000     		.section	.rodata.__func__.5878,"a",%progbits
 1117              		.align	2
 1118              		.set	.LANCHOR5,. + 0
 1119              		.type	__func__.5878, %object
 1120              		.size	__func__.5878, 14
 1121              	__func__.5878:
 1122 0000 5457495F 		.ascii	"TWI_WriteByte\000"
 1122      57726974 
 1122      65427974 
 1122      6500
 1123 000e 0000     		.section	.rodata.__func__.5885,"a",%progbits
 1124              		.align	2
 1125              		.set	.LANCHOR6,. + 0
 1126              		.type	__func__.5885, %object
 1127              		.size	__func__.5885, 15
 1128              	__func__.5885:
 1129 0000 5457495F 		.ascii	"TWI_StartWrite\000"
 1129      53746172 
 1129      74577269 
 1129      746500
 1130 000f 00       		.section	.rodata.__func__.5937,"a",%progbits
 1131              		.align	2
 1132              		.set	.LANCHOR12,. + 0
 1133              		.type	__func__.5937, %object
 1134              		.size	__func__.5937, 16
 1135              	__func__.5937:
 1136 0000 5457495F 		.ascii	"TWI_PDC_Disable\000"
 1136      5044435F 
 1136      44697361 
 1136      626C6500 
 1137              		.section	.rodata.__func__.5843,"a",%progbits
 1138              		.align	2
 1139              		.set	.LANCHOR0,. + 0
 1140              		.type	__func__.5843, %object
 1141              		.size	__func__.5843, 20
 1142              	__func__.5843:
 1143 0000 5457495F 		.ascii	"TWI_ConfigureMaster\000"
 1143      436F6E66 
 1143      69677572 
 1143      654D6173 
 1143      74657200 
 1144              		.section	.rodata.str1.4,"aMS",%progbits,1
 1145              		.align	2
 1146              	.LC0:
 1147 0000 2E2F6174 		.ascii	"./atmel_lib/atmel_twi.c\000"
 1147      6D656C5F 
ARM GAS  /tmp/ccleMCWB.s 			page 22


 1147      6C69622F 
 1147      61746D65 
 1147      6C5F7477 
 1148              	.LC1:
 1149 0018 70547769 		.ascii	"pTwi\000"
 1149      00
 1150 001d 000000   		.space	3
 1151              	.LC2:
 1152 0020 6477436B 		.ascii	"dwCkDiv < 8\000"
 1152      44697620 
 1152      3C203800 
 1153              	.LC3:
 1154 002c 28705477 		.ascii	"(pTwi->TWI_CR & TWI_CR_SVDIS)!= TWI_CR_SVDIS\000"
 1154      692D3E54 
 1154      57495F43 
 1154      52202620 
 1154      5457495F 
 1155 0059 000000   		.space	3
 1156              	.LC4:
 1157 005c 70547769 		.ascii	"pTwi != 0\000"
 1157      20213D20 
 1157      3000
 1158 0066 0000     		.space	2
 1159              	.LC5:
 1160 0068 28616464 		.ascii	"(address & 0x80) == 0\000"
 1160      72657373 
 1160      20262030 
 1160      78383029 
 1160      203D3D20 
 1161 007e 0000     		.space	2
 1162              	.LC6:
 1163 0080 28696164 		.ascii	"(iaddress & 0xFF000000) == 0\000"
 1163      64726573 
 1163      73202620 
 1163      30784646 
 1163      30303030 
 1164 009d 000000   		.space	3
 1165              	.LC7:
 1166 00a0 6973697A 		.ascii	"isize < 4\000"
 1166      65203C20 
 1166      3400
 1167 00aa 0000     		.space	2
 1168              	.LC8:
 1169 00ac 28736F75 		.ascii	"(sources & 0xFFFFF088) == 0\000"
 1169      72636573 
 1169      20262030 
 1169      78464646 
 1169      46463038 
 1170              		.section	.rodata.__func__.5919,"a",%progbits
 1171              		.align	2
 1172              		.set	.LANCHOR10,. + 0
 1173              		.type	__func__.5919, %object
 1174              		.size	__func__.5919, 20
 1175              	__func__.5919:
 1176 0000 5457495F 		.ascii	"TWI_GetMaskedStatus\000"
 1176      4765744D 
 1176      61736B65 
ARM GAS  /tmp/ccleMCWB.s 			page 23


 1176      64537461 
 1176      74757300 
 1177              		.section	.rodata.__func__.5905,"a",%progbits
 1178              		.align	2
 1179              		.set	.LANCHOR7,. + 0
 1180              		.type	__func__.5905, %object
 1181              		.size	__func__.5905, 13
 1182              	__func__.5905:
 1183 0000 5457495F 		.ascii	"TWI_EnableIt\000"
 1183      456E6162 
 1183      6C654974 
 1183      00
 1184 000d 000000   		.section	.rodata.__func__.5923,"a",%progbits
 1185              		.align	2
 1186              		.set	.LANCHOR11,. + 0
 1187              		.type	__func__.5923, %object
 1188              		.size	__func__.5923, 22
 1189              	__func__.5923:
 1190 0000 5457495F 		.ascii	"TWI_SendSTOPCondition\000"
 1190      53656E64 
 1190      53544F50 
 1190      436F6E64 
 1190      6974696F 
 1191 0016 0000     		.section	.rodata.__func__.5862,"a",%progbits
 1192              		.align	2
 1193              		.set	.LANCHOR2,. + 0
 1194              		.type	__func__.5862, %object
 1195              		.size	__func__.5862, 9
 1196              	__func__.5862:
 1197 0000 5457495F 		.ascii	"TWI_Stop\000"
 1197      53746F70 
 1197      00
 1198 0009 000000   		.section	.rodata.__func__.5858,"a",%progbits
 1199              		.align	2
 1200              		.set	.LANCHOR1,. + 0
 1201              		.type	__func__.5858, %object
 1202              		.size	__func__.5858, 19
 1203              	__func__.5858:
 1204 0000 5457495F 		.ascii	"TWI_ConfigureSlave\000"
 1204      436F6E66 
 1204      69677572 
 1204      65536C61 
 1204      766500
 1205 0013 00       		.section	.rodata.__func__.5914,"a",%progbits
 1206              		.align	2
 1207              		.set	.LANCHOR9,. + 0
 1208              		.type	__func__.5914, %object
 1209              		.size	__func__.5914, 14
 1210              	__func__.5914:
 1211 0000 5457495F 		.ascii	"TWI_GetStatus\000"
 1211      47657453 
 1211      74617475 
 1211      7300
 1212 000e 0000     		.section	.rodata.__func__.5873,"a",%progbits
 1213              		.align	2
 1214              		.set	.LANCHOR4,. + 0
 1215              		.type	__func__.5873, %object
ARM GAS  /tmp/ccleMCWB.s 			page 24


 1216              		.size	__func__.5873, 13
 1217              	__func__.5873:
 1218 0000 5457495F 		.ascii	"TWI_ReadByte\000"
 1218      52656164 
 1218      42797465 
 1218      00
 1219 000d 000000   		.section	.rodata.__func__.5869,"a",%progbits
 1220              		.align	2
 1221              		.set	.LANCHOR3,. + 0
 1222              		.type	__func__.5869, %object
 1223              		.size	__func__.5869, 14
 1224              	__func__.5869:
 1225 0000 5457495F 		.ascii	"TWI_StartRead\000"
 1225      53746172 
 1225      74526561 
 1225      6400
 1226 000e 0000     		.text
 1227              	.Letext0:
 1228              		.file 2 "/usr/include/newlib/machine/_default_types.h"
 1229              		.file 3 "/usr/include/newlib/stdint.h"
 1230              		.file 4 "./atmel_lib/include/SAM3N.h"
 1231              		.file 5 "../../os/hal/platforms/AT91SAM3/core_cm3.h"
 1232              		.file 6 "/usr/include/newlib/assert.h"
