ARM GAS  /tmp/ccDyfkg8.s 			page 1


   1              		.syntax unified
   2              		.cpu cortex-m3
   3              		.fpu softvfp
   4              		.eabi_attribute 20, 1
   5              		.eabi_attribute 21, 1
   6              		.eabi_attribute 23, 3
   7              		.eabi_attribute 24, 1
   8              		.eabi_attribute 25, 1
   9              		.eabi_attribute 26, 1
  10              		.eabi_attribute 30, 2
  11              		.eabi_attribute 34, 1
  12              		.eabi_attribute 18, 4
  13              		.thumb
  14              		.file	"chregistry.c"
  15              		.text
  16              	.Ltext0:
  17              		.cfi_sections	.debug_frame
  18              		.section	.text.chRegFirstThread,"ax",%progbits
  19              		.align	2
  20              		.p2align 4,,15
  21              		.global	chRegFirstThread
  22              		.thumb
  23              		.thumb_func
  24              		.type	chRegFirstThread, %function
  25              	chRegFirstThread:
  26              	.LFB7:
  27              		.file 1 "../../os/kernel/src/chregistry.c"
  28              		.loc 1 72 0
  29              		.cfi_startproc
  30              		@ args = 0, pretend = 0, frame = 0
  31              		@ frame_needed = 0, uses_anonymous_args = 0
  32              		@ link register save eliminated.
  33              	.LBB2:
  34              		.loc 1 75 0
  35 0000 2023     		movs	r3, #32
  36              	@ 75 "../../os/kernel/src/chregistry.c" 1
  37 0002 83F31188 		msr     BASEPRI, r3
  38              	@ 0 "" 2
  39              		.thumb
  40              	.LBE2:
  41              		.loc 1 76 0
  42 0006 40F20003 		movw	r3, #:lower16:rlist
  43 000a C0F20003 		movt	r3, #:upper16:rlist
  44 000e 1869     		ldr	r0, [r3, #16]
  45              	.LVL0:
  46              	.LBB3:
  47              		.loc 1 80 0
  48 0010 0023     		movs	r3, #0
  49              	.LBE3:
  50              		.loc 1 78 0
  51 0012 827F     		ldrb	r2, [r0, #30]	@ zero_extendqisi2
  52 0014 0132     		adds	r2, r2, #1
  53 0016 8277     		strb	r2, [r0, #30]
  54              	.LBB4:
  55              		.loc 1 80 0
  56              	@ 80 "../../os/kernel/src/chregistry.c" 1
  57 0018 83F31188 		msr     BASEPRI, r3
ARM GAS  /tmp/ccDyfkg8.s 			page 2


  58              	@ 0 "" 2
  59              		.thumb
  60              	.LBE4:
  61              		.loc 1 82 0
  62 001c 7047     		bx	lr
  63              		.cfi_endproc
  64              	.LFE7:
  65              		.size	chRegFirstThread, .-chRegFirstThread
  66 001e 00BF     		.section	.text.chRegNextThread,"ax",%progbits
  67              		.align	2
  68              		.p2align 4,,15
  69              		.global	chRegNextThread
  70              		.thumb
  71              		.thumb_func
  72              		.type	chRegNextThread, %function
  73              	chRegNextThread:
  74              	.LFB8:
  75              		.loc 1 95 0
  76              		.cfi_startproc
  77              		@ args = 0, pretend = 0, frame = 0
  78              		@ frame_needed = 0, uses_anonymous_args = 0
  79              	.LVL1:
  80 0000 10B5     		push	{r4, lr}
  81              		.cfi_def_cfa_offset 8
  82              		.cfi_offset 4, -8
  83              		.cfi_offset 14, -4
  84              	.LBB5:
  85              		.loc 1 98 0
  86 0002 2023     		movs	r3, #32
  87              	@ 98 "../../os/kernel/src/chregistry.c" 1
  88 0004 83F31188 		msr     BASEPRI, r3
  89              	@ 0 "" 2
  90              		.thumb
  91              	.LBE5:
  92              		.loc 1 100 0
  93 0008 40F20003 		movw	r3, #:lower16:rlist
  94              		.loc 1 99 0
  95 000c 0469     		ldr	r4, [r0, #16]
  96              	.LVL2:
  97              		.loc 1 100 0
  98 000e C0F20003 		movt	r3, #:upper16:rlist
  99 0012 9C42     		cmp	r4, r3
 100              		.loc 1 106 0
 101 0014 17BF     		itett	ne
 102 0016 A37F     		ldrbne	r3, [r4, #30]	@ zero_extendqisi2
 103              		.loc 1 101 0
 104 0018 0024     		moveq	r4, #0
 105              	.LVL3:
 106              		.loc 1 106 0
 107 001a 0133     		addne	r3, r3, #1
 108 001c A377     		strbne	r3, [r4, #30]
 109              	.LBB6:
 110              		.loc 1 109 0
 111 001e 0023     		movs	r3, #0
 112              	@ 109 "../../os/kernel/src/chregistry.c" 1
 113 0020 83F31188 		msr     BASEPRI, r3
 114              	@ 0 "" 2
ARM GAS  /tmp/ccDyfkg8.s 			page 3


 115              		.thumb
 116              	.LBE6:
 117              		.loc 1 111 0
 118 0024 FFF7FEFF 		bl	chThdRelease
 119              	.LVL4:
 120              		.loc 1 114 0
 121 0028 2046     		mov	r0, r4
 122 002a 10BD     		pop	{r4, pc}
 123              		.cfi_endproc
 124              	.LFE8:
 125              		.size	chRegNextThread, .-chRegNextThread
 126 002c AFF30080 		.text
 127              	.Letext0:
 128              		.file 2 "/usr/include/newlib/machine/_default_types.h"
 129              		.file 3 "/usr/include/newlib/stdint.h"
 130              		.file 4 "../../os/ports/GCC/ARMCMx/chtypes.h"
 131              		.file 5 "../../os/kernel/include/chlists.h"
 132              		.file 6 "../../os/kernel/include/chthreads.h"
 133              		.file 7 "../../os/ports/GCC/ARMCMx/chcore_v7m.h"
 134              		.file 8 "../../os/kernel/include/chschd.h"
 135              		.file 9 "../../os/kernel/include/chmtx.h"
 136              		.file 10 "../../os/kernel/include/chdynamic.h"
