ARM GAS  /tmp/ccfUjVTx.s 			page 1


   1              		.syntax unified
   2              		.cpu cortex-m3
   3              		.fpu softvfp
   4              		.eabi_attribute 20, 1
   5              		.eabi_attribute 21, 1
   6              		.eabi_attribute 23, 3
   7              		.eabi_attribute 24, 1
   8              		.eabi_attribute 25, 1
   9              		.eabi_attribute 26, 1
  10              		.eabi_attribute 30, 2
  11              		.eabi_attribute 34, 1
  12              		.eabi_attribute 18, 4
  13              		.thumb
  14              		.file	"crt0.c"
  15              		.text
  16              	.Ltext0:
  17              		.cfi_sections	.debug_frame
  18              		.section	.text.__early_init,"ax",%progbits
  19              		.align	2
  20              		.p2align 4,,15
  21              		.weak	__early_init
  22              		.thumb
  23              		.thumb_func
  24              		.type	__early_init, %function
  25              	__early_init:
  26              	.LFB7:
  27              		.file 1 "../../os/ports/GCC/ARMCMx/crt0.c"
  28              		.loc 1 209 0
  29              		.cfi_startproc
  30              		@ args = 0, pretend = 0, frame = 0
  31              		@ frame_needed = 0, uses_anonymous_args = 0
  32              		@ link register save eliminated.
  33 0000 7047     		bx	lr
  34              		.cfi_endproc
  35              	.LFE7:
  36              		.size	__early_init, .-__early_init
  37 0002 00BFAFF3 		.section	.text.__late_init,"ax",%progbits
  37      0080AFF3 
  37      0080AFF3 
  37      0080
  38              		.align	2
  39              		.p2align 4,,15
  40              		.weak	__late_init
  41              		.thumb
  42              		.thumb_func
  43              		.type	__late_init, %function
  44              	__late_init:
  45              	.LFB8:
  46              		.loc 1 221 0
  47              		.cfi_startproc
  48              		@ args = 0, pretend = 0, frame = 0
  49              		@ frame_needed = 0, uses_anonymous_args = 0
  50              		@ link register save eliminated.
  51 0000 7047     		bx	lr
  52              		.cfi_endproc
  53              	.LFE8:
  54              		.size	__late_init, .-__late_init
ARM GAS  /tmp/ccfUjVTx.s 			page 2


  55 0002 00BFAFF3 		.section	.text._default_exit,"ax",%progbits
  55      0080AFF3 
  55      0080AFF3 
  55      0080
  56              		.align	2
  57              		.p2align 4,,15
  58              		.weak	_default_exit
  59              		.thumb
  60              		.thumb_func
  61              		.type	_default_exit, %function
  62              	_default_exit:
  63              	.LFB9:
  64              		.loc 1 232 0
  65              		.cfi_startproc
  66              		@ Naked Function: prologue and epilogue provided by programmer.
  67              		@ args = 0, pretend = 0, frame = 0
  68              		@ frame_needed = 0, uses_anonymous_args = 0
  69              	.L4:
  70 0000 FEE7     		b	.L4
  71              		.cfi_endproc
  72              	.LFE9:
  73              		.size	_default_exit, .-_default_exit
  74 0002 00BFAFF3 		.section	.text.ResetHandler,"ax",%progbits
  74      0080AFF3 
  74      0080AFF3 
  74      0080
  75              		.align	2
  76              		.p2align 4,,15
  77              		.global	ResetHandler
  78              		.thumb
  79              		.thumb_func
  80              		.type	ResetHandler, %function
  81              	ResetHandler:
  82              	.LFB11:
  83              		.loc 1 256 0
  84              		.cfi_startproc
  85              		@ Naked Function: prologue and epilogue provided by programmer.
  86              		@ args = 0, pretend = 0, frame = 0
  87              		@ frame_needed = 0, uses_anonymous_args = 0
  88              		.loc 1 262 0
  89              	@ 262 "../../os/ports/GCC/ARMCMx/crt0.c" 1
  90 0000 72B6     		cpsid   i
  91              	@ 0 "" 2
  92              		.loc 1 263 0
  93              		.thumb
  94 0002 40F20004 		movw	r4, #:lower16:__process_stack_end__
  95 0006 C0F20004 		movt	r4, #:upper16:__process_stack_end__
  96              	.LVL0:
  97              		.loc 1 264 0
  98              	@ 264 "../../os/ports/GCC/ARMCMx/crt0.c" 1
  99 000a 84F30988 		msr     PSP, r4
 100              	@ 0 "" 2
 101              	.LVL1:
 102              		.loc 1 284 0
 103              		.thumb
 104 000e 0223     		movs	r3, #2
 105              	@ 284 "../../os/ports/GCC/ARMCMx/crt0.c" 1
ARM GAS  /tmp/ccfUjVTx.s 			page 3


 106 0010 83F31488 		msr     CONTROL, r3
 107              	@ 0 "" 2
 108              		.loc 1 285 0
 109              	@ 285 "../../os/ports/GCC/ARMCMx/crt0.c" 1
 110 0014 BFF36F8F 		isb
 111              	@ 0 "" 2
 112              		.loc 1 288 0
 113              		.thumb
 114 0018 FFF7FEFF 		bl	__early_init
 115              	.LVL2:
 116              	.LBB11:
 117              	.LBB12:
 118              		.loc 1 246 0
 119 001c 40F20003 		movw	r3, #:lower16:__main_stack_base__
 120 0020 40F20002 		movw	r2, #:lower16:__main_stack_end__
 121 0024 C0F20003 		movt	r3, #:upper16:__main_stack_base__
 122 0028 C0F20002 		movt	r2, #:upper16:__main_stack_end__
 123 002c 9342     		cmp	r3, r2
 124 002e 0BD2     		bcs	.L9
 125 0030 D943     		mvns	r1, r3
 126 0032 1144     		add	r1, r1, r2
 127 0034 21F00301 		bic	r1, r1, #3
 128 0038 1944     		add	r1, r1, r3
 129              		.loc 1 247 0
 130 003a 4FF05532 		mov	r2, #1431655765
 131 003e 043B     		subs	r3, r3, #4
 132              	.LVL3:
 133              	.L10:
 134 0040 43F8042F 		str	r2, [r3, #4]!
 135              	.LVL4:
 136              		.loc 1 246 0
 137 0044 8B42     		cmp	r3, r1
 138 0046 FBD1     		bne	.L10
 139              	.LVL5:
 140              	.L9:
 141              	.LBE12:
 142              	.LBE11:
 143              	.LBB13:
 144              	.LBB14:
 145 0048 40F20003 		movw	r3, #:lower16:__process_stack_base__
 146 004c C0F20003 		movt	r3, #:upper16:__process_stack_base__
 147 0050 A342     		cmp	r3, r4
 148 0052 0CD2     		bcs	.L8
 149 0054 3649     		ldr	r1, .L27
 150 0056 1A1D     		adds	r2, r3, #4
 151 0058 891A     		subs	r1, r1, r2
 152 005a 21F00301 		bic	r1, r1, #3
 153 005e 1944     		add	r1, r1, r3
 154              		.loc 1 247 0
 155 0060 4FF05532 		mov	r2, #1431655765
 156 0064 043B     		subs	r3, r3, #4
 157              	.LVL6:
 158              	.L13:
 159 0066 43F8042F 		str	r2, [r3, #4]!
 160              	.LVL7:
 161              		.loc 1 246 0
 162 006a 8B42     		cmp	r3, r1
ARM GAS  /tmp/ccfUjVTx.s 			page 4


 163 006c FBD1     		bne	.L13
 164              	.LVL8:
 165              	.L8:
 166              	.LBE14:
 167              	.LBE13:
 168              	.LBB15:
 169              		.loc 1 307 0
 170 006e 40F20001 		movw	r1, #:lower16:_data
 171 0072 40F20003 		movw	r3, #:lower16:_edata
 172 0076 C0F20001 		movt	r1, #:upper16:_data
 173 007a C0F20003 		movt	r3, #:upper16:_edata
 174 007e 9942     		cmp	r1, r3
 175 0080 0ED2     		bcs	.L12
 176 0082 CC43     		mvns	r4, r1
 177 0084 1C44     		add	r4, r4, r3
 178 0086 24F00304 		bic	r4, r4, #3
 179 008a 40F20000 		movw	r0, #:lower16:_textdata
 180 008e 0434     		adds	r4, r4, #4
 181 0090 C0F20000 		movt	r0, #:upper16:_textdata
 182 0094 0023     		movs	r3, #0
 183              	.LVL9:
 184              	.L16:
 185              		.loc 1 308 0
 186 0096 C258     		ldr	r2, [r0, r3]
 187 0098 CA50     		str	r2, [r1, r3]
 188 009a 0433     		adds	r3, r3, #4
 189              	.LVL10:
 190              		.loc 1 307 0
 191 009c A342     		cmp	r3, r4
 192 009e FAD1     		bne	.L16
 193              	.LVL11:
 194              	.L12:
 195              	.LBE15:
 196              	.LBB16:
 197              	.LBB17:
 198              		.loc 1 246 0
 199 00a0 40F20003 		movw	r3, #:lower16:_bss_start
 200 00a4 40F20002 		movw	r2, #:lower16:_bss_end
 201 00a8 C0F20003 		movt	r3, #:upper16:_bss_start
 202 00ac C0F20002 		movt	r2, #:upper16:_bss_end
 203 00b0 9342     		cmp	r3, r2
 204 00b2 0AD2     		bcs	.L15
 205 00b4 D943     		mvns	r1, r3
 206 00b6 1144     		add	r1, r1, r2
 207 00b8 21F00301 		bic	r1, r1, #3
 208 00bc 1944     		add	r1, r1, r3
 209              		.loc 1 247 0
 210 00be 0022     		movs	r2, #0
 211 00c0 043B     		subs	r3, r3, #4
 212              	.LVL12:
 213              	.L19:
 214 00c2 43F8042F 		str	r2, [r3, #4]!
 215              	.LVL13:
 216              		.loc 1 246 0
 217 00c6 8B42     		cmp	r3, r1
 218 00c8 FBD1     		bne	.L19
 219              	.LVL14:
ARM GAS  /tmp/ccfUjVTx.s 			page 5


 220              	.L15:
 221              	.LBE17:
 222              	.LBE16:
 223              		.loc 1 318 0
 224 00ca FFF7FEFF 		bl	__late_init
 225              	.LVL15:
 226              	.LBB18:
 227              		.loc 1 324 0
 228 00ce 40F20005 		movw	r5, #:lower16:__init_array_start
 229 00d2 40F20003 		movw	r3, #:lower16:__init_array_end
 230 00d6 C0F20005 		movt	r5, #:upper16:__init_array_start
 231 00da C0F20003 		movt	r3, #:upper16:__init_array_end
 232 00de 9D42     		cmp	r5, r3
 233 00e0 0BD2     		bcs	.L18
 234 00e2 EE43     		mvns	r6, r5
 235 00e4 1E44     		add	r6, r6, r3
 236 00e6 B608     		lsrs	r6, r6, #2
 237 00e8 0136     		adds	r6, r6, #1
 238 00ea 043D     		subs	r5, r5, #4
 239 00ec 0024     		movs	r4, #0
 240              	.LVL16:
 241              	.L22:
 242 00ee 0134     		adds	r4, r4, #1
 243              		.loc 1 325 0
 244 00f0 55F8043F 		ldr	r3, [r5, #4]!
 245              	.LVL17:
 246 00f4 9847     		blx	r3
 247              	.LVL18:
 248              		.loc 1 324 0
 249 00f6 B442     		cmp	r4, r6
 250 00f8 F9D1     		bne	.L22
 251              	.LVL19:
 252              	.L18:
 253              	.LBE18:
 254              		.loc 1 332 0
 255 00fa FFF7FEFF 		bl	main
 256              	.LVL20:
 257              	.LBB19:
 258              		.loc 1 338 0
 259 00fe 40F20005 		movw	r5, #:lower16:__fini_array_start
 260 0102 40F20003 		movw	r3, #:lower16:__fini_array_end
 261 0106 C0F20005 		movt	r5, #:upper16:__fini_array_start
 262 010a C0F20003 		movt	r3, #:upper16:__fini_array_end
 263 010e 9D42     		cmp	r5, r3
 264 0110 0BD2     		bcs	.L21
 265 0112 EE43     		mvns	r6, r5
 266 0114 1E44     		add	r6, r6, r3
 267 0116 B608     		lsrs	r6, r6, #2
 268 0118 0136     		adds	r6, r6, #1
 269 011a 043D     		subs	r5, r5, #4
 270 011c 0024     		movs	r4, #0
 271              	.LVL21:
 272              	.L23:
 273 011e 0134     		adds	r4, r4, #1
 274              		.loc 1 339 0
 275 0120 55F8043F 		ldr	r3, [r5, #4]!
 276              	.LVL22:
ARM GAS  /tmp/ccfUjVTx.s 			page 6


 277 0124 9847     		blx	r3
 278              	.LVL23:
 279              		.loc 1 338 0
 280 0126 B442     		cmp	r4, r6
 281 0128 F9D1     		bne	.L23
 282              	.LVL24:
 283              	.L21:
 284              	.LBE19:
 285              		.loc 1 346 0
 286 012a FFF7FEFF 		bl	_default_exit
 287              	.LVL25:
 288              		.loc 1 347 0
 289              	.L28:
 290 012e 00BF     		.align	2
 291              	.L27:
 292 0130 03000000 		.word	__process_stack_end__+3
 293              		.cfi_endproc
 294              	.LFE11:
 295              		.size	ResetHandler, .-ResetHandler
 296 0134 AFF30080 		.text
 296      AFF30080 
 296      AFF30080 
 297              	.Letext0:
 298              		.file 2 "/usr/include/newlib/machine/_default_types.h"
 299              		.file 3 "/usr/include/newlib/stdint.h"
