ARM GAS  /tmp/ccJpduug.s 			page 1


   1              		.syntax unified
   2              		.cpu cortex-m3
   3              		.fpu softvfp
   4              		.eabi_attribute 20, 1
   5              		.eabi_attribute 21, 1
   6              		.eabi_attribute 23, 3
   7              		.eabi_attribute 24, 1
   8              		.eabi_attribute 25, 1
   9              		.eabi_attribute 26, 1
  10              		.eabi_attribute 30, 2
  11              		.eabi_attribute 34, 1
  12              		.eabi_attribute 18, 4
  13              		.thumb
  14              		.file	"pal.c"
  15              		.text
  16              	.Ltext0:
  17              		.cfi_sections	.debug_frame
  18              		.section	.text.palReadBus,"ax",%progbits
  19              		.align	2
  20              		.p2align 4,,15
  21              		.global	palReadBus
  22              		.thumb
  23              		.thumb_func
  24              		.type	palReadBus, %function
  25              	palReadBus:
  26              	.LFB36:
  27              		.file 1 "../../os/hal/src/pal.c"
  28              		.loc 1 76 0
  29              		.cfi_startproc
  30              		@ args = 0, pretend = 0, frame = 0
  31              		@ frame_needed = 0, uses_anonymous_args = 0
  32              		@ link register save eliminated.
  33              	.LVL0:
  34              		.loc 1 81 0
  35 0000 0368     		ldr	r3, [r0]
  36 0002 8268     		ldr	r2, [r0, #8]
  37 0004 D96B     		ldr	r1, [r3, #60]
  38 0006 4368     		ldr	r3, [r0, #4]
  39 0008 21FA02F0 		lsr	r0, r1, r2
  40              	.LVL1:
  41              		.loc 1 82 0
  42 000c 1840     		ands	r0, r0, r3
  43 000e 7047     		bx	lr
  44              		.cfi_endproc
  45              	.LFE36:
  46              		.size	palReadBus, .-palReadBus
  47              		.section	.text.palWriteBus,"ax",%progbits
  48              		.align	2
  49              		.p2align 4,,15
  50              		.global	palWriteBus
  51              		.thumb
  52              		.thumb_func
  53              		.type	palWriteBus, %function
  54              	palWriteBus:
  55              	.LFB37:
  56              		.loc 1 101 0
  57              		.cfi_startproc
ARM GAS  /tmp/ccJpduug.s 			page 2


  58              		@ args = 0, pretend = 0, frame = 0
  59              		@ frame_needed = 0, uses_anonymous_args = 0
  60              		@ link register save eliminated.
  61              	.LVL2:
  62              		.loc 1 106 0
  63 0000 8368     		ldr	r3, [r0, #8]
  64 0002 4268     		ldr	r2, [r0, #4]
  65 0004 9940     		lsls	r1, r1, r3
  66              	.LVL3:
  67 0006 9A40     		lsls	r2, r2, r3
  68 0008 0368     		ldr	r3, [r0]
  69 000a C3F8A020 		str	r2, [r3, #160]
  70 000e 9963     		str	r1, [r3, #56]
  71 0010 C3F8A420 		str	r2, [r3, #164]
  72 0014 7047     		bx	lr
  73              		.cfi_endproc
  74              	.LFE37:
  75              		.size	palWriteBus, .-palWriteBus
  76 0016 00BFAFF3 		.section	.text.palSetBusMode,"ax",%progbits
  76      0080AFF3 
  76      0080
  77              		.align	2
  78              		.p2align 4,,15
  79              		.global	palSetBusMode
  80              		.thumb
  81              		.thumb_func
  82              		.type	palSetBusMode, %function
  83              	palSetBusMode:
  84              	.LFB38:
  85              		.loc 1 124 0
  86              		.cfi_startproc
  87              		@ args = 0, pretend = 0, frame = 0
  88              		@ frame_needed = 0, uses_anonymous_args = 0
  89              		@ link register save eliminated.
  90              	.LVL4:
  91 0000 10B4     		push	{r4}
  92              		.cfi_def_cfa_offset 4
  93              		.cfi_offset 4, -4
  94              		.loc 1 129 0
  95 0002 8368     		ldr	r3, [r0, #8]
  96 0004 4468     		ldr	r4, [r0, #4]
  97              		.loc 1 124 0
  98 0006 0A46     		mov	r2, r1
  99              		.loc 1 129 0
 100 0008 0068     		ldr	r0, [r0]
 101              	.LVL5:
 102 000a 04FA03F1 		lsl	r1, r4, r3
 103              	.LVL6:
 104              		.loc 1 130 0
 105 000e 5DF8044B 		ldr	r4, [sp], #4
 106              		.loc 1 129 0
 107 0012 FFF7FEBF 		b	_pal_lld_setgroupmode
 108              	.LVL7:
 109              		.cfi_endproc
 110              	.LFE38:
 111              		.size	palSetBusMode, .-palSetBusMode
 112 0016 00BFAFF3 		.text
ARM GAS  /tmp/ccJpduug.s 			page 3


 112      0080AFF3 
 112      0080
 113              	.Letext0:
 114              		.file 2 "/usr/include/newlib/machine/_default_types.h"
 115              		.file 3 "/usr/include/newlib/stdint.h"
 116              		.file 4 "../../os/hal/platforms/AT91SAM3/at91lib/SAM3N.h"
 117              		.file 5 "../../os/hal/platforms/AT91SAM3/pal_lld.h"
 118              		.file 6 "../../os/hal/include/pal.h"
 119              		.file 7 "../../os/hal/platforms/AT91SAM3/core_cm3.h"
