ARM GAS  /tmp/ccSPaaom.s 			page 1


   1              		.syntax unified
   2              		.cpu cortex-m3
   3              		.fpu softvfp
   4              		.eabi_attribute 20, 1
   5              		.eabi_attribute 21, 1
   6              		.eabi_attribute 23, 3
   7              		.eabi_attribute 24, 1
   8              		.eabi_attribute 25, 1
   9              		.eabi_attribute 26, 1
  10              		.eabi_attribute 30, 2
  11              		.eabi_attribute 34, 1
  12              		.eabi_attribute 18, 4
  13              		.thumb
  14              		.file	"atmel_pwm.c"
  15              		.text
  16              	.Ltext0:
  17              		.cfi_sections	.debug_frame
  18              		.section	.text.FindClockConfiguration,"ax",%progbits
  19              		.align	2
  20              		.p2align 4,,15
  21              		.thumb
  22              		.thumb_func
  23              		.type	FindClockConfiguration, %function
  24              	FindClockConfiguration:
  25              	.LFB36:
  26              		.file 1 "./atmel_lib/atmel_pwm.c"
  27              		.loc 1 101 0
  28              		.cfi_startproc
  29              		@ args = 0, pretend = 0, frame = 48
  30              		@ frame_needed = 0, uses_anonymous_args = 0
  31              	.LVL0:
  32 0000 F0B5     		push	{r4, r5, r6, r7, lr}
  33              		.cfi_def_cfa_offset 20
  34              		.cfi_offset 4, -20
  35              		.cfi_offset 5, -16
  36              		.cfi_offset 6, -12
  37              		.cfi_offset 7, -8
  38              		.cfi_offset 14, -4
  39              		.loc 1 102 0
  40 0002 40F20004 		movw	r4, #:lower16:.LANCHOR0
  41              		.loc 1 101 0
  42 0006 8FB0     		sub	sp, sp, #60
  43              		.cfi_def_cfa_offset 80
  44              		.loc 1 102 0
  45 0008 C0F20004 		movt	r4, #:upper16:.LANCHOR0
  46 000c 03AD     		add	r5, sp, #12
  47              		.loc 1 101 0
  48 000e 0646     		mov	r6, r0
  49 0010 0F46     		mov	r7, r1
  50              		.loc 1 102 0
  51 0012 0FCC     		ldmia	r4!, {r0, r1, r2, r3}
  52              	.LVL1:
  53 0014 0FC5     		stmia	r5!, {r0, r1, r2, r3}
  54 0016 0FCC     		ldmia	r4!, {r0, r1, r2, r3}
  55 0018 0FC5     		stmia	r5!, {r0, r1, r2, r3}
  56 001a 94E80700 		ldmia	r4, {r0, r1, r2}
  57              		.loc 1 106 0
ARM GAS  /tmp/ccSPaaom.s 			page 2


  58 001e BE42     		cmp	r6, r7
  59              		.loc 1 102 0
  60 0020 85E80700 		stmia	r5, {r0, r1, r2}
  61              	.LVL2:
  62              		.loc 1 106 0
  63 0024 32D2     		bcs	.L10
  64              		.loc 1 109 0
  65 0026 039A     		ldr	r2, [sp, #12]
  66              		.loc 1 103 0
  67 0028 0024     		movs	r4, #0
  68              		.loc 1 109 0
  69 002a B7FBF2F5 		udiv	r5, r7, r2
  70 002e B5FBF6F5 		udiv	r5, r5, r6
  71              	.LVL3:
  72              		.loc 1 110 0
  73 0032 FF2D     		cmp	r5, #255
  74 0034 1AD9     		bls	.L3
  75              	.LVL4:
  76              	.L5:
  77              		.loc 1 112 0
  78 0036 0134     		adds	r4, r4, #1
  79              	.LVL5:
  80 0038 E4B2     		uxtb	r4, r4
  81              	.LVL6:
  82              		.loc 1 113 0
  83 003a 0EAA     		add	r2, sp, #56
  84 003c 02EB8403 		add	r3, r2, r4, lsl #2
  85 0040 53F82C2C 		ldr	r2, [r3, #-44]
  86 0044 B7FBF2F5 		udiv	r5, r7, r2
  87              	.LVL7:
  88 0048 B5FBF6F5 		udiv	r5, r5, r6
  89              	.LVL8:
  90              		.loc 1 110 0
  91 004c FF2D     		cmp	r5, #255
  92 004e 94BF     		ite	ls
  93 0050 0023     		movls	r3, #0
  94 0052 0123     		movhi	r3, #1
  95 0054 0A2C     		cmp	r4, #10
  96 0056 88BF     		it	hi
  97 0058 0023     		movhi	r3, #0
  98 005a 002B     		cmp	r3, #0
  99 005c EBD1     		bne	.L5
 100              		.loc 1 117 0
 101 005e 0A2C     		cmp	r4, #10
 102              		.loc 1 125 0
 103 0060 88BF     		it	hi
 104 0062 1846     		movhi	r0, r3
 105              		.loc 1 117 0
 106 0064 01D9     		bls	.L11
 107              		.loc 1 127 0
 108 0066 0FB0     		add	sp, sp, #60
 109              		@ sp needed
 110 0068 F0BD     		pop	{r4, r5, r6, r7, pc}
 111              	.LVL9:
 112              	.L11:
 113 006a 2402     		lsls	r4, r4, #8
 114              	.LVL10:
ARM GAS  /tmp/ccSPaaom.s 			page 3


 115              	.L3:
 116              		.loc 1 119 0
 117 006c 40F20000 		movw	r0, #:lower16:SD2
 118 0070 40F20001 		movw	r1, #:lower16:.LC3
 119 0074 0096     		str	r6, [sp]
 120 0076 C0F20000 		movt	r0, #:upper16:SD2
 121 007a C0F20001 		movt	r1, #:upper16:.LC3
 122 007e 2B46     		mov	r3, r5
 123 0080 FFF7FEFF 		bl	chprintf
 124              	.LVL11:
 125              		.loc 1 121 0
 126 0084 2C43     		orrs	r4, r4, r5
 127 0086 A0B2     		uxth	r0, r4
 128              		.loc 1 127 0
 129 0088 0FB0     		add	sp, sp, #60
 130              		@ sp needed
 131 008a F0BD     		pop	{r4, r5, r6, r7, pc}
 132              	.LVL12:
 133              	.L10:
 134              	.LBB4:
 135              	.LBB5:
 136              		.loc 1 106 0
 137 008c 40F20000 		movw	r0, #:lower16:.LC1
 138 0090 40F20002 		movw	r2, #:lower16:.LANCHOR1
 139 0094 40F20003 		movw	r3, #:lower16:.LC2
 140 0098 C0F20000 		movt	r0, #:upper16:.LC1
 141 009c C0F20002 		movt	r2, #:upper16:.LANCHOR1
 142 00a0 C0F20003 		movt	r3, #:upper16:.LC2
 143 00a4 6A21     		movs	r1, #106
 144 00a6 FFF7FEFF 		bl	__assert_func
 145              	.LVL13:
 146              	.LBE5:
 147              	.LBE4:
 148              		.cfi_endproc
 149              	.LFE36:
 150              		.size	FindClockConfiguration, .-FindClockConfiguration
 151              		.section	.text.PWMC_ConfigureChannel,"ax",%progbits
 152              		.align	2
 153              		.p2align 4,,15
 154              		.global	PWMC_ConfigureChannel
 155              		.thumb
 156              		.thumb_func
 157              		.type	PWMC_ConfigureChannel, %function
 158              	PWMC_ConfigureChannel:
 159              	.LFB37:
 160              		.loc 1 150 0
 161              		.cfi_startproc
 162              		@ args = 0, pretend = 0, frame = 0
 163              		@ frame_needed = 0, uses_anonymous_args = 0
 164              	.LVL14:
 165              		.loc 1 151 0
 166 0000 0B29     		cmp	r1, #11
 167              		.loc 1 150 0
 168 0002 70B5     		push	{r4, r5, r6, lr}
 169              		.cfi_def_cfa_offset 16
 170              		.cfi_offset 4, -16
 171              		.cfi_offset 5, -12
ARM GAS  /tmp/ccSPaaom.s 			page 4


 172              		.cfi_offset 6, -8
 173              		.cfi_offset 14, -4
 174              		.loc 1 151 0
 175 0004 1BD8     		bhi	.L23
 176              		.loc 1 152 0
 177 0006 32F48074 		bics	r4, r2, #256
 178 000a 36D1     		bne	.L24
 179              		.loc 1 153 0
 180 000c 33F40074 		bics	r4, r3, #512
 181 0010 24D1     		bne	.L25
 182              		.loc 1 156 0
 183 0012 0125     		movs	r5, #1
 184 0014 8540     		lsls	r5, r5, r0
 185 0016 0026     		movs	r6, #0
 186 0018 C4F20206 		movt	r6, 16386
 187 001c F468     		ldr	r4, [r6, #12]
 188 001e 2542     		tst	r5, r4
 189              		.loc 1 157 0
 190 0020 18BF     		it	ne
 191 0022 B560     		strne	r5, [r6, #8]
 192              		.loc 1 156 0
 193 0024 02D0     		beq	.L17
 194              	.L18:
 195              		.loc 1 158 0 discriminator 1
 196 0026 F468     		ldr	r4, [r6, #12]
 197 0028 2542     		tst	r5, r4
 198 002a FCD1     		bne	.L18
 199              	.L17:
 200              		.loc 1 162 0
 201 002c 1A43     		orrs	r2, r2, r3
 202              	.LVL15:
 203 002e 1030     		adds	r0, r0, #16
 204              	.LVL16:
 205 0030 0024     		movs	r4, #0
 206 0032 1143     		orrs	r1, r1, r2
 207              	.LVL17:
 208 0034 4001     		lsls	r0, r0, #5
 209 0036 C4F20204 		movt	r4, 16386
 210 003a 2150     		str	r1, [r4, r0]
 211 003c 70BD     		pop	{r4, r5, r6, pc}
 212              	.LVL18:
 213              	.L23:
 214              		.loc 1 151 0 discriminator 1
 215 003e 40F20000 		movw	r0, #:lower16:.LC1
 216              	.LVL19:
 217 0042 40F20002 		movw	r2, #:lower16:.LANCHOR2
 218              	.LVL20:
 219 0046 40F20003 		movw	r3, #:lower16:.LC4
 220              	.LVL21:
 221 004a C0F20000 		movt	r0, #:upper16:.LC1
 222 004e C0F20002 		movt	r2, #:upper16:.LANCHOR2
 223 0052 C0F20003 		movt	r3, #:upper16:.LC4
 224 0056 9721     		movs	r1, #151
 225              	.LVL22:
 226 0058 FFF7FEFF 		bl	__assert_func
 227              	.LVL23:
 228              	.L25:
ARM GAS  /tmp/ccSPaaom.s 			page 5


 229              		.loc 1 153 0 discriminator 1
 230 005c 40F20000 		movw	r0, #:lower16:.LC1
 231              	.LVL24:
 232 0060 40F20002 		movw	r2, #:lower16:.LANCHOR2
 233              	.LVL25:
 234 0064 40F20003 		movw	r3, #:lower16:.LC6
 235              	.LVL26:
 236 0068 C0F20000 		movt	r0, #:upper16:.LC1
 237 006c C0F20002 		movt	r2, #:upper16:.LANCHOR2
 238 0070 C0F20003 		movt	r3, #:upper16:.LC6
 239 0074 9921     		movs	r1, #153
 240              	.LVL27:
 241 0076 FFF7FEFF 		bl	__assert_func
 242              	.LVL28:
 243              	.L24:
 244              		.loc 1 152 0 discriminator 1
 245 007a 40F20000 		movw	r0, #:lower16:.LC1
 246              	.LVL29:
 247 007e 40F20002 		movw	r2, #:lower16:.LANCHOR2
 248              	.LVL30:
 249 0082 40F20003 		movw	r3, #:lower16:.LC5
 250              	.LVL31:
 251 0086 C0F20000 		movt	r0, #:upper16:.LC1
 252 008a C0F20002 		movt	r2, #:upper16:.LANCHOR2
 253 008e C0F20003 		movt	r3, #:upper16:.LC5
 254 0092 9821     		movs	r1, #152
 255              	.LVL32:
 256 0094 FFF7FEFF 		bl	__assert_func
 257              	.LVL33:
 258              		.cfi_endproc
 259              	.LFE37:
 260              		.size	PWMC_ConfigureChannel, .-PWMC_ConfigureChannel
 261 0098 AFF30080 		.section	.text.PWMC_ConfigureClocks,"ax",%progbits
 261      AFF30080 
 262              		.align	2
 263              		.p2align 4,,15
 264              		.global	PWMC_ConfigureClocks
 265              		.thumb
 266              		.thumb_func
 267              		.type	PWMC_ConfigureClocks, %function
 268              	PWMC_ConfigureClocks:
 269              	.LFB38:
 270              		.loc 1 175 0
 271              		.cfi_startproc
 272              		@ args = 0, pretend = 0, frame = 0
 273              		@ frame_needed = 0, uses_anonymous_args = 0
 274              	.LVL34:
 275 0000 70B5     		push	{r4, r5, r6, lr}
 276              		.cfi_def_cfa_offset 16
 277              		.cfi_offset 4, -16
 278              		.cfi_offset 5, -12
 279              		.cfi_offset 6, -8
 280              		.cfi_offset 14, -4
 281              		.loc 1 175 0
 282 0002 0D46     		mov	r5, r1
 283 0004 1646     		mov	r6, r2
 284              		.loc 1 180 0
ARM GAS  /tmp/ccSPaaom.s 			page 6


 285 0006 0446     		mov	r4, r0
 286 0008 B8B9     		cbnz	r0, .L34
 287              	.LVL35:
 288              	.L27:
 289              		.loc 1 188 0
 290 000a 35B1     		cbz	r5, .L28
 291              		.loc 1 190 0
 292 000c 2846     		mov	r0, r5
 293 000e 3146     		mov	r1, r6
 294 0010 FFF7FEFF 		bl	FindClockConfiguration
 295              	.LVL36:
 296              		.loc 1 192 0
 297 0014 44EA0044 		orr	r4, r4, r0, lsl #16
 298              	.LVL37:
 299              		.loc 1 191 0
 300 0018 20B3     		cbz	r0, .L35
 301              	.LVL38:
 302              	.L28:
 303              		.loc 1 196 0
 304 001a 40F20000 		movw	r0, #:lower16:SD2
 305 001e 40F20001 		movw	r1, #:lower16:.LC8
 306 0022 C0F20000 		movt	r0, #:upper16:SD2
 307 0026 C0F20001 		movt	r1, #:upper16:.LC8
 308 002a 2246     		mov	r2, r4
 309 002c FFF7FEFF 		bl	chprintf
 310              	.LVL39:
 311              		.loc 1 197 0
 312 0030 0023     		movs	r3, #0
 313 0032 C4F20203 		movt	r3, 16386
 314 0036 1C60     		str	r4, [r3]
 315 0038 70BD     		pop	{r4, r5, r6, pc}
 316              	.LVL40:
 317              	.L34:
 318              		.loc 1 182 0
 319 003a 1146     		mov	r1, r2
 320              	.LVL41:
 321 003c FFF7FEFF 		bl	FindClockConfiguration
 322              	.LVL42:
 323              		.loc 1 183 0
 324 0040 0446     		mov	r4, r0
 325              	.LVL43:
 326 0042 0028     		cmp	r0, #0
 327 0044 E1D1     		bne	.L27
 328              		.loc 1 183 0 is_stmt 0 discriminator 1
 329 0046 40F20000 		movw	r0, #:lower16:.LC1
 330              	.LVL44:
 331 004a 40F20002 		movw	r2, #:lower16:.LANCHOR3
 332 004e 40F20003 		movw	r3, #:lower16:.LC7
 333 0052 C0F20000 		movt	r0, #:upper16:.LC1
 334 0056 C0F20002 		movt	r2, #:upper16:.LANCHOR3
 335 005a C0F20003 		movt	r3, #:upper16:.LC7
 336 005e B721     		movs	r1, #183
 337 0060 FFF7FEFF 		bl	__assert_func
 338              	.LVL45:
 339              	.L35:
 340              		.loc 1 191 0 is_stmt 1 discriminator 1
 341 0064 40F20000 		movw	r0, #:lower16:.LC1
ARM GAS  /tmp/ccSPaaom.s 			page 7


 342              	.LVL46:
 343 0068 40F20002 		movw	r2, #:lower16:.LANCHOR3
 344 006c 40F20003 		movw	r3, #:lower16:.LC7
 345 0070 C0F20000 		movt	r0, #:upper16:.LC1
 346 0074 C0F20002 		movt	r2, #:upper16:.LANCHOR3
 347 0078 C0F20003 		movt	r3, #:upper16:.LC7
 348 007c BF21     		movs	r1, #191
 349 007e FFF7FEFF 		bl	__assert_func
 350              	.LVL47:
 351              		.cfi_endproc
 352              	.LFE38:
 353              		.size	PWMC_ConfigureClocks, .-PWMC_ConfigureClocks
 354 0082 00BFAFF3 		.section	.text.PWMC_SetPeriod,"ax",%progbits
 354      0080AFF3 
 354      0080AFF3 
 354      0080
 355              		.align	2
 356              		.p2align 4,,15
 357              		.global	PWMC_SetPeriod
 358              		.thumb
 359              		.thumb_func
 360              		.type	PWMC_SetPeriod, %function
 361              	PWMC_SetPeriod:
 362              	.LFB39:
 363              		.loc 1 210 0
 364              		.cfi_startproc
 365              		@ args = 0, pretend = 0, frame = 0
 366              		@ frame_needed = 0, uses_anonymous_args = 0
 367              		@ link register save eliminated.
 368              	.LVL48:
 369              		.loc 1 212 0
 370 0000 0122     		movs	r2, #1
 371 0002 8240     		lsls	r2, r2, r0
 372 0004 0023     		movs	r3, #0
 373 0006 C4F20203 		movt	r3, 16386
 374 000a DB68     		ldr	r3, [r3, #12]
 375              		.loc 1 214 0
 376 000c 4001     		lsls	r0, r0, #5
 377              	.LVL49:
 378              		.loc 1 212 0
 379 000e 1A42     		tst	r2, r3
 380 0010 1DBF     		ittte	ne
 381 0012 00F18043 		addne	r3, r0, #1073741824
 382 0016 03F50033 		addne	r3, r3, #131072
 383              		.loc 1 219 0
 384 001a D3F80022 		ldrne	r2, [r3, #512]
 385              		.loc 1 214 0
 386 001e 00F18040 		addeq	r0, r0, #1073741824
 387 0022 0FBF     		iteee	eq
 388 0024 00F50030 		addeq	r0, r0, #131072
 389              		.loc 1 220 0
 390 0028 1846     		movne	r0, r3
 391              		.loc 1 219 0
 392 002a 42F48062 		orrne	r2, r2, #1024
 393 002e C3F80022 		strne	r2, [r3, #512]
 394              		.loc 1 214 0
 395 0032 0CBF     		ite	eq
ARM GAS  /tmp/ccSPaaom.s 			page 8


 396 0034 C0F80812 		streq	r1, [r0, #520]
 397              		.loc 1 220 0
 398 0038 C0F81012 		strne	r1, [r0, #528]
 399 003c 7047     		bx	lr
 400              		.cfi_endproc
 401              	.LFE39:
 402              		.size	PWMC_SetPeriod, .-PWMC_SetPeriod
 403 003e 00BF     		.section	.text.PWMC_SetDutyCycle,"ax",%progbits
 404              		.align	2
 405              		.p2align 4,,15
 406              		.global	PWMC_SetDutyCycle
 407              		.thumb
 408              		.thumb_func
 409              		.type	PWMC_SetDutyCycle, %function
 410              	PWMC_SetDutyCycle:
 411              	.LFB40:
 412              		.loc 1 235 0
 413              		.cfi_startproc
 414              		@ args = 0, pretend = 0, frame = 0
 415              		@ frame_needed = 0, uses_anonymous_args = 0
 416              	.LVL50:
 417 0000 38B5     		push	{r3, r4, r5, lr}
 418              		.cfi_def_cfa_offset 16
 419              		.cfi_offset 3, -16
 420              		.cfi_offset 4, -12
 421              		.cfi_offset 5, -8
 422              		.cfi_offset 14, -4
 423              		.loc 1 236 0
 424 0002 4401     		lsls	r4, r0, #5
 425 0004 04F18043 		add	r3, r4, #1073741824
 426 0008 03F50033 		add	r3, r3, #131072
 427 000c D3F80852 		ldr	r5, [r3, #520]
 428 0010 0022     		movs	r2, #0
 429 0012 A942     		cmp	r1, r5
 430 0014 C4F20202 		movt	r2, 16386
 431 0018 19D8     		bhi	.L43
 432              		.loc 1 239 0
 433 001a 0125     		movs	r5, #1
 434 001c 8540     		lsls	r5, r5, r0
 435 001e D268     		ldr	r2, [r2, #12]
 436 0020 1542     		tst	r5, r2
 437 0022 0CD0     		beq	.L44
 438 0024 04F18044 		add	r4, r4, #1073741824
 439 0028 04F50034 		add	r4, r4, #131072
 440              		.loc 1 246 0
 441 002c D4F80022 		ldr	r2, [r4, #512]
 442 0030 22F48062 		bic	r2, r2, #1024
 443 0034 C4F80022 		str	r2, [r4, #512]
 444              		.loc 1 247 0
 445 0038 C3F81012 		str	r1, [r3, #528]
 446 003c 38BD     		pop	{r3, r4, r5, pc}
 447              	.L44:
 448              		.loc 1 241 0
 449 003e 4FF40073 		mov	r3, #512
 450 0042 4001     		lsls	r0, r0, #5
 451              	.LVL51:
 452 0044 C4F20203 		movt	r3, 16386
ARM GAS  /tmp/ccSPaaom.s 			page 9


 453 0048 0344     		add	r3, r3, r0
 454 004a 5960     		str	r1, [r3, #4]
 455 004c 38BD     		pop	{r3, r4, r5, pc}
 456              	.LVL52:
 457              	.L43:
 458              		.loc 1 236 0 discriminator 1
 459 004e 40F20000 		movw	r0, #:lower16:.LC1
 460              	.LVL53:
 461 0052 40F20002 		movw	r2, #:lower16:.LANCHOR4
 462 0056 40F20003 		movw	r3, #:lower16:.LC9
 463 005a C0F20000 		movt	r0, #:upper16:.LC1
 464 005e C0F20002 		movt	r2, #:upper16:.LANCHOR4
 465 0062 C0F20003 		movt	r3, #:upper16:.LC9
 466 0066 EC21     		movs	r1, #236
 467              	.LVL54:
 468 0068 FFF7FEFF 		bl	__assert_func
 469              	.LVL55:
 470              		.cfi_endproc
 471              	.LFE40:
 472              		.size	PWMC_SetDutyCycle, .-PWMC_SetDutyCycle
 473 006c AFF30080 		.section	.text.PWMC_EnableChannel,"ax",%progbits
 474              		.align	2
 475              		.p2align 4,,15
 476              		.global	PWMC_EnableChannel
 477              		.thumb
 478              		.thumb_func
 479              		.type	PWMC_EnableChannel, %function
 480              	PWMC_EnableChannel:
 481              	.LFB41:
 482              		.loc 1 259 0
 483              		.cfi_startproc
 484              		@ args = 0, pretend = 0, frame = 0
 485              		@ frame_needed = 0, uses_anonymous_args = 0
 486              		@ link register save eliminated.
 487              	.LVL56:
 488              		.loc 1 260 0
 489 0000 0123     		movs	r3, #1
 490 0002 03FA00F0 		lsl	r0, r3, r0
 491              	.LVL57:
 492 0006 0023     		movs	r3, #0
 493 0008 C4F20203 		movt	r3, 16386
 494 000c 5860     		str	r0, [r3, #4]
 495 000e 7047     		bx	lr
 496              		.cfi_endproc
 497              	.LFE41:
 498              		.size	PWMC_EnableChannel, .-PWMC_EnableChannel
 499              		.section	.text.PWMC_DisableChannel,"ax",%progbits
 500              		.align	2
 501              		.p2align 4,,15
 502              		.global	PWMC_DisableChannel
 503              		.thumb
 504              		.thumb_func
 505              		.type	PWMC_DisableChannel, %function
 506              	PWMC_DisableChannel:
 507              	.LFB42:
 508              		.loc 1 273 0
 509              		.cfi_startproc
ARM GAS  /tmp/ccSPaaom.s 			page 10


 510              		@ args = 0, pretend = 0, frame = 0
 511              		@ frame_needed = 0, uses_anonymous_args = 0
 512              		@ link register save eliminated.
 513              	.LVL58:
 514              		.loc 1 274 0
 515 0000 0123     		movs	r3, #1
 516 0002 03FA00F0 		lsl	r0, r3, r0
 517              	.LVL59:
 518 0006 0023     		movs	r3, #0
 519 0008 C4F20203 		movt	r3, 16386
 520 000c 9860     		str	r0, [r3, #8]
 521 000e 7047     		bx	lr
 522              		.cfi_endproc
 523              	.LFE42:
 524              		.size	PWMC_DisableChannel, .-PWMC_DisableChannel
 525              		.section	.text.PWMC_EnableChannelIt,"ax",%progbits
 526              		.align	2
 527              		.p2align 4,,15
 528              		.global	PWMC_EnableChannelIt
 529              		.thumb
 530              		.thumb_func
 531              		.type	PWMC_EnableChannelIt, %function
 532              	PWMC_EnableChannelIt:
 533              	.LFB43:
 534              		.loc 1 283 0
 535              		.cfi_startproc
 536              		@ args = 0, pretend = 0, frame = 0
 537              		@ frame_needed = 0, uses_anonymous_args = 0
 538              		@ link register save eliminated.
 539              	.LVL60:
 540              		.loc 1 284 0
 541 0000 0123     		movs	r3, #1
 542 0002 03FA00F0 		lsl	r0, r3, r0
 543              	.LVL61:
 544 0006 0023     		movs	r3, #0
 545 0008 C4F20203 		movt	r3, 16386
 546 000c 1861     		str	r0, [r3, #16]
 547 000e 7047     		bx	lr
 548              		.cfi_endproc
 549              	.LFE43:
 550              		.size	PWMC_EnableChannelIt, .-PWMC_EnableChannelIt
 551              		.section	.text.PWMC_DisableChannelIt,"ax",%progbits
 552              		.align	2
 553              		.p2align 4,,15
 554              		.global	PWMC_DisableChannelIt
 555              		.thumb
 556              		.thumb_func
 557              		.type	PWMC_DisableChannelIt, %function
 558              	PWMC_DisableChannelIt:
 559              	.LFB44:
 560              		.loc 1 293 0
 561              		.cfi_startproc
 562              		@ args = 0, pretend = 0, frame = 0
 563              		@ frame_needed = 0, uses_anonymous_args = 0
 564              		@ link register save eliminated.
 565              	.LVL62:
 566              		.loc 1 294 0
ARM GAS  /tmp/ccSPaaom.s 			page 11


 567 0000 0123     		movs	r3, #1
 568 0002 03FA00F0 		lsl	r0, r3, r0
 569              	.LVL63:
 570 0006 0023     		movs	r3, #0
 571 0008 C4F20203 		movt	r3, 16386
 572 000c 5861     		str	r0, [r3, #20]
 573 000e 7047     		bx	lr
 574              		.cfi_endproc
 575              	.LFE44:
 576              		.size	PWMC_DisableChannelIt, .-PWMC_DisableChannelIt
 577              		.section	.rodata
 578              		.align	2
 579              		.set	.LANCHOR0,. + 0
 580              	.LC0:
 581 0000 01000000 		.word	1
 582 0004 02000000 		.word	2
 583 0008 04000000 		.word	4
 584 000c 08000000 		.word	8
 585 0010 10000000 		.word	16
 586 0014 20000000 		.word	32
 587 0018 40000000 		.word	64
 588 001c 80000000 		.word	128
 589 0020 00010000 		.word	256
 590 0024 00020000 		.word	512
 591 0028 00040000 		.word	1024
 592              		.section	.rodata.__func__.5822,"a",%progbits
 593              		.align	2
 594              		.set	.LANCHOR2,. + 0
 595              		.type	__func__.5822, %object
 596              		.size	__func__.5822, 22
 597              	__func__.5822:
 598 0000 50574D43 		.ascii	"PWMC_ConfigureChannel\000"
 598      5F436F6E 
 598      66696775 
 598      72654368 
 598      616E6E65 
 599 0016 0000     		.section	.rodata.__func__.5833,"a",%progbits
 600              		.align	2
 601              		.set	.LANCHOR3,. + 0
 602              		.type	__func__.5833, %object
 603              		.size	__func__.5833, 21
 604              	__func__.5833:
 605 0000 50574D43 		.ascii	"PWMC_ConfigureClocks\000"
 605      5F436F6E 
 605      66696775 
 605      7265436C 
 605      6F636B73 
 606 0015 000000   		.section	.rodata.__func__.5842,"a",%progbits
 607              		.align	2
 608              		.set	.LANCHOR4,. + 0
 609              		.type	__func__.5842, %object
 610              		.size	__func__.5842, 18
 611              	__func__.5842:
 612 0000 50574D43 		.ascii	"PWMC_SetDutyCycle\000"
 612      5F536574 
 612      44757479 
 612      4379636C 
ARM GAS  /tmp/ccSPaaom.s 			page 12


 612      6500
 613 0012 0000     		.section	.rodata.str1.4,"aMS",%progbits,1
 614              		.align	2
 615              	.LC1:
 616 0000 2E2F6174 		.ascii	"./atmel_lib/atmel_pwm.c\000"
 616      6D656C5F 
 616      6C69622F 
 616      61746D65 
 616      6C5F7077 
 617              	.LC2:
 618 0018 66726571 		.ascii	"frequency < mck\000"
 618      75656E63 
 618      79203C20 
 618      6D636B00 
 619              	.LC3:
 620 0028 466F756E 		.ascii	"Found divisor=%u and prescaler=%u for freq=%uHz\012"
 620      64206469 
 620      7669736F 
 620      723D2575 
 620      20616E64 
 621 0058 0D00     		.ascii	"\015\000"
 622 005a 0000     		.space	2
 623              	.LC4:
 624 005c 70726573 		.ascii	"prescaler < PWM_CMR_CPRE_CLKB\000"
 624      63616C65 
 624      72203C20 
 624      50574D5F 
 624      434D525F 
 625 007a 0000     		.space	2
 626              	.LC5:
 627 007c 28616C69 		.ascii	"(alignment & (uint32_t)~PWM_CMR_CALG) == 0\000"
 627      676E6D65 
 627      6E742026 
 627      20287569 
 627      6E743332 
 628 00a7 00       		.space	1
 629              	.LC6:
 630 00a8 28706F6C 		.ascii	"(polarity & (uint32_t)~PWM_CMR_CPOL) == 0\000"
 630      61726974 
 630      79202620 
 630      2875696E 
 630      7433325F 
 631 00d2 0000     		.space	2
 632              	.LC7:
 633 00d4 72657375 		.ascii	"result != 0\000"
 633      6C742021 
 633      3D203000 
 634              	.LC8:
 635 00e0 53657474 		.ascii	"Setting PWM_MR = 0x%08X\012\015\000"
 635      696E6720 
 635      50574D5F 
 635      4D52203D 
 635      20307825 
 636 00fa 0000     		.space	2
 637              	.LC9:
 638 00fc 64757479 		.ascii	"duty <= PWM->PWM_CH_NUM[channel].PWM_CPRD\000"
 638      203C3D20 
ARM GAS  /tmp/ccSPaaom.s 			page 13


 638      50574D2D 
 638      3E50574D 
 638      5F43485F 
 639 0126 0000     		.section	.rodata.__func__.5812,"a",%progbits
 640              		.align	2
 641              		.set	.LANCHOR1,. + 0
 642              		.type	__func__.5812, %object
 643              		.size	__func__.5812, 23
 644              	__func__.5812:
 645 0000 46696E64 		.ascii	"FindClockConfiguration\000"
 645      436C6F63 
 645      6B436F6E 
 645      66696775 
 645      72617469 
 646 0017 00       		.text
 647              	.Letext0:
 648              		.file 2 "/usr/include/newlib/machine/_default_types.h"
 649              		.file 3 "/usr/include/newlib/stdint.h"
 650              		.file 4 "./atmel_lib/include/SAM3N.h"
 651              		.file 5 "/usr/lib/gcc/arm-none-eabi/4.8.2/include/stddef.h"
 652              		.file 6 "../../os/ports/GCC/ARMCMx/chtypes.h"
 653              		.file 7 "../../os/kernel/include/chlists.h"
 654              		.file 8 "../../os/kernel/include/chthreads.h"
 655              		.file 9 "../../os/ports/GCC/ARMCMx/chcore_v7m.h"
 656              		.file 10 "../../os/kernel/include/chmtx.h"
 657              		.file 11 "../../os/kernel/include/chevents.h"
 658              		.file 12 "../../os/kernel/include/chqueues.h"
 659              		.file 13 "../../os/kernel/include/chioch.h"
 660              		.file 14 "../../os/hal/include/serial.h"
 661              		.file 15 "/usr/include/newlib/assert.h"
 662              		.file 16 "../../os/various/chprintf.h"
 663              		.file 17 "../../os/hal/platforms/AT91SAM3/core_cm3.h"
 664              		.file 18 "../../os/hal/platforms/AT91SAM3/serial_lld.h"
