ARM GAS  /tmp/ccNCO5uG.s 			page 1


   1              		.syntax unified
   2              		.cpu cortex-m3
   3              		.fpu softvfp
   4              		.eabi_attribute 20, 1
   5              		.eabi_attribute 21, 1
   6              		.eabi_attribute 23, 3
   7              		.eabi_attribute 24, 1
   8              		.eabi_attribute 25, 1
   9              		.eabi_attribute 26, 1
  10              		.eabi_attribute 30, 2
  11              		.eabi_attribute 34, 1
  12              		.eabi_attribute 18, 4
  13              		.thumb
  14              		.file	"chcore_v7m.c"
  15              		.text
  16              	.Ltext0:
  17              		.cfi_sections	.debug_frame
  18              		.section	.text._port_switch_from_isr,"ax",%progbits
  19              		.align	2
  20              		.p2align 4,,15
  21              		.global	_port_switch_from_isr
  22              		.thumb
  23              		.thumb_func
  24              		.type	_port_switch_from_isr, %function
  25              	_port_switch_from_isr:
  26              	.LFB11:
  27              		.file 1 "../../os/ports/GCC/ARMCMx/chcore_v7m.c"
  28              		.loc 1 207 0
  29              		.cfi_startproc
  30              		@ Naked Function: prologue and epilogue provided by programmer.
  31              		@ args = 0, pretend = 0, frame = 0
  32              		@ frame_needed = 0, uses_anonymous_args = 0
  33              		.loc 1 210 0
  34 0000 FFF7FEFF 		bl	chSchDoReschedule
  35              	.LVL0:
  36              		.loc 1 212 0
  37              	@ 212 "../../os/ports/GCC/ARMCMx/chcore_v7m.c" 1
  38              		_port_exit_from_isr:
  39              	@ 0 "" 2
  40              		.loc 1 214 0
  41              	@ 214 "../../os/ports/GCC/ARMCMx/chcore_v7m.c" 1
  42 0004 00DF     		svc     #0
  43              	@ 0 "" 2
  44              		.loc 1 221 0
  45              		.thumb
  46              		.cfi_endproc
  47              	.LFE11:
  48              		.size	_port_switch_from_isr, .-_port_switch_from_isr
  49 0006 00BFAFF3 		.section	.text.SVCallVector,"ax",%progbits
  49      0080AFF3 
  49      0080
  50              		.align	2
  51              		.p2align 4,,15
  52              		.global	SVCallVector
  53              		.thumb
  54              		.thumb_func
  55              		.type	SVCallVector, %function
ARM GAS  /tmp/ccNCO5uG.s 			page 2


  56              	SVCallVector:
  57              	.LFB8:
  58              		.loc 1 65 0
  59              		.cfi_startproc
  60              		@ args = 0, pretend = 0, frame = 0
  61              		@ frame_needed = 0, uses_anonymous_args = 0
  62              		@ link register save eliminated.
  63              		.loc 1 69 0
  64              	@ 69 "../../os/ports/GCC/ARMCMx/chcore_v7m.c" 1
  65 0000 EFF30983 		mrs     r3, PSP
  66              	@ 0 "" 2
  67              	.LVL1:
  68              		.loc 1 73 0
  69              		.thumb
  70 0004 2033     		adds	r3, r3, #32
  71              	.LVL2:
  72              		.loc 1 80 0
  73              	@ 80 "../../os/ports/GCC/ARMCMx/chcore_v7m.c" 1
  74 0006 83F30988 		msr     PSP, r3
  75              	@ 0 "" 2
  76              		.thumb
  77              	.LBB2:
  78              		.loc 1 81 0
  79 000a 0023     		movs	r3, #0
  80              	.LVL3:
  81              	@ 81 "../../os/ports/GCC/ARMCMx/chcore_v7m.c" 1
  82 000c 83F31188 		msr     BASEPRI, r3
  83              	@ 0 "" 2
  84              		.thumb
  85 0010 7047     		bx	lr
  86              	.LBE2:
  87              		.cfi_endproc
  88              	.LFE8:
  89              		.size	SVCallVector, .-SVCallVector
  90 0012 00BFAFF3 		.section	.text._port_init,"ax",%progbits
  90      0080AFF3 
  90      0080AFF3 
  90      0080
  91              		.align	2
  92              		.p2align 4,,15
  93              		.global	_port_init
  94              		.thumb
  95              		.thumb_func
  96              		.type	_port_init, %function
  97              	_port_init:
  98              	.LFB9:
  99              		.loc 1 118 0
 100              		.cfi_startproc
 101              		@ args = 0, pretend = 0, frame = 0
 102              		@ frame_needed = 0, uses_anonymous_args = 0
 103 0000 08B5     		push	{r3, lr}
 104              		.cfi_def_cfa_offset 8
 105              		.cfi_offset 3, -8
 106              		.cfi_offset 14, -4
 107              		.loc 1 122 0
 108 0002 0022     		movs	r2, #0
 109              		.loc 1 121 0
ARM GAS  /tmp/ccNCO5uG.s 			page 3


 110 0004 4FF46D43 		mov	r3, #60672
 111 0008 CEF20003 		movt	r3, 57344
 112 000c 1146     		mov	r1, r2
 113              		.loc 1 122 0
 114 000e C0F2FA52 		movt	r2, 1530
 115              		.loc 1 121 0
 116 0012 9960     		str	r1, [r3, #8]
 117              		.loc 1 125 0
 118 0014 0720     		movs	r0, #7
 119              		.loc 1 122 0
 120 0016 DA60     		str	r2, [r3, #12]
 121              		.loc 1 125 0
 122 0018 1021     		movs	r1, #16
 123 001a FFF7FEFF 		bl	nvicSetSystemHandlerPriority
 124              	.LVL4:
 125              		.loc 1 127 0
 126 001e 0A20     		movs	r0, #10
 127 0020 4FF40071 		mov	r1, #512
 128 0024 FFF7FEFF 		bl	nvicSetSystemHandlerPriority
 129              	.LVL5:
 130              		.loc 1 131 0
 131 0028 BDE80840 		pop	{r3, lr}
 132              		.loc 1 129 0
 133 002c 0B20     		movs	r0, #11
 134 002e 8021     		movs	r1, #128
 135 0030 FFF7FEBF 		b	nvicSetSystemHandlerPriority
 136              	.LVL6:
 137              		.cfi_endproc
 138              	.LFE9:
 139              		.size	_port_init, .-_port_init
 140 0034 AFF30080 		.section	.text._port_irq_epilogue,"ax",%progbits
 140      AFF30080 
 140      AFF30080 
 141              		.align	2
 142              		.p2align 4,,15
 143              		.global	_port_irq_epilogue
 144              		.thumb
 145              		.thumb_func
 146              		.type	_port_irq_epilogue, %function
 147              	_port_irq_epilogue:
 148              	.LFB10:
 149              		.loc 1 148 0
 150              		.cfi_startproc
 151              		@ args = 0, pretend = 0, frame = 0
 152              		@ frame_needed = 0, uses_anonymous_args = 0
 153              		@ link register save eliminated.
 154              	.LBB3:
 155              		.loc 1 150 0
 156 0000 2023     		movs	r3, #32
 157              	@ 150 "../../os/ports/GCC/ARMCMx/chcore_v7m.c" 1
 158 0002 83F31188 		msr     BASEPRI, r3
 159              	@ 0 "" 2
 160              		.thumb
 161              	.LBE3:
 162              		.loc 1 151 0
 163 0006 4FF46D43 		mov	r3, #60672
 164 000a CEF20003 		movt	r3, 57344
ARM GAS  /tmp/ccNCO5uG.s 			page 4


 165 000e 5B68     		ldr	r3, [r3, #4]
 166 0010 13F40063 		ands	r3, r3, #2048
 167 0014 1FD0     		beq	.L5
 168              	.LBB4:
 169              		.loc 1 155 0
 170              	@ 155 "../../os/ports/GCC/ARMCMx/chcore_v7m.c" 1
 171 0016 EFF30982 		mrs     r2, PSP
 172              	@ 0 "" 2
 173              	.LVL7:
 174              		.loc 1 159 0
 175              		.thumb
 176 001a A2F12003 		sub	r3, r2, #32
 177              	.LVL8:
 178              		.loc 1 160 0
 179              	@ 160 "../../os/ports/GCC/ARMCMx/chcore_v7m.c" 1
 180 001e 83F30988 		msr     PSP, r3
 181              	@ 0 "" 2
 182              		.loc 1 165 0
 183              		.thumb
 184 0022 40F20003 		movw	r3, #:lower16:rlist
 185              	.LVL9:
 186 0026 C0F20003 		movt	r3, #:upper16:rlist
 187 002a 9969     		ldr	r1, [r3, #24]
 188              		.loc 1 161 0
 189 002c 4FF08070 		mov	r0, #16777216
 190 0030 42F8040C 		str	r0, [r2, #-4]
 191              		.loc 1 165 0
 192 0034 91B1     		cbz	r1, .L6
 193              		.loc 1 165 0 is_stmt 0 discriminator 1
 194 0036 1968     		ldr	r1, [r3]
 195 0038 DB69     		ldr	r3, [r3, #28]
 196 003a 8968     		ldr	r1, [r1, #8]
 197 003c 9B68     		ldr	r3, [r3, #8]
 198 003e 9942     		cmp	r1, r3
 199 0040 94BF     		ite	ls
 200 0042 0023     		movls	r3, #0
 201 0044 0123     		movhi	r3, #1
 202 0046 9BB1     		cbz	r3, .L8
 203              	.L11:
 204              		.loc 1 167 0 is_stmt 1
 205 0048 40F20003 		movw	r3, #:lower16:_port_switch_from_isr
 206 004c C0F20003 		movt	r3, #:upper16:_port_switch_from_isr
 207 0050 42F8083C 		str	r3, [r2, #-8]
 208 0054 7047     		bx	lr
 209              	.LVL10:
 210              	.L5:
 211              	.LBE4:
 212              	.LBB5:
 213              		.loc 1 197 0
 214              	@ 197 "../../os/ports/GCC/ARMCMx/chcore_v7m.c" 1
 215 0056 83F31188 		msr     BASEPRI, r3
 216              	@ 0 "" 2
 217              		.thumb
 218 005a 7047     		bx	lr
 219              	.LVL11:
 220              	.L6:
 221              	.LBE5:
ARM GAS  /tmp/ccNCO5uG.s 			page 5


 222              	.LBB6:
 223              		.loc 1 165 0 discriminator 2
 224 005c 1968     		ldr	r1, [r3]
 225 005e DB69     		ldr	r3, [r3, #28]
 226 0060 8968     		ldr	r1, [r1, #8]
 227 0062 9B68     		ldr	r3, [r3, #8]
 228 0064 9942     		cmp	r1, r3
 229 0066 34BF     		ite	cc
 230 0068 0023     		movcc	r3, #0
 231 006a 0123     		movcs	r3, #1
 232 006c 002B     		cmp	r3, #0
 233 006e EBD1     		bne	.L11
 234              	.L8:
 235              		.loc 1 176 0
 236 0070 40F20003 		movw	r3, #:lower16:_port_exit_from_isr
 237 0074 C0F20003 		movt	r3, #:upper16:_port_exit_from_isr
 238 0078 42F8083C 		str	r3, [r2, #-8]
 239 007c 7047     		bx	lr
 240              	.LBE6:
 241              		.cfi_endproc
 242              	.LFE10:
 243              		.size	_port_irq_epilogue, .-_port_irq_epilogue
 244 007e 00BF     		.section	.text.SysTickVector,"ax",%progbits
 245              		.align	2
 246              		.p2align 4,,15
 247              		.global	SysTickVector
 248              		.thumb
 249              		.thumb_func
 250              		.type	SysTickVector, %function
 251              	SysTickVector:
 252              	.LFB7:
 253              		.loc 1 47 0
 254              		.cfi_startproc
 255              		@ args = 0, pretend = 0, frame = 0
 256              		@ frame_needed = 0, uses_anonymous_args = 0
 257 0000 08B5     		push	{r3, lr}
 258              		.cfi_def_cfa_offset 8
 259              		.cfi_offset 3, -8
 260              		.cfi_offset 14, -4
 261              	.LBB7:
 262              		.loc 1 51 0
 263 0002 2023     		movs	r3, #32
 264              	@ 51 "../../os/ports/GCC/ARMCMx/chcore_v7m.c" 1
 265 0004 83F31188 		msr     BASEPRI, r3
 266              	@ 0 "" 2
 267              		.thumb
 268              	.LBE7:
 269              		.loc 1 52 0
 270 0008 FFF7FEFF 		bl	chSysTimerHandlerI
 271              	.LVL12:
 272              	.LBB8:
 273              		.loc 1 53 0
 274 000c 0023     		movs	r3, #0
 275              	@ 53 "../../os/ports/GCC/ARMCMx/chcore_v7m.c" 1
 276 000e 83F31188 		msr     BASEPRI, r3
 277              	@ 0 "" 2
 278              		.thumb
ARM GAS  /tmp/ccNCO5uG.s 			page 6


 279              	.LBE8:
 280              		.loc 1 56 0
 281 0012 BDE80840 		pop	{r3, lr}
 282              		.loc 1 55 0
 283 0016 FFF7FEBF 		b	_port_irq_epilogue
 284              	.LVL13:
 285              		.cfi_endproc
 286              	.LFE7:
 287              		.size	SysTickVector, .-SysTickVector
 288 001a 00BFAFF3 		.section	.text._port_switch,"ax",%progbits
 288      0080
 289              		.align	2
 290              		.p2align 4,,15
 291              		.global	_port_switch
 292              		.thumb
 293              		.thumb_func
 294              		.type	_port_switch, %function
 295              	_port_switch:
 296              	.LFB12:
 297              		.loc 1 236 0
 298              		.cfi_startproc
 299              		@ Naked Function: prologue and epilogue provided by programmer.
 300              		@ args = 0, pretend = 0, frame = 0
 301              		@ frame_needed = 0, uses_anonymous_args = 0
 302              	.LVL14:
 303              		.loc 1 238 0
 304              	@ 238 "../../os/ports/GCC/ARMCMx/chcore_v7m.c" 1
 305 0000 2DE9F04F 		push    {r4, r5, r6, r7, r8, r9, r10, r11, lr}
 306              	@ 0 "" 2
 307              		.loc 1 244 0
 308              	@ 244 "../../os/ports/GCC/ARMCMx/chcore_v7m.c" 1
 309 0004 C1F80CD0 		str     sp, [r1, #12]                          
 310 0008 D0F80CD0 		ldr     sp, [r0, #12]
 311              	@ 0 "" 2
 312              		.loc 1 250 0
 313              	@ 250 "../../os/ports/GCC/ARMCMx/chcore_v7m.c" 1
 314 000c BDE8F08F 		pop     {r4, r5, r6, r7, r8, r9, r10, r11, pc}
 315              	@ 0 "" 2
 316              		.loc 1 252 0
 317              		.thumb
 318              		.cfi_endproc
 319              	.LFE12:
 320              		.size	_port_switch, .-_port_switch
 321              		.section	.text._port_thread_start,"ax",%progbits
 322              		.align	2
 323              		.p2align 4,,15
 324              		.global	_port_thread_start
 325              		.thumb
 326              		.thumb_func
 327              		.type	_port_thread_start, %function
 328              	_port_thread_start:
 329              	.LFB13:
 330              		.loc 1 259 0
 331              		.cfi_startproc
 332              		@ args = 0, pretend = 0, frame = 0
 333              		@ frame_needed = 0, uses_anonymous_args = 0
 334              		@ link register save eliminated.
ARM GAS  /tmp/ccNCO5uG.s 			page 7


 335              	.LBB9:
 336              		.loc 1 261 0
 337 0000 0023     		movs	r3, #0
 338              	@ 261 "../../os/ports/GCC/ARMCMx/chcore_v7m.c" 1
 339 0002 83F31188 		msr     BASEPRI, r3
 340              	@ 0 "" 2
 341              		.thumb
 342              	.LBE9:
 343              		.loc 1 262 0
 344              	@ 262 "../../os/ports/GCC/ARMCMx/chcore_v7m.c" 1
 345 0006 2846     		mov     r0, r5                                 
 346 0008 A047     		blx     r4                                     
 347 000a FFF7FEFF 		bl      chThdExit
 348              	@ 0 "" 2
 349              		.thumb
 350 000e 7047     		bx	lr
 351              		.cfi_endproc
 352              	.LFE13:
 353              		.size	_port_thread_start, .-_port_thread_start
 354              		.text
 355              	.Letext0:
 356              		.file 2 "/usr/include/newlib/machine/_default_types.h"
 357              		.file 3 "/usr/include/newlib/stdint.h"
 358              		.file 4 "../../os/ports/GCC/ARMCMx/chtypes.h"
 359              		.file 5 "../../os/kernel/include/chlists.h"
 360              		.file 6 "../../os/kernel/include/chthreads.h"
 361              		.file 7 "../../os/ports/GCC/ARMCMx/chcore_v7m.h"
 362              		.file 8 "../../os/ports/common/ARMCMx/nvic.h"
 363              		.file 9 "../../os/kernel/include/chschd.h"
 364              		.file 10 "../../os/kernel/include/chmtx.h"
 365              		.file 11 "../../os/kernel/include/chsys.h"
