ARM GAS  /tmp/cc4Eos1X.s 			page 1


   1              		.syntax unified
   2              		.cpu cortex-m3
   3              		.fpu softvfp
   4              		.eabi_attribute 20, 1
   5              		.eabi_attribute 21, 1
   6              		.eabi_attribute 23, 3
   7              		.eabi_attribute 24, 1
   8              		.eabi_attribute 25, 1
   9              		.eabi_attribute 26, 1
  10              		.eabi_attribute 30, 2
  11              		.eabi_attribute 34, 1
  12              		.eabi_attribute 18, 4
  13              		.thumb
  14              		.file	"chheap.c"
  15              		.text
  16              	.Ltext0:
  17              		.cfi_sections	.debug_frame
  18              		.section	.text._heap_init,"ax",%progbits
  19              		.align	2
  20              		.p2align 4,,15
  21              		.global	_heap_init
  22              		.thumb
  23              		.thumb_func
  24              		.type	_heap_init, %function
  25              	_heap_init:
  26              	.LFB7:
  27              		.file 1 "../../os/kernel/src/chheap.c"
  28              		.loc 1 75 0
  29              		.cfi_startproc
  30              		@ args = 0, pretend = 0, frame = 0
  31              		@ frame_needed = 0, uses_anonymous_args = 0
  32              		@ link register save eliminated.
  33              		.loc 1 76 0
  34 0000 40F20003 		movw	r3, #:lower16:.LANCHOR0
  35 0004 C0F20003 		movt	r3, #:upper16:.LANCHOR0
  36 0008 40F20002 		movw	r2, #:lower16:chCoreAlloc
  37              		.loc 1 77 0
  38 000c 0021     		movs	r1, #0
  39              		.loc 1 76 0
  40 000e C0F20002 		movt	r2, #:upper16:chCoreAlloc
  41              		.loc 1 80 0
  42 0012 03F11000 		add	r0, r3, #16
  43              		.loc 1 76 0
  44 0016 1A60     		str	r2, [r3]
  45              		.loc 1 77 0
  46 0018 9960     		str	r1, [r3, #8]
  47              		.loc 1 78 0
  48 001a D960     		str	r1, [r3, #12]
  49              		.loc 1 80 0
  50 001c FFF7FEBF 		b	chMtxInit
  51              	.LVL0:
  52              		.cfi_endproc
  53              	.LFE7:
  54              		.size	_heap_init, .-_heap_init
  55              		.section	.text.chHeapInit,"ax",%progbits
  56              		.align	2
  57              		.p2align 4,,15
ARM GAS  /tmp/cc4Eos1X.s 			page 2


  58              		.global	chHeapInit
  59              		.thumb
  60              		.thumb_func
  61              		.type	chHeapInit, %function
  62              	chHeapInit:
  63              	.LFB8:
  64              		.loc 1 99 0
  65              		.cfi_startproc
  66              		@ args = 0, pretend = 0, frame = 0
  67              		@ frame_needed = 0, uses_anonymous_args = 0
  68              		@ link register save eliminated.
  69              	.LVL1:
  70              		.loc 1 104 0
  71 0000 0023     		movs	r3, #0
  72              		.loc 1 108 0
  73 0002 083A     		subs	r2, r2, #8
  74              	.LVL2:
  75              		.loc 1 105 0
  76 0004 8160     		str	r1, [r0, #8]
  77              		.loc 1 104 0
  78 0006 0360     		str	r3, [r0]
  79              	.LVL3:
  80              		.loc 1 106 0
  81 0008 C360     		str	r3, [r0, #12]
  82              		.loc 1 110 0
  83 000a 1030     		adds	r0, r0, #16
  84              	.LVL4:
  85              		.loc 1 108 0
  86 000c 4A60     		str	r2, [r1, #4]
  87              		.loc 1 107 0
  88 000e 0B60     		str	r3, [r1]
  89              		.loc 1 110 0
  90 0010 FFF7FEBF 		b	chMtxInit
  91              	.LVL5:
  92              		.cfi_endproc
  93              	.LFE8:
  94              		.size	chHeapInit, .-chHeapInit
  95 0014 AFF30080 		.section	.text.chHeapAlloc,"ax",%progbits
  95      AFF30080 
  95      AFF30080 
  96              		.align	2
  97              		.p2align 4,,15
  98              		.global	chHeapAlloc
  99              		.thumb
 100              		.thumb_func
 101              		.type	chHeapAlloc, %function
 102              	chHeapAlloc:
 103              	.LFB9:
 104              		.loc 1 132 0
 105              		.cfi_startproc
 106              		@ args = 0, pretend = 0, frame = 0
 107              		@ frame_needed = 0, uses_anonymous_args = 0
 108              	.LVL6:
 109 0000 F8B5     		push	{r3, r4, r5, r6, r7, lr}
 110              		.cfi_def_cfa_offset 24
 111              		.cfi_offset 3, -24
 112              		.cfi_offset 4, -20
ARM GAS  /tmp/cc4Eos1X.s 			page 3


 113              		.cfi_offset 5, -16
 114              		.cfi_offset 6, -12
 115              		.cfi_offset 7, -8
 116              		.cfi_offset 14, -4
 117              		.loc 1 136 0
 118 0002 40F20006 		movw	r6, #:lower16:.LANCHOR0
 119 0006 C0F20006 		movt	r6, #:upper16:.LANCHOR0
 120 000a 0028     		cmp	r0, #0
 121 000c 18BF     		it	ne
 122 000e 0646     		movne	r6, r0
 123              	.LVL7:
 124              		.loc 1 138 0
 125 0010 0731     		adds	r1, r1, #7
 126              	.LVL8:
 127              		.loc 1 140 0
 128 0012 06F11000 		add	r0, r6, #16
 129              		.loc 1 138 0
 130 0016 21F00705 		bic	r5, r1, #7
 131              	.LVL9:
 132              		.loc 1 139 0
 133 001a 06F10804 		add	r4, r6, #8
 134              	.LVL10:
 135              		.loc 1 140 0
 136 001e FFF7FEFF 		bl	chMtxLock
 137              	.LVL11:
 138              		.loc 1 142 0
 139 0022 03E0     		b	.L5
 140              	.LVL12:
 141              	.L10:
 142              		.loc 1 144 0
 143 0024 5A68     		ldr	r2, [r3, #4]
 144 0026 9542     		cmp	r5, r2
 145 0028 11D9     		bls	.L18
 146 002a 1C46     		mov	r4, r3
 147              	.LVL13:
 148              	.L5:
 149              		.loc 1 142 0 discriminator 1
 150 002c 2368     		ldr	r3, [r4]
 151              	.LVL14:
 152 002e 002B     		cmp	r3, #0
 153 0030 F8D1     		bne	.L10
 154              		.loc 1 167 0
 155 0032 FFF7FEFF 		bl	chMtxUnlock
 156              	.LVL15:
 157              		.loc 1 171 0
 158 0036 3368     		ldr	r3, [r6]
 159 0038 1BB3     		cbz	r3, .L12
 160              		.loc 1 172 0
 161 003a 05F10800 		add	r0, r5, #8
 162 003e 9847     		blx	r3
 163              	.LVL16:
 164              		.loc 1 173 0
 165 0040 F8B1     		cbz	r0, .L12
 166              		.loc 1 174 0
 167 0042 0660     		str	r6, [r0]
 168              		.loc 1 175 0
 169 0044 4560     		str	r5, [r0, #4]
ARM GAS  /tmp/cc4Eos1X.s 			page 4


 170              	.LVL17:
 171              		.loc 1 177 0
 172 0046 00F10804 		add	r4, r0, #8
 173              	.LVL18:
 174              	.L9:
 175              		.loc 1 181 0
 176 004a 2046     		mov	r0, r4
 177 004c F8BD     		pop	{r3, r4, r5, r6, r7, pc}
 178              	.LVL19:
 179              	.L18:
 180              		.loc 1 145 0
 181 004e 05F10801 		add	r1, r5, #8
 182 0052 9142     		cmp	r1, r2
 183 0054 08D9     		bls	.L7
 184              		.loc 1 149 0
 185 0056 1A68     		ldr	r2, [r3]
 186 0058 2260     		str	r2, [r4]
 187              	.L8:
 188              		.loc 1 159 0
 189 005a 1C46     		mov	r4, r3
 190              	.LVL20:
 191 005c 44F8086B 		str	r6, [r4], #8
 192              		.loc 1 161 0
 193 0060 FFF7FEFF 		bl	chMtxUnlock
 194              	.LVL21:
 195              		.loc 1 181 0
 196 0064 2046     		mov	r0, r4
 197 0066 F8BD     		pop	{r3, r4, r5, r6, r7, pc}
 198              	.LVL22:
 199              	.L7:
 200              		.loc 1 155 0
 201 0068 4FF6F870 		movw	r0, #65528
 202 006c CFF6FF70 		movt	r0, 65535
 203              		.loc 1 154 0
 204 0070 1F68     		ldr	r7, [r3]
 205              		.loc 1 155 0
 206 0072 401B     		subs	r0, r0, r5
 207 0074 1044     		add	r0, r0, r2
 208              		.loc 1 153 0
 209 0076 5A18     		adds	r2, r3, r1
 210              	.LVL23:
 211              		.loc 1 154 0
 212 0078 5F50     		str	r7, [r3, r1]
 213              		.loc 1 155 0
 214 007a 5060     		str	r0, [r2, #4]
 215              		.loc 1 156 0
 216 007c 2260     		str	r2, [r4]
 217              		.loc 1 157 0
 218 007e 5D60     		str	r5, [r3, #4]
 219 0080 EBE7     		b	.L8
 220              	.LVL24:
 221              	.L12:
 222              		.loc 1 180 0
 223 0082 0024     		movs	r4, #0
 224              	.LVL25:
 225 0084 E1E7     		b	.L9
 226              		.cfi_endproc
ARM GAS  /tmp/cc4Eos1X.s 			page 5


 227              	.LFE9:
 228              		.size	chHeapAlloc, .-chHeapAlloc
 229 0086 00BFAFF3 		.section	.text.chHeapFree,"ax",%progbits
 229      0080AFF3 
 229      0080
 230              		.align	2
 231              		.p2align 4,,15
 232              		.global	chHeapFree
 233              		.thumb
 234              		.thumb_func
 235              		.type	chHeapFree, %function
 236              	chHeapFree:
 237              	.LFB10:
 238              		.loc 1 194 0
 239              		.cfi_startproc
 240              		@ args = 0, pretend = 0, frame = 0
 241              		@ frame_needed = 0, uses_anonymous_args = 0
 242              	.LVL26:
 243 0000 70B5     		push	{r4, r5, r6, lr}
 244              		.cfi_def_cfa_offset 16
 245              		.cfi_offset 4, -16
 246              		.cfi_offset 5, -12
 247              		.cfi_offset 6, -8
 248              		.cfi_offset 14, -4
 249              		.loc 1 194 0
 250 0002 0646     		mov	r6, r0
 251              		.loc 1 201 0
 252 0004 50F8080C 		ldr	r0, [r0, #-8]
 253              	.LVL27:
 254              		.loc 1 200 0
 255 0008 A6F10804 		sub	r4, r6, #8
 256              	.LVL28:
 257              		.loc 1 202 0
 258 000c 00F10805 		add	r5, r0, #8
 259              	.LVL29:
 260              		.loc 1 203 0
 261 0010 1030     		adds	r0, r0, #16
 262              	.LVL30:
 263 0012 FFF7FEFF 		bl	chMtxLock
 264              	.LVL31:
 265              		.loc 1 202 0
 266 0016 2B46     		mov	r3, r5
 267              	.LVL32:
 268              	.L26:
 269              		.loc 1 210 0
 270 0018 AB42     		cmp	r3, r5
 271 001a 04D0     		beq	.L20
 272              	.L31:
 273              		.loc 1 210 0 is_stmt 0 discriminator 2
 274 001c A342     		cmp	r3, r4
 275 001e 02D3     		bcc	.L20
 276 0020 1B68     		ldr	r3, [r3]
 277              	.LVL33:
 278              		.loc 1 210 0
 279 0022 AB42     		cmp	r3, r5
 280 0024 FAD1     		bne	.L31
 281              	.L20:
ARM GAS  /tmp/cc4Eos1X.s 			page 6


 282              		.loc 1 211 0 is_stmt 1 discriminator 1
 283 0026 1A68     		ldr	r2, [r3]
 284              		.loc 1 210 0 discriminator 1
 285 0028 1AB1     		cbz	r2, .L22
 286              		.loc 1 211 0
 287 002a 9442     		cmp	r4, r2
 288 002c 01D3     		bcc	.L22
 289 002e 1346     		mov	r3, r2
 290              	.LVL34:
 291              		.loc 1 229 0
 292 0030 F2E7     		b	.L26
 293              	.LVL35:
 294              	.L22:
 295              		.loc 1 216 0
 296 0032 56F8041C 		ldr	r1, [r6, #-4]
 297              		.loc 1 213 0
 298 0036 46F8082C 		str	r2, [r6, #-8]
 299              		.loc 1 214 0
 300 003a 1C60     		str	r4, [r3]
 301              		.loc 1 216 0
 302 003c 01F10802 		add	r2, r1, #8
 303 0040 56F8085C 		ldr	r5, [r6, #-8]
 304              	.LVL36:
 305 0044 A018     		adds	r0, r4, r2
 306 0046 A842     		cmp	r0, r5
 307 0048 09D0     		beq	.L32
 308              		.loc 1 221 0
 309 004a 5A68     		ldr	r2, [r3, #4]
 310 004c 02F10801 		add	r1, r2, #8
 311 0050 1944     		add	r1, r1, r3
 312 0052 8C42     		cmp	r4, r1
 313 0054 11D0     		beq	.L33
 314              	.L25:
 315              		.loc 1 233 0
 316 0056 BDE87040 		pop	{r4, r5, r6, lr}
 317              	.LVL37:
 318              		.loc 1 231 0
 319 005a FFF7FEBF 		b	chMtxUnlock
 320              	.LVL38:
 321              	.L32:
 322              		.loc 1 218 0
 323 005e 4068     		ldr	r0, [r0, #4]
 324              		.loc 1 219 0
 325 0060 A258     		ldr	r2, [r4, r2]
 326              		.loc 1 218 0
 327 0062 0144     		add	r1, r1, r0
 328 0064 0831     		adds	r1, r1, #8
 329 0066 46F8041C 		str	r1, [r6, #-4]
 330              		.loc 1 219 0
 331 006a 46F8082C 		str	r2, [r6, #-8]
 332              		.loc 1 221 0
 333 006e 5A68     		ldr	r2, [r3, #4]
 334 0070 02F10801 		add	r1, r2, #8
 335 0074 1944     		add	r1, r1, r3
 336 0076 8C42     		cmp	r4, r1
 337 0078 EDD1     		bne	.L25
 338              	.L33:
ARM GAS  /tmp/cc4Eos1X.s 			page 7


 339              		.loc 1 223 0
 340 007a 56F8040C 		ldr	r0, [r6, #-4]
 341              		.loc 1 224 0
 342 007e 56F8081C 		ldr	r1, [r6, #-8]
 343              		.loc 1 223 0
 344 0082 0244     		add	r2, r2, r0
 345 0084 0832     		adds	r2, r2, #8
 346              		.loc 1 224 0
 347 0086 83E80600 		stmia	r3, {r1, r2}
 348              		.loc 1 233 0
 349 008a BDE87040 		pop	{r4, r5, r6, lr}
 350              	.LVL39:
 351              		.loc 1 231 0
 352 008e FFF7FEBF 		b	chMtxUnlock
 353              	.LVL40:
 354              		.cfi_endproc
 355              	.LFE10:
 356              		.size	chHeapFree, .-chHeapFree
 357 0092 00BFAFF3 		.section	.text.chHeapStatus,"ax",%progbits
 357      0080AFF3 
 357      0080AFF3 
 357      0080
 358              		.align	2
 359              		.p2align 4,,15
 360              		.global	chHeapStatus
 361              		.thumb
 362              		.thumb_func
 363              		.type	chHeapStatus, %function
 364              	chHeapStatus:
 365              	.LFB11:
 366              		.loc 1 250 0
 367              		.cfi_startproc
 368              		@ args = 0, pretend = 0, frame = 0
 369              		@ frame_needed = 0, uses_anonymous_args = 0
 370              	.LVL41:
 371 0000 38B5     		push	{r3, r4, r5, lr}
 372              		.cfi_def_cfa_offset 16
 373              		.cfi_offset 3, -16
 374              		.cfi_offset 4, -12
 375              		.cfi_offset 5, -8
 376              		.cfi_offset 14, -4
 377              		.loc 1 255 0
 378 0002 40F20003 		movw	r3, #:lower16:.LANCHOR0
 379 0006 C0F20003 		movt	r3, #:upper16:.LANCHOR0
 380 000a 0028     		cmp	r0, #0
 381 000c 14BF     		ite	ne
 382 000e 0446     		movne	r4, r0
 383 0010 1C46     		moveq	r4, r3
 384              	.LVL42:
 385              		.loc 1 257 0
 386 0012 04F11000 		add	r0, r4, #16
 387              		.loc 1 250 0
 388 0016 0D46     		mov	r5, r1
 389              		.loc 1 257 0
 390 0018 FFF7FEFF 		bl	chMtxLock
 391              	.LVL43:
 392              		.loc 1 260 0
ARM GAS  /tmp/cc4Eos1X.s 			page 8


 393 001c A368     		ldr	r3, [r4, #8]
 394 001e 6BB1     		cbz	r3, .L40
 395              		.loc 1 259 0
 396 0020 0022     		movs	r2, #0
 397              		.loc 1 260 0
 398 0022 1446     		mov	r4, r2
 399              	.LVL44:
 400              	.L37:
 401              		.loc 1 261 0 discriminator 2
 402 0024 5868     		ldr	r0, [r3, #4]
 403              		.loc 1 260 0 discriminator 2
 404 0026 1B68     		ldr	r3, [r3]
 405 0028 0134     		adds	r4, r4, #1
 406              	.LVL45:
 407              		.loc 1 261 0 discriminator 2
 408 002a 0244     		add	r2, r2, r0
 409              	.LVL46:
 410              		.loc 1 260 0 discriminator 2
 411 002c 002B     		cmp	r3, #0
 412 002e F9D1     		bne	.L37
 413              	.LVL47:
 414              	.L36:
 415              		.loc 1 262 0
 416 0030 05B1     		cbz	r5, .L38
 417              		.loc 1 263 0
 418 0032 2A60     		str	r2, [r5]
 419              	.L38:
 420              		.loc 1 265 0
 421 0034 FFF7FEFF 		bl	chMtxUnlock
 422              	.LVL48:
 423              		.loc 1 267 0
 424 0038 2046     		mov	r0, r4
 425 003a 38BD     		pop	{r3, r4, r5, pc}
 426              	.LVL49:
 427              	.L40:
 428              		.loc 1 259 0
 429 003c 1A46     		mov	r2, r3
 430              		.loc 1 260 0
 431 003e 1C46     		mov	r4, r3
 432              	.LVL50:
 433 0040 F6E7     		b	.L36
 434              		.cfi_endproc
 435              	.LFE11:
 436              		.size	chHeapStatus, .-chHeapStatus
 437 0042 00BFAFF3 		.section	.bss.default_heap,"aw",%nobits
 437      0080AFF3 
 437      0080AFF3 
 437      0080
 438              		.align	3
 439              		.set	.LANCHOR0,. + 0
 440              		.type	default_heap, %object
 441              		.size	default_heap, 32
 442              	default_heap:
 443 0000 00000000 		.space	32
 443      00000000 
 443      00000000 
 443      00000000 
ARM GAS  /tmp/cc4Eos1X.s 			page 9


 443      00000000 
 444              		.text
 445              	.Letext0:
 446              		.file 2 "/usr/lib/gcc/arm-none-eabi/4.8.2/include/stddef.h"
 447              		.file 3 "/usr/include/newlib/machine/_default_types.h"
 448              		.file 4 "/usr/include/newlib/stdint.h"
 449              		.file 5 "../../os/ports/GCC/ARMCMx/chtypes.h"
 450              		.file 6 "../../os/kernel/include/chlists.h"
 451              		.file 7 "../../os/kernel/include/chthreads.h"
 452              		.file 8 "../../os/ports/GCC/ARMCMx/chcore_v7m.h"
 453              		.file 9 "../../os/kernel/include/chmtx.h"
 454              		.file 10 "../../os/kernel/include/chmemcore.h"
 455              		.file 11 "../../os/kernel/include/chheap.h"
