ARM GAS  /tmp/cc8Q9ZB2.s 			page 1


   1              		.syntax unified
   2              		.cpu cortex-m3
   3              		.fpu softvfp
   4              		.eabi_attribute 20, 1
   5              		.eabi_attribute 21, 1
   6              		.eabi_attribute 23, 3
   7              		.eabi_attribute 24, 1
   8              		.eabi_attribute 25, 1
   9              		.eabi_attribute 26, 1
  10              		.eabi_attribute 30, 2
  11              		.eabi_attribute 34, 1
  12              		.eabi_attribute 18, 4
  13              		.thumb
  14              		.file	"chmempools.c"
  15              		.text
  16              	.Ltext0:
  17              		.cfi_sections	.debug_frame
  18              		.section	.text.chPoolInit,"ax",%progbits
  19              		.align	2
  20              		.p2align 4,,15
  21              		.global	chPoolInit
  22              		.thumb
  23              		.thumb_func
  24              		.type	chPoolInit, %function
  25              	chPoolInit:
  26              	.LFB7:
  27              		.file 1 "../../os/kernel/src/chmempools.c"
  28              		.loc 1 61 0
  29              		.cfi_startproc
  30              		@ args = 0, pretend = 0, frame = 0
  31              		@ frame_needed = 0, uses_anonymous_args = 0
  32              		@ link register save eliminated.
  33              	.LVL0:
  34              		.loc 1 66 0
  35 0000 0731     		adds	r1, r1, #7
  36              	.LVL1:
  37 0002 21F00701 		bic	r1, r1, #7
  38              	.LVL2:
  39              		.loc 1 65 0
  40 0006 0023     		movs	r3, #0
  41              		.loc 1 66 0
  42 0008 4160     		str	r1, [r0, #4]
  43              		.loc 1 67 0
  44 000a 8260     		str	r2, [r0, #8]
  45              		.loc 1 65 0
  46 000c 0360     		str	r3, [r0]
  47 000e 7047     		bx	lr
  48              		.cfi_endproc
  49              	.LFE7:
  50              		.size	chPoolInit, .-chPoolInit
  51              		.section	.text.chPoolAllocI,"ax",%progbits
  52              		.align	2
  53              		.p2align 4,,15
  54              		.global	chPoolAllocI
  55              		.thumb
  56              		.thumb_func
  57              		.type	chPoolAllocI, %function
ARM GAS  /tmp/cc8Q9ZB2.s 			page 2


  58              	chPoolAllocI:
  59              	.LFB8:
  60              		.loc 1 79 0
  61              		.cfi_startproc
  62              		@ args = 0, pretend = 0, frame = 0
  63              		@ frame_needed = 0, uses_anonymous_args = 0
  64              	.LVL3:
  65 0000 08B5     		push	{r3, lr}
  66              		.cfi_def_cfa_offset 8
  67              		.cfi_offset 3, -8
  68              		.cfi_offset 14, -4
  69              		.loc 1 79 0
  70 0002 0346     		mov	r3, r0
  71              		.loc 1 85 0
  72 0004 0068     		ldr	r0, [r0]
  73              	.LVL4:
  74 0006 10B1     		cbz	r0, .L3
  75              		.loc 1 86 0
  76 0008 0268     		ldr	r2, [r0]
  77 000a 1A60     		str	r2, [r3]
  78 000c 08BD     		pop	{r3, pc}
  79              	.LVL5:
  80              	.L3:
  81              		.loc 1 87 0
  82 000e 9A68     		ldr	r2, [r3, #8]
  83 0010 0AB1     		cbz	r2, .L4
  84              		.loc 1 88 0
  85 0012 5868     		ldr	r0, [r3, #4]
  86              	.LVL6:
  87 0014 9047     		blx	r2
  88              	.LVL7:
  89              	.L4:
  90              		.loc 1 90 0
  91 0016 08BD     		pop	{r3, pc}
  92              		.cfi_endproc
  93              	.LFE8:
  94              		.size	chPoolAllocI, .-chPoolAllocI
  95 0018 AFF30080 		.section	.text.chPoolAlloc,"ax",%progbits
  95      AFF30080 
  96              		.align	2
  97              		.p2align 4,,15
  98              		.global	chPoolAlloc
  99              		.thumb
 100              		.thumb_func
 101              		.type	chPoolAlloc, %function
 102              	chPoolAlloc:
 103              	.LFB9:
 104              		.loc 1 101 0
 105              		.cfi_startproc
 106              		@ args = 0, pretend = 0, frame = 0
 107              		@ frame_needed = 0, uses_anonymous_args = 0
 108              	.LVL8:
 109 0000 08B5     		push	{r3, lr}
 110              		.cfi_def_cfa_offset 8
 111              		.cfi_offset 3, -8
 112              		.cfi_offset 14, -4
 113              		.loc 1 101 0
ARM GAS  /tmp/cc8Q9ZB2.s 			page 3


 114 0002 0246     		mov	r2, r0
 115              	.LBB10:
 116              		.loc 1 104 0
 117 0004 2023     		movs	r3, #32
 118              	@ 104 "../../os/kernel/src/chmempools.c" 1
 119 0006 83F31188 		msr     BASEPRI, r3
 120              	@ 0 "" 2
 121              	.LVL9:
 122              		.thumb
 123              	.LBE10:
 124              	.LBB11:
 125              	.LBB12:
 126              		.loc 1 85 0
 127 000a 0068     		ldr	r0, [r0]
 128              	.LVL10:
 129 000c 28B1     		cbz	r0, .L10
 130              		.loc 1 86 0
 131 000e 0368     		ldr	r3, [r0]
 132 0010 1360     		str	r3, [r2]
 133              	.L11:
 134              	.LBE12:
 135              	.LBE11:
 136              	.LBB14:
 137              		.loc 1 106 0
 138 0012 0023     		movs	r3, #0
 139              	@ 106 "../../os/kernel/src/chmempools.c" 1
 140 0014 83F31188 		msr     BASEPRI, r3
 141              	@ 0 "" 2
 142              		.thumb
 143              	.LBE14:
 144              		.loc 1 108 0
 145 0018 08BD     		pop	{r3, pc}
 146              	.L10:
 147              	.LBB15:
 148              	.LBB13:
 149              		.loc 1 87 0
 150 001a 9368     		ldr	r3, [r2, #8]
 151 001c 002B     		cmp	r3, #0
 152 001e F8D0     		beq	.L11
 153              		.loc 1 88 0
 154 0020 5068     		ldr	r0, [r2, #4]
 155              	.LVL11:
 156 0022 9847     		blx	r3
 157              	.LVL12:
 158              	.LBE13:
 159              	.LBE15:
 160              	.LBB16:
 161              		.loc 1 106 0
 162 0024 0023     		movs	r3, #0
 163              	@ 106 "../../os/kernel/src/chmempools.c" 1
 164 0026 83F31188 		msr     BASEPRI, r3
 165              	@ 0 "" 2
 166              		.thumb
 167              	.LBE16:
 168              		.loc 1 108 0
 169 002a 08BD     		pop	{r3, pc}
 170              		.cfi_endproc
ARM GAS  /tmp/cc8Q9ZB2.s 			page 4


 171              	.LFE9:
 172              		.size	chPoolAlloc, .-chPoolAlloc
 173 002c AFF30080 		.section	.text.chPoolFreeI,"ax",%progbits
 174              		.align	2
 175              		.p2align 4,,15
 176              		.global	chPoolFreeI
 177              		.thumb
 178              		.thumb_func
 179              		.type	chPoolFreeI, %function
 180              	chPoolFreeI:
 181              	.LFB10:
 182              		.loc 1 122 0
 183              		.cfi_startproc
 184              		@ args = 0, pretend = 0, frame = 0
 185              		@ frame_needed = 0, uses_anonymous_args = 0
 186              		@ link register save eliminated.
 187              	.LVL13:
 188              		.loc 1 129 0
 189 0000 0368     		ldr	r3, [r0]
 190              	.LVL14:
 191 0002 0B60     		str	r3, [r1]
 192              		.loc 1 130 0
 193 0004 0160     		str	r1, [r0]
 194 0006 7047     		bx	lr
 195              		.cfi_endproc
 196              	.LFE10:
 197              		.size	chPoolFreeI, .-chPoolFreeI
 198 0008 AFF30080 		.section	.text.chPoolFree,"ax",%progbits
 198      AFF30080 
 199              		.align	2
 200              		.p2align 4,,15
 201              		.global	chPoolFree
 202              		.thumb
 203              		.thumb_func
 204              		.type	chPoolFree, %function
 205              	chPoolFree:
 206              	.LFB11:
 207              		.loc 1 145 0
 208              		.cfi_startproc
 209              		@ args = 0, pretend = 0, frame = 0
 210              		@ frame_needed = 0, uses_anonymous_args = 0
 211              		@ link register save eliminated.
 212              	.LVL15:
 213              	.LBB17:
 214              		.loc 1 147 0
 215 0000 2023     		movs	r3, #32
 216              	@ 147 "../../os/kernel/src/chmempools.c" 1
 217 0002 83F31188 		msr     BASEPRI, r3
 218              	@ 0 "" 2
 219              	.LVL16:
 220              		.thumb
 221              	.LBE17:
 222              	.LBB18:
 223              	.LBB19:
 224              		.loc 1 129 0
 225 0006 0268     		ldr	r2, [r0]
 226              	.LBE19:
ARM GAS  /tmp/cc8Q9ZB2.s 			page 5


 227              	.LBE18:
 228              	.LBB21:
 229              		.loc 1 149 0
 230 0008 0023     		movs	r3, #0
 231              	.LBE21:
 232              	.LBB22:
 233              	.LBB20:
 234              		.loc 1 129 0
 235 000a 0A60     		str	r2, [r1]
 236              		.loc 1 130 0
 237 000c 0160     		str	r1, [r0]
 238              	.LBE20:
 239              	.LBE22:
 240              	.LBB23:
 241              		.loc 1 149 0
 242              	@ 149 "../../os/kernel/src/chmempools.c" 1
 243 000e 83F31188 		msr     BASEPRI, r3
 244              	@ 0 "" 2
 245              		.thumb
 246 0012 7047     		bx	lr
 247              	.LBE23:
 248              		.cfi_endproc
 249              	.LFE11:
 250              		.size	chPoolFree, .-chPoolFree
 251 0014 AFF30080 		.text
 251      AFF30080 
 251      AFF30080 
 252              	.Letext0:
 253              		.file 2 "/usr/lib/gcc/arm-none-eabi/4.8.2/include/stddef.h"
 254              		.file 3 "/usr/include/newlib/machine/_default_types.h"
 255              		.file 4 "/usr/include/newlib/stdint.h"
 256              		.file 5 "../../os/kernel/include/chmemcore.h"
 257              		.file 6 "../../os/kernel/include/chmempools.h"
