ARM GAS  /tmp/ccIRuLP0.s 			page 1


   1              		.syntax unified
   2              		.cpu cortex-m3
   3              		.fpu softvfp
   4              		.eabi_attribute 20, 1
   5              		.eabi_attribute 21, 1
   6              		.eabi_attribute 23, 3
   7              		.eabi_attribute 24, 1
   8              		.eabi_attribute 25, 1
   9              		.eabi_attribute 26, 1
  10              		.eabi_attribute 30, 2
  11              		.eabi_attribute 34, 1
  12              		.eabi_attribute 18, 4
  13              		.thumb
  14              		.file	"chthreads.c"
  15              		.text
  16              	.Ltext0:
  17              		.cfi_sections	.debug_frame
  18              		.section	.text._thread_init,"ax",%progbits
  19              		.align	2
  20              		.p2align 4,,15
  21              		.global	_thread_init
  22              		.thumb
  23              		.thumb_func
  24              		.type	_thread_init, %function
  25              	_thread_init:
  26              	.LFB7:
  27              		.file 1 "../../os/kernel/src/chthreads.c"
  28              		.loc 1 76 0
  29              		.cfi_startproc
  30              		@ args = 0, pretend = 0, frame = 0
  31              		@ frame_needed = 0, uses_anonymous_args = 0
  32              		@ link register save eliminated.
  33              	.LVL0:
  34 0000 2DE9F001 		push	{r4, r5, r6, r7, r8}
  35              		.cfi_def_cfa_offset 20
  36              		.cfi_offset 4, -20
  37              		.cfi_offset 5, -16
  38              		.cfi_offset 6, -12
  39              		.cfi_offset 7, -8
  40              		.cfi_offset 8, -4
  41              		.loc 1 96 0
  42 0004 40F20002 		movw	r2, #:lower16:rlist
  43 0008 C0F20002 		movt	r2, #:upper16:rlist
  44 000c 5569     		ldr	r5, [r2, #20]
  45              		.loc 1 80 0
  46 000e 0024     		movs	r4, #0
  47              		.loc 1 102 0
  48 0010 00F12C06 		add	r6, r0, #44
  49              		.loc 1 79 0
  50 0014 4FF00208 		mov	r8, #2
  51              		.loc 1 99 0
  52 0018 00F12807 		add	r7, r0, #40
  53              		.loc 1 92 0
  54 001c 4FF0010C 		mov	ip, #1
  55              		.loc 1 96 0
  56 0020 4561     		str	r5, [r0, #20]
  57 0022 0261     		str	r2, [r0, #16]
ARM GAS  /tmp/ccIRuLP0.s 			page 2


  58              		.loc 1 78 0
  59 0024 8160     		str	r1, [r0, #8]
  60              		.loc 1 79 0
  61 0026 80F81C80 		strb	r8, [r0, #28]
  62              		.loc 1 80 0
  63 002a 4477     		strb	r4, [r0, #29]
  64              		.loc 1 83 0
  65 002c C463     		str	r4, [r0, #60]
  66              		.loc 1 86 0
  67 002e 8463     		str	r4, [r0, #56]
  68              		.loc 1 89 0
  69 0030 0462     		str	r4, [r0, #32]
  70              		.loc 1 95 0
  71 0032 8461     		str	r4, [r0, #24]
  72              		.loc 1 82 0
  73 0034 0164     		str	r1, [r0, #64]
  74              		.loc 1 96 0
  75 0036 5061     		str	r0, [r2, #20]
  76              		.loc 1 92 0
  77 0038 80F81EC0 		strb	ip, [r0, #30]
  78              		.loc 1 96 0
  79 003c 2861     		str	r0, [r5, #16]
  80              		.loc 1 99 0
  81 003e 8762     		str	r7, [r0, #40]
  82              		.loc 1 102 0
  83 0040 0663     		str	r6, [r0, #48]
  84 0042 C662     		str	r6, [r0, #44]
  85              		.loc 1 111 0
  86 0044 BDE8F001 		pop	{r4, r5, r6, r7, r8}
  87 0048 7047     		bx	lr
  88              		.cfi_endproc
  89              	.LFE7:
  90              		.size	_thread_init, .-_thread_init
  91 004a 00BFAFF3 		.section	.text.chThdCreateI,"ax",%progbits
  91      0080
  92              		.align	2
  93              		.p2align 4,,15
  94              		.global	chThdCreateI
  95              		.thumb
  96              		.thumb_func
  97              		.type	chThdCreateI, %function
  98              	chThdCreateI:
  99              	.LFB8:
 100              		.loc 1 155 0
 101              		.cfi_startproc
 102              		@ args = 4, pretend = 0, frame = 0
 103              		@ frame_needed = 0, uses_anonymous_args = 0
 104              		@ link register save eliminated.
 105              	.LVL1:
 106 0000 2DE9F00F 		push	{r4, r5, r6, r7, r8, r9, r10, fp}
 107              		.cfi_def_cfa_offset 32
 108              		.cfi_offset 4, -32
 109              		.cfi_offset 5, -28
 110              		.cfi_offset 6, -24
 111              		.cfi_offset 7, -20
 112              		.cfi_offset 8, -16
 113              		.cfi_offset 9, -12
ARM GAS  /tmp/ccIRuLP0.s 			page 3


 114              		.cfi_offset 10, -8
 115              		.cfi_offset 11, -4
 116              	.LBB16:
 117              	.LBB17:
 118              		.loc 1 96 0
 119 0004 40F20005 		movw	r5, #:lower16:rlist
 120 0008 C0F20005 		movt	r5, #:upper16:rlist
 121              	.LBE17:
 122              	.LBE16:
 123              		.loc 1 164 0
 124 000c A1F1240C 		sub	ip, r1, #36
 125              	.LVL2:
 126              	.LBB21:
 127              	.LBB18:
 128              		.loc 1 96 0
 129 0010 D5F814B0 		ldr	fp, [r5, #20]
 130              	.LBE18:
 131              	.LBE21:
 132              		.loc 1 164 0
 133 0014 00EB0C07 		add	r7, r0, ip
 134 0018 0899     		ldr	r1, [sp, #32]
 135              	.LVL3:
 136 001a 40F20006 		movw	r6, #:lower16:_port_thread_start
 137 001e C760     		str	r7, [r0, #12]
 138 0020 C0F20006 		movt	r6, #:upper16:_port_thread_start
 139 0024 40F80C30 		str	r3, [r0, ip]
 140              	.LBB22:
 141              	.LBB19:
 142              		.loc 1 79 0
 143 0028 4FF0020A 		mov	r10, #2
 144              		.loc 1 80 0
 145 002c 0023     		movs	r3, #0
 146              	.LVL4:
 147              		.loc 1 92 0
 148 002e 4FF00109 		mov	r9, #1
 149              		.loc 1 99 0
 150 0032 00F12808 		add	r8, r0, #40
 151              		.loc 1 102 0
 152 0036 00F12C0C 		add	ip, r0, #44
 153              	.LVL5:
 154              	.LBE19:
 155              	.LBE22:
 156              		.loc 1 164 0
 157 003a 7960     		str	r1, [r7, #4]
 158 003c 3E62     		str	r6, [r7, #32]
 159              	.LVL6:
 160              	.LBB23:
 161              	.LBB20:
 162              		.loc 1 96 0
 163 003e 0561     		str	r5, [r0, #16]
 164 0040 C0F814B0 		str	fp, [r0, #20]
 165              		.loc 1 78 0
 166 0044 8260     		str	r2, [r0, #8]
 167              		.loc 1 79 0
 168 0046 80F81CA0 		strb	r10, [r0, #28]
 169              	.LVL7:
 170              		.loc 1 92 0
ARM GAS  /tmp/ccIRuLP0.s 			page 4


 171 004a 80F81E90 		strb	r9, [r0, #30]
 172              		.loc 1 96 0
 173 004e 6861     		str	r0, [r5, #20]
 174              		.loc 1 82 0
 175 0050 0264     		str	r2, [r0, #64]
 176              		.loc 1 80 0
 177 0052 4377     		strb	r3, [r0, #29]
 178              		.loc 1 83 0
 179 0054 C363     		str	r3, [r0, #60]
 180              		.loc 1 86 0
 181 0056 8363     		str	r3, [r0, #56]
 182              		.loc 1 89 0
 183 0058 0362     		str	r3, [r0, #32]
 184              		.loc 1 95 0
 185 005a 8361     		str	r3, [r0, #24]
 186              		.loc 1 96 0
 187 005c CBF81000 		str	r0, [fp, #16]
 188              		.loc 1 99 0
 189 0060 C0F82880 		str	r8, [r0, #40]
 190              		.loc 1 102 0
 191 0064 C0F830C0 		str	ip, [r0, #48]
 192 0068 C0F82CC0 		str	ip, [r0, #44]
 193              	.LBE20:
 194              	.LBE23:
 195              		.loc 1 166 0
 196 006c BDE8F00F 		pop	{r4, r5, r6, r7, r8, r9, r10, fp}
 197              	.LVL8:
 198 0070 7047     		bx	lr
 199              		.cfi_endproc
 200              	.LFE8:
 201              		.size	chThdCreateI, .-chThdCreateI
 202 0072 00BFAFF3 		.section	.text.chThdCreateStatic,"ax",%progbits
 202      0080AFF3 
 202      0080AFF3 
 202      0080
 203              		.align	2
 204              		.p2align 4,,15
 205              		.global	chThdCreateStatic
 206              		.thumb
 207              		.thumb_func
 208              		.type	chThdCreateStatic, %function
 209              	chThdCreateStatic:
 210              	.LFB9:
 211              		.loc 1 185 0
 212              		.cfi_startproc
 213              		@ args = 4, pretend = 0, frame = 0
 214              		@ frame_needed = 0, uses_anonymous_args = 0
 215              	.LVL9:
 216 0000 2DE9F84F 		push	{r3, r4, r5, r6, r7, r8, r9, r10, fp, lr}
 217              		.cfi_def_cfa_offset 40
 218              		.cfi_offset 3, -40
 219              		.cfi_offset 4, -36
 220              		.cfi_offset 5, -32
 221              		.cfi_offset 6, -28
 222              		.cfi_offset 7, -24
 223              		.cfi_offset 8, -20
 224              		.cfi_offset 9, -16
ARM GAS  /tmp/ccIRuLP0.s 			page 5


 225              		.cfi_offset 10, -12
 226              		.cfi_offset 11, -8
 227              		.cfi_offset 14, -4
 228              		.loc 1 185 0
 229 0004 9C46     		mov	ip, r3
 230 0006 0446     		mov	r4, r0
 231              	.LBB24:
 232              		.loc 1 196 0
 233 0008 2023     		movs	r3, #32
 234              	.LVL10:
 235              	@ 196 "../../os/kernel/src/chthreads.c" 1
 236 000a 83F31188 		msr     BASEPRI, r3
 237              	@ 0 "" 2
 238              	.LVL11:
 239              		.thumb
 240              	.LBE24:
 241              	.LBB25:
 242              	.LBB26:
 243              	.LBB27:
 244              	.LBB28:
 245              		.loc 1 96 0
 246 000e 40F20006 		movw	r6, #:lower16:rlist
 247 0012 C0F20006 		movt	r6, #:upper16:rlist
 248 0016 D6F814E0 		ldr	lr, [r6, #20]
 249              	.LBE28:
 250              	.LBE27:
 251              		.loc 1 164 0
 252 001a A1F12400 		sub	r0, r1, #36
 253              	.LVL12:
 254 001e 0A9B     		ldr	r3, [sp, #40]
 255 0020 40F20001 		movw	r1, #:lower16:_port_thread_start
 256              	.LVL13:
 257              	.LBB34:
 258              	.LBB29:
 259              		.loc 1 80 0
 260 0024 0025     		movs	r5, #0
 261              	.LBE29:
 262              	.LBE34:
 263              		.loc 1 164 0
 264 0026 2718     		adds	r7, r4, r0
 265              	.LBB35:
 266              	.LBB30:
 267              		.loc 1 102 0
 268 0028 04F12C0B 		add	fp, r4, #44
 269              	.LBE30:
 270              	.LBE35:
 271              		.loc 1 164 0
 272 002c C0F20001 		movt	r1, #:upper16:_port_thread_start
 273              	.LBB36:
 274              	.LBB31:
 275              		.loc 1 79 0
 276 0030 4FF0020A 		mov	r10, #2
 277              		.loc 1 92 0
 278 0034 4FF00109 		mov	r9, #1
 279              		.loc 1 99 0
 280 0038 04F12808 		add	r8, r4, #40
 281              	.LBE31:
ARM GAS  /tmp/ccIRuLP0.s 			page 6


 282              	.LBE36:
 283              		.loc 1 164 0
 284 003c E760     		str	r7, [r4, #12]
 285 003e 44F800C0 		str	ip, [r4, r0]
 286 0042 7B60     		str	r3, [r7, #4]
 287 0044 3962     		str	r1, [r7, #32]
 288              	.LVL14:
 289              	.LBE26:
 290              	.LBE25:
 291              		.loc 1 197 0
 292 0046 2046     		mov	r0, r4
 293              	.LVL15:
 294              	.LBB41:
 295              	.LBB39:
 296              	.LBB37:
 297              	.LBB32:
 298              		.loc 1 78 0
 299 0048 A260     		str	r2, [r4, #8]
 300              		.loc 1 96 0
 301 004a 2661     		str	r6, [r4, #16]
 302 004c C4F814E0 		str	lr, [r4, #20]
 303              		.loc 1 82 0
 304 0050 2264     		str	r2, [r4, #64]
 305              		.loc 1 79 0
 306 0052 84F81CA0 		strb	r10, [r4, #28]
 307              		.loc 1 92 0
 308 0056 84F81E90 		strb	r9, [r4, #30]
 309              		.loc 1 80 0
 310 005a 6577     		strb	r5, [r4, #29]
 311              		.loc 1 96 0
 312 005c 7461     		str	r4, [r6, #20]
 313              		.loc 1 83 0
 314 005e E563     		str	r5, [r4, #60]
 315              		.loc 1 86 0
 316 0060 A563     		str	r5, [r4, #56]
 317              		.loc 1 89 0
 318 0062 2562     		str	r5, [r4, #32]
 319              		.loc 1 95 0
 320 0064 A561     		str	r5, [r4, #24]
 321              	.LBE32:
 322              	.LBE37:
 323              	.LBE39:
 324              	.LBE41:
 325              		.loc 1 197 0
 326 0066 2946     		mov	r1, r5
 327              	.LBB42:
 328              	.LBB40:
 329              	.LBB38:
 330              	.LBB33:
 331              		.loc 1 96 0
 332 0068 CEF81040 		str	r4, [lr, #16]
 333              		.loc 1 99 0
 334 006c C4F82880 		str	r8, [r4, #40]
 335              		.loc 1 102 0
 336 0070 C4F830B0 		str	fp, [r4, #48]
 337 0074 C4F82CB0 		str	fp, [r4, #44]
 338              	.LBE33:
ARM GAS  /tmp/ccIRuLP0.s 			page 7


 339              	.LBE38:
 340              	.LBE40:
 341              	.LBE42:
 342              		.loc 1 197 0
 343 0078 FFF7FEFF 		bl	chSchWakeupS
 344              	.LVL16:
 345              	.LBB43:
 346              		.loc 1 198 0
 347 007c 2B46     		mov	r3, r5
 348              	@ 198 "../../os/kernel/src/chthreads.c" 1
 349 007e 83F31188 		msr     BASEPRI, r3
 350              	@ 0 "" 2
 351              		.thumb
 352              	.LBE43:
 353              		.loc 1 200 0
 354 0082 2046     		mov	r0, r4
 355 0084 BDE8F88F 		pop	{r3, r4, r5, r6, r7, r8, r9, r10, fp, pc}
 356              		.cfi_endproc
 357              	.LFE9:
 358              		.size	chThdCreateStatic, .-chThdCreateStatic
 359 0088 AFF30080 		.section	.text.chThdSetPriority,"ax",%progbits
 359      AFF30080 
 360              		.align	2
 361              		.p2align 4,,15
 362              		.global	chThdSetPriority
 363              		.thumb
 364              		.thumb_func
 365              		.type	chThdSetPriority, %function
 366              	chThdSetPriority:
 367              	.LFB10:
 368              		.loc 1 214 0
 369              		.cfi_startproc
 370              		@ args = 0, pretend = 0, frame = 0
 371              		@ frame_needed = 0, uses_anonymous_args = 0
 372              	.LVL17:
 373 0000 10B5     		push	{r4, lr}
 374              		.cfi_def_cfa_offset 8
 375              		.cfi_offset 4, -8
 376              		.cfi_offset 14, -4
 377              	.LBB44:
 378              		.loc 1 219 0
 379 0002 2023     		movs	r3, #32
 380              	@ 219 "../../os/kernel/src/chthreads.c" 1
 381 0004 83F31188 		msr     BASEPRI, r3
 382              	@ 0 "" 2
 383              		.thumb
 384              	.LBE44:
 385              		.loc 1 221 0
 386 0008 40F20003 		movw	r3, #:lower16:rlist
 387 000c C0F20003 		movt	r3, #:upper16:rlist
 388 0010 DB69     		ldr	r3, [r3, #28]
 389 0012 1C6C     		ldr	r4, [r3, #64]
 390              	.LVL18:
 391              		.loc 1 222 0
 392 0014 9968     		ldr	r1, [r3, #8]
 393 0016 8C42     		cmp	r4, r1
 394 0018 01D0     		beq	.L5
ARM GAS  /tmp/ccIRuLP0.s 			page 8


 395              		.loc 1 222 0 is_stmt 0 discriminator 1
 396 001a 8142     		cmp	r1, r0
 397 001c 00D2     		bcs	.L6
 398              	.L5:
 399              		.loc 1 223 0 is_stmt 1
 400 001e 9860     		str	r0, [r3, #8]
 401              	.L6:
 402              		.loc 1 224 0
 403 0020 1864     		str	r0, [r3, #64]
 404              		.loc 1 229 0
 405 0022 FFF7FEFF 		bl	chSchRescheduleS
 406              	.LVL19:
 407              	.LBB45:
 408              		.loc 1 230 0
 409 0026 0023     		movs	r3, #0
 410              	@ 230 "../../os/kernel/src/chthreads.c" 1
 411 0028 83F31188 		msr     BASEPRI, r3
 412              	@ 0 "" 2
 413              		.thumb
 414              	.LBE45:
 415              		.loc 1 232 0
 416 002c 2046     		mov	r0, r4
 417 002e 10BD     		pop	{r4, pc}
 418              		.cfi_endproc
 419              	.LFE10:
 420              		.size	chThdSetPriority, .-chThdSetPriority
 421              		.section	.text.chThdResume,"ax",%progbits
 422              		.align	2
 423              		.p2align 4,,15
 424              		.global	chThdResume
 425              		.thumb
 426              		.thumb_func
 427              		.type	chThdResume, %function
 428              	chThdResume:
 429              	.LFB11:
 430              		.loc 1 247 0
 431              		.cfi_startproc
 432              		@ args = 0, pretend = 0, frame = 0
 433              		@ frame_needed = 0, uses_anonymous_args = 0
 434              	.LVL20:
 435 0000 10B5     		push	{r4, lr}
 436              		.cfi_def_cfa_offset 8
 437              		.cfi_offset 4, -8
 438              		.cfi_offset 14, -4
 439              	.LBB46:
 440              		.loc 1 249 0
 441 0002 2023     		movs	r3, #32
 442              	.LBE46:
 443              		.loc 1 247 0
 444 0004 0446     		mov	r4, r0
 445              	.LBB47:
 446              		.loc 1 249 0
 447              	@ 249 "../../os/kernel/src/chthreads.c" 1
 448 0006 83F31188 		msr     BASEPRI, r3
 449              	@ 0 "" 2
 450              		.thumb
 451              	.LBE47:
ARM GAS  /tmp/ccIRuLP0.s 			page 9


 452              		.loc 1 253 0
 453 000a 0021     		movs	r1, #0
 454 000c FFF7FEFF 		bl	chSchWakeupS
 455              	.LVL21:
 456              	.LBB48:
 457              		.loc 1 254 0
 458 0010 0023     		movs	r3, #0
 459              	@ 254 "../../os/kernel/src/chthreads.c" 1
 460 0012 83F31188 		msr     BASEPRI, r3
 461              	@ 0 "" 2
 462              		.thumb
 463              	.LBE48:
 464              		.loc 1 256 0
 465 0016 2046     		mov	r0, r4
 466 0018 10BD     		pop	{r4, pc}
 467              		.cfi_endproc
 468              	.LFE11:
 469              		.size	chThdResume, .-chThdResume
 470 001a 00BFAFF3 		.section	.text.chThdTerminate,"ax",%progbits
 470      0080
 471              		.align	2
 472              		.p2align 4,,15
 473              		.global	chThdTerminate
 474              		.thumb
 475              		.thumb_func
 476              		.type	chThdTerminate, %function
 477              	chThdTerminate:
 478              	.LFB12:
 479              		.loc 1 270 0
 480              		.cfi_startproc
 481              		@ args = 0, pretend = 0, frame = 0
 482              		@ frame_needed = 0, uses_anonymous_args = 0
 483              		@ link register save eliminated.
 484              	.LVL22:
 485              	.LBB49:
 486              		.loc 1 272 0
 487 0000 2023     		movs	r3, #32
 488              	@ 272 "../../os/kernel/src/chthreads.c" 1
 489 0002 83F31188 		msr     BASEPRI, r3
 490              	@ 0 "" 2
 491              		.thumb
 492              	.LBE49:
 493              		.loc 1 273 0
 494 0006 427F     		ldrb	r2, [r0, #29]	@ zero_extendqisi2
 495              	.LBB50:
 496              		.loc 1 274 0
 497 0008 0023     		movs	r3, #0
 498              	.LBE50:
 499              		.loc 1 273 0
 500 000a 42F00402 		orr	r2, r2, #4
 501 000e 4277     		strb	r2, [r0, #29]
 502              	.LBB51:
 503              		.loc 1 274 0
 504              	@ 274 "../../os/kernel/src/chthreads.c" 1
 505 0010 83F31188 		msr     BASEPRI, r3
 506              	@ 0 "" 2
 507              		.thumb
ARM GAS  /tmp/ccIRuLP0.s 			page 10


 508 0014 7047     		bx	lr
 509              	.LBE51:
 510              		.cfi_endproc
 511              	.LFE12:
 512              		.size	chThdTerminate, .-chThdTerminate
 513 0016 00BFAFF3 		.section	.text.chThdSleep,"ax",%progbits
 513      0080AFF3 
 513      0080
 514              		.align	2
 515              		.p2align 4,,15
 516              		.global	chThdSleep
 517              		.thumb
 518              		.thumb_func
 519              		.type	chThdSleep, %function
 520              	chThdSleep:
 521              	.LFB13:
 522              		.loc 1 289 0
 523              		.cfi_startproc
 524              		@ args = 0, pretend = 0, frame = 0
 525              		@ frame_needed = 0, uses_anonymous_args = 0
 526              	.LVL23:
 527 0000 08B5     		push	{r3, lr}
 528              		.cfi_def_cfa_offset 8
 529              		.cfi_offset 3, -8
 530              		.cfi_offset 14, -4
 531              		.loc 1 289 0
 532 0002 0146     		mov	r1, r0
 533              	.LBB52:
 534              		.loc 1 293 0
 535 0004 2023     		movs	r3, #32
 536              	@ 293 "../../os/kernel/src/chthreads.c" 1
 537 0006 83F31188 		msr     BASEPRI, r3
 538              	@ 0 "" 2
 539              		.thumb
 540              	.LBE52:
 541              		.loc 1 294 0
 542 000a 0620     		movs	r0, #6
 543              	.LVL24:
 544 000c FFF7FEFF 		bl	chSchGoSleepTimeoutS
 545              	.LVL25:
 546              	.LBB53:
 547              		.loc 1 295 0
 548 0010 0023     		movs	r3, #0
 549              	@ 295 "../../os/kernel/src/chthreads.c" 1
 550 0012 83F31188 		msr     BASEPRI, r3
 551              	@ 0 "" 2
 552              		.thumb
 553 0016 08BD     		pop	{r3, pc}
 554              	.LBE53:
 555              		.cfi_endproc
 556              	.LFE13:
 557              		.size	chThdSleep, .-chThdSleep
 558 0018 AFF30080 		.section	.text.chThdSleepUntil,"ax",%progbits
 558      AFF30080 
 559              		.align	2
 560              		.p2align 4,,15
 561              		.global	chThdSleepUntil
ARM GAS  /tmp/ccIRuLP0.s 			page 11


 562              		.thumb
 563              		.thumb_func
 564              		.type	chThdSleepUntil, %function
 565              	chThdSleepUntil:
 566              	.LFB14:
 567              		.loc 1 306 0
 568              		.cfi_startproc
 569              		@ args = 0, pretend = 0, frame = 0
 570              		@ frame_needed = 0, uses_anonymous_args = 0
 571              	.LVL26:
 572 0000 08B5     		push	{r3, lr}
 573              		.cfi_def_cfa_offset 8
 574              		.cfi_offset 3, -8
 575              		.cfi_offset 14, -4
 576              	.LBB54:
 577              		.loc 1 308 0
 578 0002 2023     		movs	r3, #32
 579              	@ 308 "../../os/kernel/src/chthreads.c" 1
 580 0004 83F31188 		msr     BASEPRI, r3
 581              	@ 0 "" 2
 582              		.thumb
 583              	.LBE54:
 584              		.loc 1 309 0
 585 0008 40F20003 		movw	r3, #:lower16:vtlist
 586 000c C0F20003 		movt	r3, #:upper16:vtlist
 587 0010 D968     		ldr	r1, [r3, #12]
 588              	.LVL27:
 589 0012 411A     		subs	r1, r0, r1
 590              	.LVL28:
 591 0014 02D0     		beq	.L12
 592              		.loc 1 310 0
 593 0016 0620     		movs	r0, #6
 594 0018 FFF7FEFF 		bl	chSchGoSleepTimeoutS
 595              	.LVL29:
 596              	.L12:
 597              	.LBB55:
 598              		.loc 1 311 0
 599 001c 0023     		movs	r3, #0
 600              	@ 311 "../../os/kernel/src/chthreads.c" 1
 601 001e 83F31188 		msr     BASEPRI, r3
 602              	@ 0 "" 2
 603              		.thumb
 604 0022 08BD     		pop	{r3, pc}
 605              	.LBE55:
 606              		.cfi_endproc
 607              	.LFE14:
 608              		.size	chThdSleepUntil, .-chThdSleepUntil
 609 0024 AFF30080 		.section	.text.chThdYield,"ax",%progbits
 609      AFF30080 
 609      AFF30080 
 610              		.align	2
 611              		.p2align 4,,15
 612              		.global	chThdYield
 613              		.thumb
 614              		.thumb_func
 615              		.type	chThdYield, %function
 616              	chThdYield:
ARM GAS  /tmp/ccIRuLP0.s 			page 12


 617              	.LFB15:
 618              		.loc 1 321 0
 619              		.cfi_startproc
 620              		@ args = 0, pretend = 0, frame = 0
 621              		@ frame_needed = 0, uses_anonymous_args = 0
 622 0000 08B5     		push	{r3, lr}
 623              		.cfi_def_cfa_offset 8
 624              		.cfi_offset 3, -8
 625              		.cfi_offset 14, -4
 626              	.LBB56:
 627              		.loc 1 323 0
 628 0002 2023     		movs	r3, #32
 629              	@ 323 "../../os/kernel/src/chthreads.c" 1
 630 0004 83F31188 		msr     BASEPRI, r3
 631              	@ 0 "" 2
 632              		.thumb
 633              	.LBE56:
 634              		.loc 1 324 0
 635 0008 40F20003 		movw	r3, #:lower16:rlist
 636 000c C0F20003 		movt	r3, #:upper16:rlist
 637 0010 1A68     		ldr	r2, [r3]
 638 0012 DB69     		ldr	r3, [r3, #28]
 639 0014 9268     		ldr	r2, [r2, #8]
 640 0016 9B68     		ldr	r3, [r3, #8]
 641 0018 9A42     		cmp	r2, r3
 642 001a 01D3     		bcc	.L17
 643              		.loc 1 324 0 is_stmt 0 discriminator 1
 644 001c FFF7FEFF 		bl	chSchDoReschedule
 645              	.LVL30:
 646              	.L17:
 647              	.LBB57:
 648              		.loc 1 325 0 is_stmt 1
 649 0020 0023     		movs	r3, #0
 650              	@ 325 "../../os/kernel/src/chthreads.c" 1
 651 0022 83F31188 		msr     BASEPRI, r3
 652              	@ 0 "" 2
 653              		.thumb
 654 0026 08BD     		pop	{r3, pc}
 655              	.LBE57:
 656              		.cfi_endproc
 657              	.LFE15:
 658              		.size	chThdYield, .-chThdYield
 659 0028 AFF30080 		.section	.text.chThdExitS,"ax",%progbits
 659      AFF30080 
 660              		.align	2
 661              		.p2align 4,,15
 662              		.global	chThdExitS
 663              		.thumb
 664              		.thumb_func
 665              		.type	chThdExitS, %function
 666              	chThdExitS:
 667              	.LFB17:
 668              		.loc 1 363 0
 669              		.cfi_startproc
 670              		@ args = 0, pretend = 0, frame = 0
 671              		@ frame_needed = 0, uses_anonymous_args = 0
 672              	.LVL31:
ARM GAS  /tmp/ccIRuLP0.s 			page 13


 673 0000 38B5     		push	{r3, r4, r5, lr}
 674              		.cfi_def_cfa_offset 16
 675              		.cfi_offset 3, -16
 676              		.cfi_offset 4, -12
 677              		.cfi_offset 5, -8
 678              		.cfi_offset 14, -4
 679              		.loc 1 364 0
 680 0002 40F20003 		movw	r3, #:lower16:rlist
 681 0006 C0F20003 		movt	r3, #:upper16:rlist
 682 000a DC69     		ldr	r4, [r3, #28]
 683              	.LVL32:
 684              		.loc 1 371 0
 685 000c 2546     		mov	r5, r4
 686 000e 55F8283F 		ldr	r3, [r5, #40]!
 687              		.loc 1 366 0
 688 0012 6062     		str	r0, [r4, #36]
 689              		.loc 1 371 0
 690 0014 AB42     		cmp	r3, r5
 691 0016 07D0     		beq	.L22
 692              	.LVL33:
 693              	.L23:
 694              	.LBB58:
 695              	.LBB59:
 696              		.file 2 "../../os/kernel/include/chinline.h"
 697              		.loc 2 89 0
 698 0018 1A68     		ldr	r2, [r3]
 699              	.LBE59:
 700              	.LBE58:
 701              		.loc 1 372 0
 702 001a 1846     		mov	r0, r3
 703              	.LBB61:
 704              	.LBB60:
 705              		.loc 2 89 0
 706 001c A262     		str	r2, [r4, #40]
 707              	.LBE60:
 708              	.LBE61:
 709              		.loc 1 372 0
 710 001e FFF7FEFF 		bl	chSchReadyI
 711              	.LVL34:
 712              		.loc 1 371 0
 713 0022 A36A     		ldr	r3, [r4, #40]
 714 0024 AB42     		cmp	r3, r5
 715 0026 F7D1     		bne	.L23
 716              	.LVL35:
 717              	.L22:
 718              		.loc 1 377 0
 719 0028 637F     		ldrb	r3, [r4, #29]	@ zero_extendqisi2
 720 002a 9B07     		lsls	r3, r3, #30
 721 002c 04D1     		bne	.L21
 722              		.loc 1 378 0
 723 002e 2269     		ldr	r2, [r4, #16]
 724 0030 6369     		ldr	r3, [r4, #20]
 725 0032 1A61     		str	r2, [r3, #16]
 726 0034 2269     		ldr	r2, [r4, #16]
 727 0036 5361     		str	r3, [r2, #20]
 728              	.L21:
 729              		.loc 1 380 0
ARM GAS  /tmp/ccIRuLP0.s 			page 14


 730 0038 0E20     		movs	r0, #14
 731              		.loc 1 383 0
 732 003a BDE83840 		pop	{r3, r4, r5, lr}
 733              	.LVL36:
 734              		.loc 1 380 0
 735 003e FFF7FEBF 		b	chSchGoSleepS
 736              	.LVL37:
 737              		.cfi_endproc
 738              	.LFE17:
 739              		.size	chThdExitS, .-chThdExitS
 740 0042 00BFAFF3 		.section	.text.chThdExit,"ax",%progbits
 740      0080AFF3 
 740      0080AFF3 
 740      0080
 741              		.align	2
 742              		.p2align 4,,15
 743              		.global	chThdExit
 744              		.thumb
 745              		.thumb_func
 746              		.type	chThdExit, %function
 747              	chThdExit:
 748              	.LFB16:
 749              		.loc 1 342 0
 750              		.cfi_startproc
 751              		@ args = 0, pretend = 0, frame = 0
 752              		@ frame_needed = 0, uses_anonymous_args = 0
 753              		@ link register save eliminated.
 754              	.LVL38:
 755              	.LBB62:
 756              		.loc 1 344 0
 757 0000 2023     		movs	r3, #32
 758              	@ 344 "../../os/kernel/src/chthreads.c" 1
 759 0002 83F31188 		msr     BASEPRI, r3
 760              	@ 0 "" 2
 761              		.thumb
 762              	.LBE62:
 763              		.loc 1 345 0
 764 0006 FFF7FEBF 		b	chThdExitS
 765              	.LVL39:
 766              		.cfi_endproc
 767              	.LFE16:
 768              		.size	chThdExit, .-chThdExit
 769 000a 00BFAFF3 		.section	.text.chThdWait,"ax",%progbits
 769      0080
 770              		.align	2
 771              		.p2align 4,,15
 772              		.global	chThdWait
 773              		.thumb
 774              		.thumb_func
 775              		.type	chThdWait, %function
 776              	chThdWait:
 777              	.LFB18:
 778              		.loc 1 417 0
 779              		.cfi_startproc
 780              		@ args = 0, pretend = 0, frame = 0
 781              		@ frame_needed = 0, uses_anonymous_args = 0
 782              	.LVL40:
ARM GAS  /tmp/ccIRuLP0.s 			page 15


 783 0000 38B5     		push	{r3, r4, r5, lr}
 784              		.cfi_def_cfa_offset 16
 785              		.cfi_offset 3, -16
 786              		.cfi_offset 4, -12
 787              		.cfi_offset 5, -8
 788              		.cfi_offset 14, -4
 789              		.loc 1 417 0
 790 0002 0446     		mov	r4, r0
 791              	.LBB63:
 792              		.loc 1 422 0
 793 0004 2023     		movs	r3, #32
 794              	@ 422 "../../os/kernel/src/chthreads.c" 1
 795 0006 83F31188 		msr     BASEPRI, r3
 796              	@ 0 "" 2
 797              		.thumb
 798              	.LBE63:
 799              		.loc 1 427 0
 800 000a 037F     		ldrb	r3, [r0, #28]	@ zero_extendqisi2
 801 000c 0E2B     		cmp	r3, #14
 802 000e 0AD0     		beq	.L26
 803              		.loc 1 428 0
 804 0010 40F20003 		movw	r3, #:lower16:rlist
 805 0014 C0F20003 		movt	r3, #:upper16:rlist
 806              	.LBB64:
 807              	.LBB65:
 808              		.loc 2 82 0
 809 0018 826A     		ldr	r2, [r0, #40]
 810              	.LBE65:
 811              	.LBE64:
 812              		.loc 1 428 0
 813 001a DB69     		ldr	r3, [r3, #28]
 814              	.LVL41:
 815              		.loc 1 429 0
 816 001c 0720     		movs	r0, #7
 817              	.LVL42:
 818              	.LBB67:
 819              	.LBB66:
 820              		.loc 2 82 0
 821 001e 1A60     		str	r2, [r3]
 822              		.loc 2 83 0
 823 0020 A362     		str	r3, [r4, #40]
 824              	.LBE66:
 825              	.LBE67:
 826              		.loc 1 429 0
 827 0022 FFF7FEFF 		bl	chSchGoSleepS
 828              	.LVL43:
 829              	.L26:
 830              		.loc 1 431 0
 831 0026 656A     		ldr	r5, [r4, #36]
 832              	.LVL44:
 833              	.LBB68:
 834              		.loc 1 432 0
 835 0028 0023     		movs	r3, #0
 836              	@ 432 "../../os/kernel/src/chthreads.c" 1
 837 002a 83F31188 		msr     BASEPRI, r3
 838              	@ 0 "" 2
 839              		.thumb
ARM GAS  /tmp/ccIRuLP0.s 			page 16


 840              	.LBE68:
 841              		.loc 1 434 0
 842 002e 2046     		mov	r0, r4
 843 0030 FFF7FEFF 		bl	chThdRelease
 844              	.LVL45:
 845              		.loc 1 437 0
 846 0034 2846     		mov	r0, r5
 847 0036 38BD     		pop	{r3, r4, r5, pc}
 848              		.cfi_endproc
 849              	.LFE18:
 850              		.size	chThdWait, .-chThdWait
 851 0038 AFF30080 		.text
 851      AFF30080 
 852              	.Letext0:
 853              		.file 3 "/usr/lib/gcc/arm-none-eabi/4.8.2/include/stddef.h"
 854              		.file 4 "/usr/include/newlib/machine/_default_types.h"
 855              		.file 5 "/usr/include/newlib/stdint.h"
 856              		.file 6 "../../os/ports/GCC/ARMCMx/chtypes.h"
 857              		.file 7 "../../os/kernel/include/chlists.h"
 858              		.file 8 "../../os/kernel/include/chthreads.h"
 859              		.file 9 "../../os/ports/GCC/ARMCMx/chcore_v7m.h"
 860              		.file 10 "../../os/kernel/include/chvt.h"
 861              		.file 11 "../../os/kernel/include/chschd.h"
 862              		.file 12 "../../os/kernel/include/chmtx.h"
 863              		.file 13 "../../os/kernel/include/chdynamic.h"
