ARM GAS  /tmp/ccxyk6D9.s 			page 1


   1              		.syntax unified
   2              		.cpu cortex-m3
   3              		.fpu softvfp
   4              		.eabi_attribute 20, 1
   5              		.eabi_attribute 21, 1
   6              		.eabi_attribute 23, 3
   7              		.eabi_attribute 24, 1
   8              		.eabi_attribute 25, 1
   9              		.eabi_attribute 26, 1
  10              		.eabi_attribute 30, 2
  11              		.eabi_attribute 34, 1
  12              		.eabi_attribute 18, 4
  13              		.thumb
  14              		.file	"evtimer.c"
  15              		.text
  16              	.Ltext0:
  17              		.cfi_sections	.debug_frame
  18              		.section	.text.tmrcb,"ax",%progbits
  19              		.align	2
  20              		.p2align 4,,15
  21              		.thumb
  22              		.thumb_func
  23              		.type	tmrcb, %function
  24              	tmrcb:
  25              	.LFB7:
  26              		.file 1 "../../os/various/evtimer.c"
  27              		.loc 1 39 0
  28              		.cfi_startproc
  29              		@ args = 0, pretend = 0, frame = 0
  30              		@ frame_needed = 0, uses_anonymous_args = 0
  31              	.LVL0:
  32 0000 10B5     		push	{r4, lr}
  33              		.cfi_def_cfa_offset 8
  34              		.cfi_offset 4, -8
  35              		.cfi_offset 14, -4
  36              		.loc 1 42 0
  37 0002 0021     		movs	r1, #0
  38              		.loc 1 39 0
  39 0004 0446     		mov	r4, r0
  40              	.LVL1:
  41              		.loc 1 42 0
  42 0006 1430     		adds	r0, r0, #20
  43              	.LVL2:
  44 0008 FFF7FEFF 		bl	chEvtBroadcastFlagsI
  45              	.LVL3:
  46              		.loc 1 43 0
  47 000c 40F20002 		movw	r2, #:lower16:tmrcb
  48 0010 2046     		mov	r0, r4
  49 0012 A169     		ldr	r1, [r4, #24]
  50 0014 2346     		mov	r3, r4
  51 0016 C0F20002 		movt	r2, #:upper16:tmrcb
  52              		.loc 1 44 0
  53 001a BDE81040 		pop	{r4, lr}
  54              	.LVL4:
  55              		.loc 1 43 0
  56 001e FFF7FEBF 		b	chVTSetI
  57              	.LVL5:
ARM GAS  /tmp/ccxyk6D9.s 			page 2


  58              		.cfi_endproc
  59              	.LFE7:
  60              		.size	tmrcb, .-tmrcb
  61 0022 00BFAFF3 		.section	.text.evtStart,"ax",%progbits
  61      0080AFF3 
  61      0080AFF3 
  61      0080
  62              		.align	2
  63              		.p2align 4,,15
  64              		.global	evtStart
  65              		.thumb
  66              		.thumb_func
  67              		.type	evtStart, %function
  68              	evtStart:
  69              	.LFB8:
  70              		.loc 1 52 0
  71              		.cfi_startproc
  72              		@ args = 0, pretend = 0, frame = 0
  73              		@ frame_needed = 0, uses_anonymous_args = 0
  74              	.LVL6:
  75 0000 08B5     		push	{r3, lr}
  76              		.cfi_def_cfa_offset 8
  77              		.cfi_offset 3, -8
  78              		.cfi_offset 14, -4
  79              	.LBB2:
  80              		.loc 1 54 0
  81 0002 2023     		movs	r3, #32
  82              	@ 54 "../../os/various/evtimer.c" 1
  83 0004 83F31188 		msr     BASEPRI, r3
  84              	@ 0 "" 2
  85              		.thumb
  86              	.LBE2:
  87              		.loc 1 56 0
  88 0008 C368     		ldr	r3, [r0, #12]
  89 000a 1BB1     		cbz	r3, .L5
  90              	.LBB3:
  91              		.loc 1 59 0
  92 000c 0023     		movs	r3, #0
  93              	@ 59 "../../os/various/evtimer.c" 1
  94 000e 83F31188 		msr     BASEPRI, r3
  95              	@ 0 "" 2
  96              		.thumb
  97 0012 08BD     		pop	{r3, pc}
  98              	.L5:
  99              	.LBE3:
 100              		.loc 1 57 0
 101 0014 40F20002 		movw	r2, #:lower16:tmrcb
 102 0018 0346     		mov	r3, r0
 103 001a 8169     		ldr	r1, [r0, #24]
 104 001c C0F20002 		movt	r2, #:upper16:tmrcb
 105 0020 FFF7FEFF 		bl	chVTSetI
 106              	.LVL7:
 107              	.LBB4:
 108              		.loc 1 59 0
 109 0024 0023     		movs	r3, #0
 110              	@ 59 "../../os/various/evtimer.c" 1
 111 0026 83F31188 		msr     BASEPRI, r3
ARM GAS  /tmp/ccxyk6D9.s 			page 3


 112              	@ 0 "" 2
 113              		.thumb
 114 002a 08BD     		pop	{r3, pc}
 115              	.LBE4:
 116              		.cfi_endproc
 117              	.LFE8:
 118              		.size	evtStart, .-evtStart
 119 002c AFF30080 		.section	.text.evtStop,"ax",%progbits
 120              		.align	2
 121              		.p2align 4,,15
 122              		.global	evtStop
 123              		.thumb
 124              		.thumb_func
 125              		.type	evtStop, %function
 126              	evtStop:
 127              	.LFB9:
 128              		.loc 1 68 0
 129              		.cfi_startproc
 130              		@ args = 0, pretend = 0, frame = 0
 131              		@ frame_needed = 0, uses_anonymous_args = 0
 132              	.LVL8:
 133 0000 08B5     		push	{r3, lr}
 134              		.cfi_def_cfa_offset 8
 135              		.cfi_offset 3, -8
 136              		.cfi_offset 14, -4
 137              	.LBB5:
 138              		.loc 1 70 0
 139 0002 2023     		movs	r3, #32
 140              	@ 70 "../../os/various/evtimer.c" 1
 141 0004 83F31188 		msr     BASEPRI, r3
 142              	@ 0 "" 2
 143              		.thumb
 144              	.LBE5:
 145              		.loc 1 72 0
 146 0008 C368     		ldr	r3, [r0, #12]
 147 000a 0BB1     		cbz	r3, .L7
 148              		.loc 1 73 0
 149 000c FFF7FEFF 		bl	chVTResetI
 150              	.LVL9:
 151              	.L7:
 152              	.LBB6:
 153              		.loc 1 75 0
 154 0010 0023     		movs	r3, #0
 155              	@ 75 "../../os/various/evtimer.c" 1
 156 0012 83F31188 		msr     BASEPRI, r3
 157              	@ 0 "" 2
 158              		.thumb
 159 0016 08BD     		pop	{r3, pc}
 160              	.LBE6:
 161              		.cfi_endproc
 162              	.LFE9:
 163              		.size	evtStop, .-evtStop
 164 0018 AFF30080 		.text
 164      AFF30080 
 165              	.Letext0:
 166              		.file 2 "/usr/include/newlib/machine/_default_types.h"
 167              		.file 3 "/usr/include/newlib/stdint.h"
ARM GAS  /tmp/ccxyk6D9.s 			page 4


 168              		.file 4 "../../os/ports/GCC/ARMCMx/chtypes.h"
 169              		.file 5 "../../os/kernel/include/chlists.h"
 170              		.file 6 "../../os/kernel/include/chthreads.h"
 171              		.file 7 "../../os/ports/GCC/ARMCMx/chcore_v7m.h"
 172              		.file 8 "../../os/kernel/include/chvt.h"
 173              		.file 9 "../../os/kernel/include/chmtx.h"
 174              		.file 10 "../../os/kernel/include/chevents.h"
 175              		.file 11 "../../os/various/evtimer.h"
