ARM GAS  /tmp/ccGhuAuv.s 			page 1


   1              		.syntax unified
   2              		.cpu cortex-m3
   3              		.fpu softvfp
   4              		.eabi_attribute 20, 1
   5              		.eabi_attribute 21, 1
   6              		.eabi_attribute 23, 3
   7              		.eabi_attribute 24, 1
   8              		.eabi_attribute 25, 1
   9              		.eabi_attribute 26, 1
  10              		.eabi_attribute 30, 2
  11              		.eabi_attribute 34, 1
  12              		.eabi_attribute 18, 4
  13              		.thumb
  14              		.file	"main_test.c"
  15              		.text
  16              	.Ltext0:
  17              		.cfi_sections	.debug_frame
  18              		.section	.text.Thread1,"ax",%progbits
  19              		.align	2
  20              		.p2align 4,,15
  21              		.thumb
  22              		.thumb_func
  23              		.type	Thread1, %function
  24              	Thread1:
  25              	.LFB36:
  26              		.file 1 "main_test.c"
  27              		.loc 1 22 0
  28              		.cfi_startproc
  29              		@ Volatile: function does not return.
  30              		@ args = 0, pretend = 0, frame = 0
  31              		@ frame_needed = 0, uses_anonymous_args = 0
  32              	.LVL0:
  33 0000 08B5     		push	{r3, lr}
  34              		.cfi_def_cfa_offset 8
  35              		.cfi_offset 3, -8
  36              		.cfi_offset 14, -4
  37              		.loc 1 25 0
  38 0002 4FF48054 		mov	r4, #4096
  39 0006 4FF40065 		mov	r5, #2048
  40 000a C4F20E04 		movt	r4, 16398
  41 000e 2E46     		mov	r6, r5
  42              	.LVL1:
  43              	.L2:
  44              		.loc 1 25 0 is_stmt 0 discriminator 1
  45 0010 6663     		str	r6, [r4, #52]
  46              		.loc 1 26 0 is_stmt 1 discriminator 1
  47 0012 4FF4FA70 		mov	r0, #500
  48 0016 FFF7FEFF 		bl	chThdSleep
  49              	.LVL2:
  50              		.loc 1 27 0 discriminator 1
  51 001a 2563     		str	r5, [r4, #48]
  52              		.loc 1 28 0 discriminator 1
  53 001c 4FF4FA70 		mov	r0, #500
  54 0020 FFF7FEFF 		bl	chThdSleep
  55              	.LVL3:
  56 0024 F4E7     		b	.L2
  57              		.cfi_endproc
ARM GAS  /tmp/ccGhuAuv.s 			page 2


  58              	.LFE36:
  59              		.size	Thread1, .-Thread1
  60 0026 00BFAFF3 		.section	.text.startup.main,"ax",%progbits
  60      0080AFF3 
  60      0080
  61              		.align	2
  62              		.p2align 4,,15
  63              		.global	main
  64              		.thumb
  65              		.thumb_func
  66              		.type	main, %function
  67              	main:
  68              	.LFB37:
  69              		.loc 1 35 0
  70              		.cfi_startproc
  71              		@ args = 0, pretend = 0, frame = 16
  72              		@ frame_needed = 0, uses_anonymous_args = 0
  73 0000 10B5     		push	{r4, lr}
  74              		.cfi_def_cfa_offset 8
  75              		.cfi_offset 4, -8
  76              		.cfi_offset 14, -4
  77 0002 86B0     		sub	sp, sp, #24
  78              		.cfi_def_cfa_offset 32
  79              		.loc 1 37 0
  80 0004 FFF7FEFF 		bl	halInit
  81              	.LVL4:
  82              		.loc 1 38 0
  83 0008 FFF7FEFF 		bl	chSysInit
  84              	.LVL5:
  85              		.loc 1 39 0
  86 000c 40F20000 		movw	r0, #:lower16:SD1
  87 0010 C0F20000 		movt	r0, #:upper16:SD1
  88 0014 0021     		movs	r1, #0
  89 0016 FFF7FEFF 		bl	sdStart
  90              	.LVL6:
  91              		.loc 1 40 0
  92 001a 0024     		movs	r4, #0
  93 001c 40F20000 		movw	r0, #:lower16:.LANCHOR0
  94 0020 40F20003 		movw	r3, #:lower16:Thread1
  95 0024 C0F20003 		movt	r3, #:upper16:Thread1
  96 0028 4FF49871 		mov	r1, #304
  97 002c 4022     		movs	r2, #64
  98 002e 0094     		str	r4, [sp]
  99 0030 C0F20000 		movt	r0, #:upper16:.LANCHOR0
 100 0034 FFF7FEFF 		bl	chThdCreateStatic
 101              	.LVL7:
 102              		.loc 1 42 0
 103 0038 40F20002 		movw	r2, #:lower16:.LANCHOR1
 104 003c C0F20002 		movt	r2, #:upper16:.LANCHOR1
 105 0040 1068     		ldr	r0, [r2]	@ unaligned
 106 0042 5168     		ldr	r1, [r2, #4]	@ unaligned
 107 0044 03AB     		add	r3, sp, #12
 108 0046 03C3     		stmia	r3!, {r0, r1}
 109 0048 1289     		ldrh	r2, [r2, #8]	@ unaligned
 110 004a 1A80     		strh	r2, [r3]	@ unaligned
 111              	.LVL8:
 112              	.L5:
ARM GAS  /tmp/ccGhuAuv.s 			page 3


 113              	.LBB2:
 114              		.loc 1 46 0 discriminator 2
 115 004c 06AB     		add	r3, sp, #24
 116 004e 2344     		add	r3, r3, r4
 117 0050 40F20000 		movw	r0, #:lower16:SD1
 118 0054 40F20001 		movw	r1, #:lower16:.LC1
 119 0058 13F80C2C 		ldrb	r2, [r3, #-12]	@ zero_extendqisi2
 120              		.loc 1 45 0 discriminator 2
 121 005c 0134     		adds	r4, r4, #1
 122              		.loc 1 46 0 discriminator 2
 123 005e C0F20000 		movt	r0, #:upper16:SD1
 124 0062 C0F20001 		movt	r1, #:upper16:.LC1
 125              		.loc 1 45 0 discriminator 2
 126 0066 092C     		cmp	r4, #9
 127 0068 C8BF     		it	gt
 128 006a 0024     		movgt	r4, #0
 129              		.loc 1 46 0 discriminator 2
 130 006c FFF7FEFF 		bl	chprintf
 131              	.LVL9:
 132 0070 ECE7     		b	.L5
 133              	.LBE2:
 134              		.cfi_endproc
 135              	.LFE37:
 136              		.size	main, .-main
 137 0072 00BFAFF3 		.section	.rodata
 137      0080AFF3 
 137      0080AFF3 
 137      0080
 138              		.align	2
 139              		.set	.LANCHOR1,. + 0
 140              	.LC0:
 141 0000 0A       		.byte	10
 142 0001 0B       		.byte	11
 143 0002 0C       		.byte	12
 144 0003 0D       		.byte	13
 145 0004 0B       		.byte	11
 146 0005 0C       		.byte	12
 147 0006 0D       		.byte	13
 148 0007 0B       		.byte	11
 149 0008 0C       		.byte	12
 150 0009 0D       		.byte	13
 151 000a 0000     		.section	.bss.waThread1,"aw",%nobits
 152              		.align	3
 153              		.set	.LANCHOR0,. + 0
 154              		.type	waThread1, %object
 155              		.size	waThread1, 304
 156              	waThread1:
 157 0000 00000000 		.space	304
 157      00000000 
 157      00000000 
 157      00000000 
 157      00000000 
 158              		.section	.rodata.str1.4,"aMS",%progbits,1
 159              		.align	2
 160              	.LC1:
 161 0000 25643B00 		.ascii	"%d;\000"
 162              		.text
ARM GAS  /tmp/ccGhuAuv.s 			page 4


 163              	.Letext0:
 164              		.file 2 "/usr/lib/gcc/arm-none-eabi/4.8.2/include/stddef.h"
 165              		.file 3 "/usr/include/newlib/machine/_default_types.h"
 166              		.file 4 "/usr/include/newlib/stdint.h"
 167              		.file 5 "../../os/ports/GCC/ARMCMx/chtypes.h"
 168              		.file 6 "../../os/kernel/include/chlists.h"
 169              		.file 7 "../../os/kernel/include/chthreads.h"
 170              		.file 8 "../../os/ports/GCC/ARMCMx/chcore_v7m.h"
 171              		.file 9 "../../os/kernel/include/chmtx.h"
 172              		.file 10 "../../os/kernel/include/chevents.h"
 173              		.file 11 "../../os/kernel/include/chqueues.h"
 174              		.file 12 "../../os/kernel/include/chioch.h"
 175              		.file 13 "../../os/hal/platforms/AT91SAM3/at91lib/SAM3N.h"
 176              		.file 14 "../../os/hal/platforms/AT91SAM3/pal_lld.h"
 177              		.file 15 "../../os/hal/include/serial.h"
 178              		.file 16 "../../os/hal/platforms/AT91SAM3/serial_lld.h"
 179              		.file 17 "../../os/various/chprintf.h"
 180              		.file 18 "../../os/hal/include/hal.h"
 181              		.file 19 "../../os/kernel/include/chsys.h"
 182              		.file 20 "../../os/hal/platforms/AT91SAM3/core_cm3.h"
