ARM GAS  /tmp/ccN5rW3g.s 			page 1


   1              		.syntax unified
   2              		.cpu cortex-m3
   3              		.fpu softvfp
   4              		.eabi_attribute 20, 1
   5              		.eabi_attribute 21, 1
   6              		.eabi_attribute 23, 3
   7              		.eabi_attribute 24, 1
   8              		.eabi_attribute 25, 1
   9              		.eabi_attribute 26, 1
  10              		.eabi_attribute 30, 2
  11              		.eabi_attribute 34, 1
  12              		.eabi_attribute 18, 4
  13              		.thumb
  14              		.file	"main.c"
  15              		.text
  16              	.Ltext0:
  17              		.cfi_sections	.debug_frame
  18              		.section	.text.Thread1,"ax",%progbits
  19              		.align	2
  20              		.p2align 4,,15
  21              		.thumb
  22              		.thumb_func
  23              		.type	Thread1, %function
  24              	Thread1:
  25              	.LFB36:
  26              		.file 1 "main.c"
  27              		.loc 1 17 0
  28              		.cfi_startproc
  29              		@ args = 0, pretend = 0, frame = 0
  30              		@ frame_needed = 0, uses_anonymous_args = 0
  31              	.LVL0:
  32 0000 70B5     		push	{r4, r5, r6, lr}
  33              	.LCFI0:
  34              		.cfi_def_cfa_offset 16
  35              		.cfi_offset 14, -4
  36              		.cfi_offset 6, -8
  37              		.cfi_offset 5, -12
  38              		.cfi_offset 4, -16
  39              		.loc 1 20 0
  40 0002 4FF48054 		mov	r4, #4096
  41 0006 4FF40065 		mov	r5, #2048
  42 000a C4F20E04 		movt	r4, 16398
  43 000e 2E46     		mov	r6, r5
  44              	.LVL1:
  45              	.L2:
  46              		.loc 1 20 0 is_stmt 0 discriminator 1
  47 0010 6663     		str	r6, [r4, #52]
  48              		.loc 1 21 0 is_stmt 1 discriminator 1
  49 0012 4FF4FA70 		mov	r0, #500
  50 0016 FFF7FEFF 		bl	chThdSleep
  51              		.loc 1 22 0 discriminator 1
  52 001a 2563     		str	r5, [r4, #48]
  53              		.loc 1 23 0 discriminator 1
  54 001c 4FF4FA70 		mov	r0, #500
  55 0020 FFF7FEFF 		bl	chThdSleep
  56 0024 F4E7     		b	.L2
  57              		.cfi_endproc
ARM GAS  /tmp/ccN5rW3g.s 			page 2


  58              	.LFE36:
  59              		.size	Thread1, .-Thread1
  60 0026 00BFAFF3 		.section	.text.VectorB4,"ax",%progbits
  60      0080AFF3 
  60      0080
  61              		.align	2
  62              		.p2align 4,,15
  63              		.global	VectorB4
  64              		.thumb
  65              		.thumb_func
  66              		.type	VectorB4, %function
  67              	VectorB4:
  68              	.LFB38:
  69              		.loc 1 41 0
  70              		.cfi_startproc
  71              		@ args = 0, pretend = 0, frame = 0
  72              		@ frame_needed = 0, uses_anonymous_args = 0
  73              	.LBB4:
  74              	.LBB5:
  75              		.loc 1 31 0
  76 0000 4FF40040 		mov	r0, #32768
  77 0004 C4F20300 		movt	r0, 16387
  78 0008 036B     		ldr	r3, [r0, #48]
  79              	.LVL2:
  80              	.LBE5:
  81              	.LBE4:
  82              		.loc 1 41 0
  83 000a 10B5     		push	{r4, lr}
  84              	.LCFI1:
  85              		.cfi_def_cfa_offset 8
  86              		.cfi_offset 14, -4
  87              		.cfi_offset 4, -8
  88              	.LBB7:
  89              	.LBB6:
  90              		.loc 1 32 0
  91 000c DB00     		lsls	r3, r3, #3
  92              	.LVL3:
  93 000e 0DD5     		bpl	.L5
  94              		.loc 1 34 0
  95 0010 0124     		movs	r4, #1
  96 0012 40F2000C 		movw	ip, #:lower16:.LANCHOR0
  97              		.loc 1 35 0
  98 0016 40F20001 		movw	r1, #:lower16:.LANCHOR1
  99              		.loc 1 34 0
 100 001a C0F2000C 		movt	ip, #:upper16:.LANCHOR0
 101              		.loc 1 35 0
 102 001e C0F20001 		movt	r1, #:upper16:.LANCHOR1
 103 0022 2246     		mov	r2, r4
 104              		.loc 1 34 0
 105 0024 8CF80040 		strb	r4, [ip, #0]
 106              		.loc 1 35 0
 107 0028 FFF7FEFF 		bl	ADC_ReadBuffer
 108              	.L5:
 109              	.LBE6:
 110              	.LBE7:
 111              		.loc 1 45 0
 112 002c BDE81040 		pop	{r4, lr}
ARM GAS  /tmp/ccN5rW3g.s 			page 3


 113              		.loc 1 44 0
 114 0030 FFF7FEBF 		b	_port_irq_epilogue
 115              		.cfi_endproc
 116              	.LFE38:
 117              		.size	VectorB4, .-VectorB4
 118 0034 AFF30080 		.section	.text.startup.main,"ax",%progbits
 118      AFF30080 
 118      AFF30080 
 119              		.align	2
 120              		.p2align 4,,15
 121              		.global	main
 122              		.thumb
 123              		.thumb_func
 124              		.type	main, %function
 125              	main:
 126              	.LFB39:
 127              		.loc 1 52 0
 128              		.cfi_startproc
 129              		@ args = 0, pretend = 0, frame = 0
 130              		@ frame_needed = 0, uses_anonymous_args = 0
 131 0000 F0B5     		push	{r4, r5, r6, r7, lr}
 132              	.LCFI2:
 133              		.cfi_def_cfa_offset 20
 134              		.cfi_offset 14, -4
 135              		.cfi_offset 7, -8
 136              		.cfi_offset 6, -12
 137              		.cfi_offset 5, -16
 138              		.cfi_offset 4, -20
 139 0002 83B0     		sub	sp, sp, #12
 140              	.LCFI3:
 141              		.cfi_def_cfa_offset 32
 142              		.loc 1 56 0
 143 0004 FFF7FEFF 		bl	halInit
 144              		.loc 1 57 0
 145 0008 FFF7FEFF 		bl	chSysInit
 146              		.loc 1 59 0
 147 000c 40F20000 		movw	r0, #:lower16:SD2
 148 0010 0021     		movs	r1, #0
 149 0012 C0F20000 		movt	r0, #:upper16:SD2
 150 0016 FFF7FEFF 		bl	sdStart
 151              		.loc 1 62 0
 152 001a 4FF40040 		mov	r0, #32768
 153 001e C4F20300 		movt	r0, 16387
 154 0022 FFF7FEFF 		bl	ADC_Initialize
 155              		.loc 1 68 0
 156 0026 4FF40040 		mov	r0, #32768
 157 002a 0B22     		movs	r2, #11
 158 002c C4F20300 		movt	r0, 16387
 159 0030 0F21     		movs	r1, #15
 160 0032 FFF7FEFF 		bl	ADC_cfgFrequency
 161              		.loc 1 70 0
 162 0036 4FF40045 		mov	r5, #32768
 163              		.loc 1 69 0
 164 003a 4FF40040 		mov	r0, #32768
 165 003e 4FF4D841 		mov	r1, #27648
 166              		.loc 1 70 0
 167 0042 C4F20305 		movt	r5, 16387
ARM GAS  /tmp/ccN5rW3g.s 			page 4


 168              		.loc 1 69 0
 169 0046 C4F20300 		movt	r0, 16387
 170 004a C0F2DC21 		movt	r1, 732
 171              		.loc 1 70 0
 172 004e 1026     		movs	r6, #16
 173              		.loc 1 69 0
 174 0050 FFF7FEFF 		bl	ADC_check
 175              		.loc 1 71 0
 176 0054 1D20     		movs	r0, #29
 177 0056 5021     		movs	r1, #80
 178              		.loc 1 70 0
 179 0058 2E61     		str	r6, [r5, #16]
 180              		.loc 1 71 0
 181 005a FFF7FEFF 		bl	nvicEnableVector
 182              		.loc 1 72 0
 183 005e 0223     		movs	r3, #2
 184              		.loc 1 73 0
 185 0060 40F20001 		movw	r1, #:lower16:.LANCHOR1
 186 0064 C0F20001 		movt	r1, #:upper16:.LANCHOR1
 187 0068 0122     		movs	r2, #1
 188              		.loc 1 72 0
 189 006a 2B60     		str	r3, [r5, #0]
 190              		.loc 1 73 0
 191 006c 2846     		mov	r0, r5
 192 006e FFF7FEFF 		bl	ADC_ReadBuffer
 193              		.loc 1 74 0
 194 0072 4FF08052 		mov	r2, #268435456
 195              		.loc 1 80 0
 196 0076 40F20000 		movw	r0, #:lower16:.LANCHOR2
 197 007a 40F20003 		movw	r3, #:lower16:Thread1
 198              		.loc 1 74 0
 199 007e 6A62     		str	r2, [r5, #36]
 200              		.loc 1 80 0
 201 0080 4FF49871 		mov	r1, #304
 202 0084 4022     		movs	r2, #64
 203 0086 C0F20003 		movt	r3, #:upper16:Thread1
 204 008a 0024     		movs	r4, #0
 205 008c C0F20000 		movt	r0, #:upper16:.LANCHOR2
 206 0090 0094     		str	r4, [sp, #0]
 207 0092 FFF7FEFF 		bl	chThdCreateStatic
 208              		.loc 1 81 0
 209 0096 40F20000 		movw	r0, #:lower16:SD2
 210 009a 40F20001 		movw	r1, #:lower16:.LC0
 211 009e C0F20000 		movt	r0, #:upper16:SD2
 212 00a2 C0F20001 		movt	r1, #:upper16:.LC0
 213 00a6 FFF7FEFF 		bl	chprintf
 214 00aa 40F20004 		movw	r4, #:lower16:.LANCHOR0
 215 00ae 40F20006 		movw	r6, #:lower16:.LANCHOR1
 216              		.loc 1 93 0
 217 00b2 40F60307 		movw	r7, #2051
 218 00b6 C0F20004 		movt	r4, #:upper16:.LANCHOR0
 219 00ba C0F20006 		movt	r6, #:upper16:.LANCHOR1
 220 00be C8F22007 		movt	r7, 32800
 221              	.L16:
 222              		.loc 1 85 0
 223 00c2 4FF40043 		mov	r3, #32768
 224 00c6 C4F20303 		movt	r3, 16387
ARM GAS  /tmp/ccN5rW3g.s 			page 5


 225 00ca 186B     		ldr	r0, [r3, #48]
 226              	.LVL4:
 227              		.loc 1 86 0
 228 00cc C206     		lsls	r2, r0, #27
 229 00ce 01D5     		bpl	.L7
 230              		.loc 1 87 0
 231 00d0 0221     		movs	r1, #2
 232 00d2 1960     		str	r1, [r3, #0]
 233              	.L7:
 234              		.loc 1 89 0
 235 00d4 4FF4FA70 		mov	r0, #500
 236              	.LVL5:
 237 00d8 FFF7FEFF 		bl	chThdSleep
 238              		.loc 1 90 0
 239 00dc 2278     		ldrb	r2, [r4, #0]	@ zero_extendqisi2
 240 00de 62B9     		cbnz	r2, .L8
 241              	.L13:
 242              		.loc 1 90 0 is_stmt 0 discriminator 2
 243 00e0 40F20000 		movw	r0, #:lower16:SD2
 244 00e4 40F20001 		movw	r1, #:lower16:.LC1
 245 00e8 C0F20000 		movt	r0, #:upper16:SD2
 246 00ec C0F20001 		movt	r1, #:upper16:.LC1
 247 00f0 FFF7FEFF 		bl	chprintf
 248 00f4 2578     		ldrb	r5, [r4, #0]	@ zero_extendqisi2
 249 00f6 002D     		cmp	r5, #0
 250 00f8 F2D0     		beq	.L13
 251              	.L8:
 252              		.loc 1 91 0 is_stmt 1
 253 00fa 2378     		ldrb	r3, [r4, #0]	@ zero_extendqisi2
 254 00fc 40F20005 		movw	r5, #:lower16:.LANCHOR0
 255 0100 C0F20005 		movt	r5, #:upper16:.LANCHOR0
 256 0104 002B     		cmp	r3, #0
 257 0106 DCD0     		beq	.L16
 258              		.loc 1 93 0
 259 0108 B6F90000 		ldrsh	r0, [r6, #0]
 260 010c 40F6E441 		movw	r1, #3300
 261 0110 01FB00F2 		mul	r2, r1, r0
 262 0114 87FB023E 		smull	r3, lr, r7, r2
 263 0118 40F20000 		movw	r0, #:lower16:SD2
 264 011c D317     		asrs	r3, r2, #31
 265 011e 0EEB020C 		add	ip, lr, r2
 266 0122 40F20001 		movw	r1, #:lower16:.LC2
 267 0126 C0F20000 		movt	r0, #:upper16:SD2
 268 012a C0F20001 		movt	r1, #:upper16:.LC2
 269 012e C3EB6C22 		rsb	r2, r3, ip, asr #9
 270 0132 FFF7FEFF 		bl	chprintf
 271              		.loc 1 94 0
 272 0136 0020     		movs	r0, #0
 273 0138 2870     		strb	r0, [r5, #0]
 274 013a C2E7     		b	.L16
 275              		.cfi_endproc
 276              	.LFE39:
 277              		.size	main, .-main
 278              		.global	conversionDone
 279              		.global	adc_values
 280 013c AFF30080 		.section	.bss.waThread1,"aw",%nobits
 281              		.align	3
ARM GAS  /tmp/ccN5rW3g.s 			page 6


 282              		.set	.LANCHOR2,. + 0
 283              		.type	waThread1, %object
 284              		.size	waThread1, 304
 285              	waThread1:
 286 0000 00000000 		.space	304
 286      00000000 
 286      00000000 
 286      00000000 
 286      00000000 
 287              		.section	.bss.conversionDone,"aw",%nobits
 288              		.set	.LANCHOR0,. + 0
 289              		.type	conversionDone, %object
 290              		.size	conversionDone, 1
 291              	conversionDone:
 292 0000 00       		.space	1
 293              		.section	.rodata.str1.4,"aMS",%progbits,1
 294              		.align	2
 295              	.LC0:
 296 0000 41444320 		.ascii	"ADC TEST STAMP IFLAB \015\012\000"
 296      54455354 
 296      20535441 
 296      4D502049 
 296      464C4142 
 297              	.LC1:
 298 0018 2E200D0A 		.ascii	". \015\012\000"
 298      00
 299 001d 000000   		.space	3
 300              	.LC2:
 301 0020 2564200D 		.ascii	"%d \015\012\000"
 301      0A00
 302 0026 0000     		.section	.bss.adc_values,"aw",%nobits
 303              		.align	2
 304              		.set	.LANCHOR1,. + 0
 305              		.type	adc_values, %object
 306              		.size	adc_values, 2
 307              	adc_values:
 308 0000 0000     		.space	2
 309 0002 0000     		.text
 310              	.Letext0:
 311              		.file 2 "/opt/arm-2011q3/bin/../lib/gcc/arm-none-eabi/4.6.1/include/stddef.h"
 312              		.file 3 "/opt/arm-2011q3/bin/../lib/gcc/arm-none-eabi/4.6.1/../../../../arm-none-eabi/include/stdi
 313              		.file 4 "../../os/ports/GCC/ARMCMx/chtypes.h"
 314              		.file 5 "../../os/kernel/include/chlists.h"
 315              		.file 6 "../../os/kernel/include/chthreads.h"
 316              		.file 7 "../../os/ports/GCC/ARMCMx/chcore_v7m.h"
 317              		.file 8 "../../os/kernel/include/chmtx.h"
 318              		.file 9 "../../os/kernel/include/chevents.h"
 319              		.file 10 "../../os/kernel/include/chqueues.h"
 320              		.file 11 "../../os/kernel/include/chioch.h"
 321              		.file 12 "../../os/hal/platforms/AT91SAM3/at91lib/SAM3N.h"
 322              		.file 13 "../../os/hal/platforms/AT91SAM3/pal_lld.h"
 323              		.file 14 "../../os/hal/include/serial.h"
 324              		.file 15 "../../os/hal/platforms/AT91SAM3/core_cm3.h"
 325              		.file 16 "../../os/hal/platforms/AT91SAM3/serial_lld.h"
