ARM GAS  /tmp/ccs3WtaS.s 			page 1


   1              		.syntax unified
   2              		.cpu cortex-m3
   3              		.fpu softvfp
   4              		.eabi_attribute 20, 1
   5              		.eabi_attribute 21, 1
   6              		.eabi_attribute 23, 3
   7              		.eabi_attribute 24, 1
   8              		.eabi_attribute 25, 1
   9              		.eabi_attribute 26, 1
  10              		.eabi_attribute 30, 2
  11              		.eabi_attribute 34, 1
  12              		.eabi_attribute 18, 4
  13              		.thumb
  14              		.file	"testevt.c"
  15              		.text
  16              	.Ltext0:
  17              		.cfi_sections	.debug_frame
  18              		.section	.text.evt1_execute,"ax",%progbits
  19              		.align	2
  20              		.p2align 4,,15
  21              		.thumb
  22              		.thumb_func
  23              		.type	evt1_execute, %function
  24              	evt1_execute:
  25              	.LFB11:
  26              		.file 1 "../../test/testevt.c"
  27              		.loc 1 96 0
  28              		.cfi_startproc
  29              		@ args = 0, pretend = 0, frame = 24
  30              		@ frame_needed = 0, uses_anonymous_args = 0
  31 0000 10B5     		push	{r4, lr}
  32              		.cfi_def_cfa_offset 8
  33              		.cfi_offset 4, -8
  34              		.cfi_offset 14, -4
  35              		.loc 1 102 0
  36 0002 40F20004 		movw	r4, #:lower16:.LANCHOR0
  37              		.loc 1 96 0
  38 0006 86B0     		sub	sp, sp, #24
  39              		.cfi_def_cfa_offset 32
  40              		.loc 1 102 0
  41 0008 C0F20004 		movt	r4, #:upper16:.LANCHOR0
  42              		.loc 1 103 0
  43 000c 2046     		mov	r0, r4
  44 000e 6946     		mov	r1, sp
  45 0010 0122     		movs	r2, #1
  46              		.loc 1 102 0
  47 0012 2460     		str	r4, [r4]
  48              		.loc 1 103 0
  49 0014 FFF7FEFF 		bl	chEvtRegisterMask
  50              	.LVL0:
  51              		.loc 1 104 0
  52 0018 2046     		mov	r0, r4
  53 001a 03A9     		add	r1, sp, #12
  54 001c 0222     		movs	r2, #2
  55 001e FFF7FEFF 		bl	chEvtRegisterMask
  56              	.LVL1:
  57              		.loc 1 105 0
ARM GAS  /tmp/ccs3WtaS.s 			page 2


  58 0022 2168     		ldr	r1, [r4]
  59 0024 0120     		movs	r0, #1
  60 0026 091B     		subs	r1, r1, r4
  61 0028 18BF     		it	ne
  62 002a 0121     		movne	r1, #1
  63 002c FFF7FEFF 		bl	_test_assert
  64              	.LVL2:
  65 0030 08B1     		cbz	r0, .L5
  66              	.L1:
  67              		.loc 1 116 0
  68 0032 06B0     		add	sp, sp, #24
  69              		@ sp needed
  70 0034 10BD     		pop	{r4, pc}
  71              	.L5:
  72              		.loc 1 106 0
  73 0036 6946     		mov	r1, sp
  74 0038 2046     		mov	r0, r4
  75 003a FFF7FEFF 		bl	chEvtUnregister
  76              	.LVL3:
  77              		.loc 1 107 0
  78 003e 2168     		ldr	r1, [r4]
  79 0040 0220     		movs	r0, #2
  80 0042 091B     		subs	r1, r1, r4
  81 0044 18BF     		it	ne
  82 0046 0121     		movne	r1, #1
  83 0048 FFF7FEFF 		bl	_test_assert
  84              	.LVL4:
  85 004c 0028     		cmp	r0, #0
  86 004e F0D1     		bne	.L1
  87              		.loc 1 108 0
  88 0050 03A9     		add	r1, sp, #12
  89 0052 2046     		mov	r0, r4
  90 0054 FFF7FEFF 		bl	chEvtUnregister
  91              	.LVL5:
  92              		.loc 1 109 0
  93 0058 2168     		ldr	r1, [r4]
  94 005a 0320     		movs	r0, #3
  95 005c 0B1B     		subs	r3, r1, r4
  96 005e 5942     		rsbs	r1, r3, #0
  97 0060 5941     		adcs	r1, r1, r3
  98 0062 FFF7FEFF 		bl	_test_assert
  99              	.LVL6:
 100 0066 0028     		cmp	r0, #0
 101 0068 E3D1     		bne	.L1
 102              		.loc 1 114 0
 103 006a 40F20000 		movw	r0, #:lower16:.LANCHOR1
 104 006e C0F20000 		movt	r0, #:upper16:.LANCHOR1
 105 0072 0721     		movs	r1, #7
 106 0074 FFF7FEFF 		bl	chEvtDispatch
 107              	.LVL7:
 108              		.loc 1 115 0
 109 0078 40F20001 		movw	r1, #:lower16:.LC0
 110 007c C0F20001 		movt	r1, #:upper16:.LC0
 111 0080 0420     		movs	r0, #4
 112 0082 FFF7FEFF 		bl	_test_assert_sequence
 113              	.LVL8:
 114 0086 D4E7     		b	.L1
ARM GAS  /tmp/ccs3WtaS.s 			page 3


 115              		.cfi_endproc
 116              	.LFE11:
 117              		.size	evt1_execute, .-evt1_execute
 118 0088 AFF30080 		.section	.text.h3,"ax",%progbits
 118      AFF30080 
 119              		.align	2
 120              		.p2align 4,,15
 121              		.thumb
 122              		.thumb_func
 123              		.type	h3, %function
 124              	h3:
 125              	.LFB10:
 126              		.loc 1 93 0
 127              		.cfi_startproc
 128              		@ args = 0, pretend = 0, frame = 0
 129              		@ frame_needed = 0, uses_anonymous_args = 0
 130              		@ link register save eliminated.
 131              	.LVL9:
 132              		.loc 1 93 0
 133 0000 4320     		movs	r0, #67
 134              	.LVL10:
 135 0002 FFF7FEBF 		b	test_emit_token
 136              	.LVL11:
 137              		.cfi_endproc
 138              	.LFE10:
 139              		.size	h3, .-h3
 140 0006 00BFAFF3 		.section	.text.h2,"ax",%progbits
 140      0080AFF3 
 140      0080
 141              		.align	2
 142              		.p2align 4,,15
 143              		.thumb
 144              		.thumb_func
 145              		.type	h2, %function
 146              	h2:
 147              	.LFB9:
 148              		.loc 1 92 0
 149              		.cfi_startproc
 150              		@ args = 0, pretend = 0, frame = 0
 151              		@ frame_needed = 0, uses_anonymous_args = 0
 152              		@ link register save eliminated.
 153              	.LVL12:
 154              		.loc 1 92 0
 155 0000 4220     		movs	r0, #66
 156              	.LVL13:
 157 0002 FFF7FEBF 		b	test_emit_token
 158              	.LVL14:
 159              		.cfi_endproc
 160              	.LFE9:
 161              		.size	h2, .-h2
 162 0006 00BFAFF3 		.section	.text.h1,"ax",%progbits
 162      0080AFF3 
 162      0080
 163              		.align	2
 164              		.p2align 4,,15
 165              		.thumb
 166              		.thumb_func
ARM GAS  /tmp/ccs3WtaS.s 			page 4


 167              		.type	h1, %function
 168              	h1:
 169              	.LFB8:
 170              		.loc 1 91 0
 171              		.cfi_startproc
 172              		@ args = 0, pretend = 0, frame = 0
 173              		@ frame_needed = 0, uses_anonymous_args = 0
 174              		@ link register save eliminated.
 175              	.LVL15:
 176              		.loc 1 91 0
 177 0000 4120     		movs	r0, #65
 178              	.LVL16:
 179 0002 FFF7FEBF 		b	test_emit_token
 180              	.LVL17:
 181              		.cfi_endproc
 182              	.LFE8:
 183              		.size	h1, .-h1
 184 0006 00BFAFF3 		.section	.text.evt1_setup,"ax",%progbits
 184      0080AFF3 
 184      0080
 185              		.align	2
 186              		.p2align 4,,15
 187              		.thumb
 188              		.thumb_func
 189              		.type	evt1_setup, %function
 190              	evt1_setup:
 191              	.LFB7:
 192              		.loc 1 86 0
 193              		.cfi_startproc
 194              		@ args = 0, pretend = 0, frame = 0
 195              		@ frame_needed = 0, uses_anonymous_args = 0
 196              		@ link register save eliminated.
 197              		.loc 1 88 0
 198 0000 4FF0FF30 		mov	r0, #-1
 199 0004 FFF7FEBF 		b	chEvtClearFlags
 200              	.LVL18:
 201              		.cfi_endproc
 202              	.LFE7:
 203              		.size	evt1_setup, .-evt1_setup
 204 0008 AFF30080 		.section	.text.evt2_setup,"ax",%progbits
 204      AFF30080 
 205              		.align	2
 206              		.p2align 4,,15
 207              		.thumb
 208              		.thumb_func
 209              		.type	evt2_setup, %function
 210              	evt2_setup:
 211              	.LFB12:
 212              		.loc 1 139 0
 213              		.cfi_startproc
 214              		@ args = 0, pretend = 0, frame = 0
 215              		@ frame_needed = 0, uses_anonymous_args = 0
 216              		@ link register save eliminated.
 217              		.loc 1 141 0
 218 0000 4FF0FF30 		mov	r0, #-1
 219 0004 FFF7FEBF 		b	chEvtClearFlags
 220              	.LVL19:
ARM GAS  /tmp/ccs3WtaS.s 			page 5


 221              		.cfi_endproc
 222              	.LFE12:
 223              		.size	evt2_setup, .-evt2_setup
 224 0008 AFF30080 		.section	.text.evt3_setup,"ax",%progbits
 224      AFF30080 
 225              		.align	2
 226              		.p2align 4,,15
 227              		.thumb
 228              		.thumb_func
 229              		.type	evt3_setup, %function
 230              	evt3_setup:
 231              	.LFB16:
 232              		.loc 1 258 0
 233              		.cfi_startproc
 234              		@ args = 0, pretend = 0, frame = 0
 235              		@ frame_needed = 0, uses_anonymous_args = 0
 236              		@ link register save eliminated.
 237              		.loc 1 260 0
 238 0000 4FF0FF30 		mov	r0, #-1
 239 0004 FFF7FEBF 		b	chEvtClearFlags
 240              	.LVL20:
 241              		.cfi_endproc
 242              	.LFE16:
 243              		.size	evt3_setup, .-evt3_setup
 244 0008 AFF30080 		.section	.text.evt2_execute,"ax",%progbits
 244      AFF30080 
 245              		.align	2
 246              		.p2align 4,,15
 247              		.thumb
 248              		.thumb_func
 249              		.type	evt2_execute, %function
 250              	evt2_execute:
 251              	.LFB15:
 252              		.loc 1 160 0
 253              		.cfi_startproc
 254              		@ args = 0, pretend = 0, frame = 32
 255              		@ frame_needed = 0, uses_anonymous_args = 0
 256 0000 2DE9F043 		push	{r4, r5, r6, r7, r8, r9, lr}
 257              		.cfi_def_cfa_offset 28
 258              		.cfi_offset 4, -28
 259              		.cfi_offset 5, -24
 260              		.cfi_offset 6, -20
 261              		.cfi_offset 7, -16
 262              		.cfi_offset 8, -12
 263              		.cfi_offset 9, -8
 264              		.cfi_offset 14, -4
 265              		.loc 1 168 0
 266 0004 0520     		movs	r0, #5
 267              		.loc 1 160 0
 268 0006 8BB0     		sub	sp, sp, #44
 269              		.cfi_def_cfa_offset 72
 270              		.loc 1 168 0
 271 0008 FFF7FEFF 		bl	chEvtAddFlags
 272              	.LVL21:
 273              		.loc 1 169 0
 274 000c 4FF0FF30 		mov	r0, #-1
 275 0010 FFF7FEFF 		bl	chEvtWaitOne
ARM GAS  /tmp/ccs3WtaS.s 			page 6


 276              	.LVL22:
 277              		.loc 1 170 0
 278 0014 B0F10109 		subs	r9, r0, #1
 279 0018 D9F10001 		rsbs	r1, r9, #0
 280 001c 51EB0901 		adcs	r1, r1, r9
 281 0020 0120     		movs	r0, #1
 282              	.LVL23:
 283 0022 FFF7FEFF 		bl	_test_assert
 284              	.LVL24:
 285 0026 10B1     		cbz	r0, .L15
 286              	.LVL25:
 287              	.L12:
 288              		.loc 1 233 0
 289 0028 0BB0     		add	sp, sp, #44
 290              		@ sp needed
 291 002a BDE8F083 		pop	{r4, r5, r6, r7, r8, r9, pc}
 292              	.LVL26:
 293              	.L15:
 294              		.loc 1 171 0
 295 002e 4FF0FF30 		mov	r0, #-1
 296 0032 FFF7FEFF 		bl	chEvtWaitOne
 297              	.LVL27:
 298              		.loc 1 172 0
 299 0036 B0F10408 		subs	r8, r0, #4
 300 003a D8F10001 		rsbs	r1, r8, #0
 301 003e 51EB0801 		adcs	r1, r1, r8
 302 0042 0220     		movs	r0, #2
 303              	.LVL28:
 304 0044 FFF7FEFF 		bl	_test_assert
 305              	.LVL29:
 306 0048 0028     		cmp	r0, #0
 307 004a EDD1     		bne	.L12
 308              		.loc 1 173 0
 309 004c 4FF0FF30 		mov	r0, #-1
 310 0050 FFF7FEFF 		bl	chEvtClearFlags
 311              	.LVL30:
 312              		.loc 1 174 0
 313 0054 D0F10101 		rsbs	r1, r0, #1
 314 0058 38BF     		it	cc
 315 005a 0021     		movcc	r1, #0
 316 005c 0320     		movs	r0, #3
 317              	.LVL31:
 318 005e FFF7FEFF 		bl	_test_assert
 319              	.LVL32:
 320 0062 0028     		cmp	r0, #0
 321 0064 E0D1     		bne	.L12
 322              		.loc 1 181 0
 323 0066 40F20004 		movw	r4, #:lower16:rlist
 324              		.loc 1 179 0
 325 006a FFF7FEFF 		bl	test_wait_tick
 326              	.LVL33:
 327              		.loc 1 181 0
 328 006e C0F20004 		movt	r4, #:upper16:rlist
 329 0072 40F20003 		movw	r3, #:lower16:wa
 330 0076 E169     		ldr	r1, [r4, #28]
 331 0078 C0F20003 		movt	r3, #:upper16:wa
 332 007c 1B68     		ldr	r3, [r3]
ARM GAS  /tmp/ccs3WtaS.s 			page 7


 333 007e 8A68     		ldr	r2, [r1, #8]
 334 0080 0393     		str	r3, [sp, #12]
 335              		.loc 1 180 0
 336 0082 40F20006 		movw	r6, #:lower16:vtlist
 337              		.loc 1 181 0
 338 0086 40F20003 		movw	r3, #:lower16:thread1
 339 008a 013A     		subs	r2, r2, #1
 340 008c 0091     		str	r1, [sp]
 341 008e C0F20003 		movt	r3, #:upper16:thread1
 342 0092 4FF49871 		mov	r1, #304
 343 0096 0398     		ldr	r0, [sp, #12]
 344              		.loc 1 180 0
 345 0098 C0F20006 		movt	r6, #:upper16:vtlist
 346 009c F768     		ldr	r7, [r6, #12]
 347              	.LVL34:
 348              		.loc 1 181 0
 349 009e FFF7FEFF 		bl	chThdCreateStatic
 350              	.LVL35:
 351 00a2 40F20005 		movw	r5, #:lower16:threads
 352 00a6 C0F20005 		movt	r5, #:upper16:threads
 353 00aa 2860     		str	r0, [r5]
 354              		.loc 1 183 0
 355 00ac 4FF0FF30 		mov	r0, #-1
 356 00b0 FFF7FEFF 		bl	chEvtWaitOne
 357              	.LVL36:
 358              		.loc 1 184 0
 359 00b4 07F13201 		add	r1, r7, #50
 360              	.LVL37:
 361              		.loc 1 183 0
 362 00b8 8146     		mov	r9, r0
 363              	.LVL38:
 364              		.loc 1 184 0
 365 00ba 07F13702 		add	r2, r7, #55
 366 00be 0420     		movs	r0, #4
 367              	.LVL39:
 368 00c0 FFF7FEFF 		bl	_test_assert_time_window
 369              	.LVL40:
 370 00c4 0028     		cmp	r0, #0
 371 00c6 AFD1     		bne	.L12
 372              		.loc 1 185 0
 373 00c8 B9F1010C 		subs	ip, r9, #1
 374 00cc DCF10001 		rsbs	r1, ip, #0
 375 00d0 51EB0C01 		adcs	r1, r1, ip
 376 00d4 0520     		movs	r0, #5
 377 00d6 FFF7FEFF 		bl	_test_assert
 378              	.LVL41:
 379 00da 0028     		cmp	r0, #0
 380 00dc A4D1     		bne	.L12
 381              		.loc 1 186 0
 382 00de 4FF0FF30 		mov	r0, #-1
 383 00e2 FFF7FEFF 		bl	chEvtClearFlags
 384              	.LVL42:
 385              		.loc 1 187 0
 386 00e6 D0F10101 		rsbs	r1, r0, #1
 387 00ea 38BF     		it	cc
 388 00ec 0021     		movcc	r1, #0
 389 00ee 0620     		movs	r0, #6
ARM GAS  /tmp/ccs3WtaS.s 			page 8


 390              	.LVL43:
 391 00f0 FFF7FEFF 		bl	_test_assert
 392              	.LVL44:
 393 00f4 0028     		cmp	r0, #0
 394 00f6 97D1     		bne	.L12
 395              		.loc 1 188 0
 396 00f8 FFF7FEFF 		bl	test_wait_threads
 397              	.LVL45:
 398              		.loc 1 193 0
 399 00fc 0520     		movs	r0, #5
 400 00fe FFF7FEFF 		bl	chEvtAddFlags
 401              	.LVL46:
 402              		.loc 1 194 0
 403 0102 4FF0FF30 		mov	r0, #-1
 404 0106 FFF7FEFF 		bl	chEvtWaitAny
 405              	.LVL47:
 406              		.loc 1 195 0
 407 010a B0F1050E 		subs	lr, r0, #5
 408 010e DEF10001 		rsbs	r1, lr, #0
 409 0112 51EB0E01 		adcs	r1, r1, lr
 410 0116 0720     		movs	r0, #7
 411              	.LVL48:
 412 0118 FFF7FEFF 		bl	_test_assert
 413              	.LVL49:
 414 011c 0028     		cmp	r0, #0
 415 011e 83D1     		bne	.L12
 416              		.loc 1 196 0
 417 0120 4FF0FF30 		mov	r0, #-1
 418 0124 FFF7FEFF 		bl	chEvtClearFlags
 419              	.LVL50:
 420              		.loc 1 197 0
 421 0128 D0F10101 		rsbs	r1, r0, #1
 422 012c 38BF     		it	cc
 423 012e 0021     		movcc	r1, #0
 424 0130 0820     		movs	r0, #8
 425              	.LVL51:
 426 0132 FFF7FEFF 		bl	_test_assert
 427              	.LVL52:
 428 0136 0028     		cmp	r0, #0
 429 0138 7FF476AF 		bne	.L12
 430              		.loc 1 202 0
 431 013c FFF7FEFF 		bl	test_wait_tick
 432              	.LVL53:
 433              		.loc 1 204 0
 434 0140 E169     		ldr	r1, [r4, #28]
 435 0142 40F20003 		movw	r3, #:lower16:thread1
 436 0146 8A68     		ldr	r2, [r1, #8]
 437 0148 C0F20003 		movt	r3, #:upper16:thread1
 438 014c 013A     		subs	r2, r2, #1
 439 014e 0091     		str	r1, [sp]
 440 0150 0398     		ldr	r0, [sp, #12]
 441 0152 4FF49871 		mov	r1, #304
 442              		.loc 1 203 0
 443 0156 D6F80C80 		ldr	r8, [r6, #12]
 444              	.LVL54:
 445              		.loc 1 204 0
 446 015a FFF7FEFF 		bl	chThdCreateStatic
ARM GAS  /tmp/ccs3WtaS.s 			page 9


 447              	.LVL55:
 448 015e 2860     		str	r0, [r5]
 449              		.loc 1 206 0
 450 0160 4FF0FF30 		mov	r0, #-1
 451 0164 FFF7FEFF 		bl	chEvtWaitAny
 452              	.LVL56:
 453              		.loc 1 207 0
 454 0168 08F13201 		add	r1, r8, #50
 455              	.LVL57:
 456              		.loc 1 206 0
 457 016c 8146     		mov	r9, r0
 458              	.LVL58:
 459              		.loc 1 207 0
 460 016e 08F13702 		add	r2, r8, #55
 461 0172 0920     		movs	r0, #9
 462              	.LVL59:
 463 0174 FFF7FEFF 		bl	_test_assert_time_window
 464              	.LVL60:
 465 0178 0028     		cmp	r0, #0
 466 017a 7FF455AF 		bne	.L12
 467              		.loc 1 208 0
 468 017e B9F10107 		subs	r7, r9, #1
 469 0182 7942     		rsbs	r1, r7, #0
 470 0184 7941     		adcs	r1, r1, r7
 471 0186 0A20     		movs	r0, #10
 472 0188 FFF7FEFF 		bl	_test_assert
 473              	.LVL61:
 474 018c 0028     		cmp	r0, #0
 475 018e 7FF44BAF 		bne	.L12
 476              		.loc 1 209 0
 477 0192 4FF0FF30 		mov	r0, #-1
 478 0196 FFF7FEFF 		bl	chEvtClearFlags
 479              	.LVL62:
 480              		.loc 1 210 0
 481 019a D0F10101 		rsbs	r1, r0, #1
 482 019e 38BF     		it	cc
 483 01a0 0021     		movcc	r1, #0
 484 01a2 0B20     		movs	r0, #11
 485              	.LVL63:
 486 01a4 FFF7FEFF 		bl	_test_assert
 487              	.LVL64:
 488 01a8 0028     		cmp	r0, #0
 489 01aa 7FF43DAF 		bne	.L12
 490              		.loc 1 216 0
 491 01ae 40F20009 		movw	r9, #:lower16:.LANCHOR0
 492 01b2 C0F20009 		movt	r9, #:upper16:.LANCHOR0
 493              		.loc 1 217 0
 494 01b6 40F20008 		movw	r8, #:lower16:.LANCHOR2
 495              	.LVL65:
 496              		.loc 1 211 0
 497 01ba FFF7FEFF 		bl	test_wait_threads
 498              	.LVL66:
 499              		.loc 1 217 0
 500 01be C0F20008 		movt	r8, #:upper16:.LANCHOR2
 501              		.loc 1 218 0
 502 01c2 4846     		mov	r0, r9
 503 01c4 04A9     		add	r1, sp, #16
ARM GAS  /tmp/ccs3WtaS.s 			page 10


 504 01c6 0122     		movs	r2, #1
 505              		.loc 1 216 0
 506 01c8 C9F80090 		str	r9, [r9]
 507              		.loc 1 217 0
 508 01cc C8F80080 		str	r8, [r8]
 509              		.loc 1 218 0
 510 01d0 FFF7FEFF 		bl	chEvtRegisterMask
 511              	.LVL67:
 512              		.loc 1 219 0
 513 01d4 07A9     		add	r1, sp, #28
 514 01d6 0422     		movs	r2, #4
 515 01d8 4046     		mov	r0, r8
 516 01da FFF7FEFF 		bl	chEvtRegisterMask
 517              	.LVL68:
 518              		.loc 1 220 0
 519 01de FFF7FEFF 		bl	test_wait_tick
 520              	.LVL69:
 521              		.loc 1 222 0
 522 01e2 E369     		ldr	r3, [r4, #28]
 523 01e4 40F20001 		movw	r1, #:lower16:.LC1
 524 01e8 9A68     		ldr	r2, [r3, #8]
 525 01ea C0F20001 		movt	r1, #:upper16:.LC1
 526 01ee 40F20003 		movw	r3, #:lower16:thread2
 527 01f2 013A     		subs	r2, r2, #1
 528 01f4 0091     		str	r1, [sp]
 529 01f6 C0F20003 		movt	r3, #:upper16:thread2
 530 01fa 4FF49871 		mov	r1, #304
 531 01fe 0398     		ldr	r0, [sp, #12]
 532              		.loc 1 221 0
 533 0200 F468     		ldr	r4, [r6, #12]
 534              	.LVL70:
 535              		.loc 1 222 0
 536 0202 FFF7FEFF 		bl	chThdCreateStatic
 537              	.LVL71:
 538 0206 2860     		str	r0, [r5]
 539              		.loc 1 224 0
 540 0208 0520     		movs	r0, #5
 541 020a FFF7FEFF 		bl	chEvtWaitAll
 542              	.LVL72:
 543              		.loc 1 225 0
 544 020e 04F13201 		add	r1, r4, #50
 545              	.LVL73:
 546 0212 04F13702 		add	r2, r4, #55
 547 0216 0C20     		movs	r0, #12
 548 0218 FFF7FEFF 		bl	_test_assert_time_window
 549              	.LVL74:
 550 021c 0028     		cmp	r0, #0
 551 021e 7FF403AF 		bne	.L12
 552              		.loc 1 226 0
 553 0222 4FF0FF30 		mov	r0, #-1
 554 0226 FFF7FEFF 		bl	chEvtClearFlags
 555              	.LVL75:
 556              		.loc 1 227 0
 557 022a D0F10101 		rsbs	r1, r0, #1
 558 022e 38BF     		it	cc
 559 0230 0021     		movcc	r1, #0
 560 0232 0D20     		movs	r0, #13
ARM GAS  /tmp/ccs3WtaS.s 			page 11


 561              	.LVL76:
 562 0234 FFF7FEFF 		bl	_test_assert
 563              	.LVL77:
 564 0238 0028     		cmp	r0, #0
 565 023a 7FF4F5AE 		bne	.L12
 566              		.loc 1 228 0
 567 023e FFF7FEFF 		bl	test_wait_threads
 568              	.LVL78:
 569              		.loc 1 229 0
 570 0242 4846     		mov	r0, r9
 571 0244 04A9     		add	r1, sp, #16
 572 0246 FFF7FEFF 		bl	chEvtUnregister
 573              	.LVL79:
 574              		.loc 1 230 0
 575 024a 4046     		mov	r0, r8
 576 024c 07A9     		add	r1, sp, #28
 577 024e FFF7FEFF 		bl	chEvtUnregister
 578              	.LVL80:
 579              		.loc 1 231 0
 580 0252 D9F80010 		ldr	r1, [r9]
 581 0256 0E20     		movs	r0, #14
 582 0258 B1EB0904 		subs	r4, r1, r9
 583              	.LVL81:
 584 025c 6142     		rsbs	r1, r4, #0
 585 025e 6141     		adcs	r1, r1, r4
 586 0260 FFF7FEFF 		bl	_test_assert
 587              	.LVL82:
 588 0264 0028     		cmp	r0, #0
 589 0266 7FF4DFAE 		bne	.L12
 590              		.loc 1 232 0
 591 026a D8F80010 		ldr	r1, [r8]
 592 026e 0F20     		movs	r0, #15
 593 0270 B1EB0802 		subs	r2, r1, r8
 594 0274 5142     		rsbs	r1, r2, #0
 595 0276 5141     		adcs	r1, r1, r2
 596 0278 FFF7FEFF 		bl	_test_assert
 597              	.LVL83:
 598 027c D4E6     		b	.L12
 599              		.cfi_endproc
 600              	.LFE15:
 601              		.size	evt2_execute, .-evt2_execute
 602 027e 00BF     		.section	.text.thread2,"ax",%progbits
 603              		.align	2
 604              		.p2align 4,,15
 605              		.thumb
 606              		.thumb_func
 607              		.type	thread2, %function
 608              	thread2:
 609              	.LFB14:
 610              		.loc 1 151 0
 611              		.cfi_startproc
 612              		@ args = 0, pretend = 0, frame = 0
 613              		@ frame_needed = 0, uses_anonymous_args = 0
 614              	.LVL84:
 615 0000 08B5     		push	{r3, lr}
 616              		.cfi_def_cfa_offset 8
 617              		.cfi_offset 3, -8
ARM GAS  /tmp/ccs3WtaS.s 			page 12


 618              		.cfi_offset 14, -4
 619              		.loc 1 154 0
 620 0002 40F20000 		movw	r0, #:lower16:.LANCHOR0
 621              	.LVL85:
 622 0006 0021     		movs	r1, #0
 623 0008 C0F20000 		movt	r0, #:upper16:.LANCHOR0
 624 000c FFF7FEFF 		bl	chEvtBroadcastFlags
 625              	.LVL86:
 626              		.loc 1 155 0
 627 0010 3220     		movs	r0, #50
 628 0012 FFF7FEFF 		bl	chThdSleep
 629              	.LVL87:
 630              		.loc 1 156 0
 631 0016 40F20000 		movw	r0, #:lower16:.LANCHOR2
 632 001a C0F20000 		movt	r0, #:upper16:.LANCHOR2
 633 001e 0021     		movs	r1, #0
 634 0020 FFF7FEFF 		bl	chEvtBroadcastFlags
 635              	.LVL88:
 636              		.loc 1 158 0
 637 0024 0020     		movs	r0, #0
 638 0026 08BD     		pop	{r3, pc}
 639              		.cfi_endproc
 640              	.LFE14:
 641              		.size	thread2, .-thread2
 642 0028 AFF30080 		.section	.text.thread1,"ax",%progbits
 642      AFF30080 
 643              		.align	2
 644              		.p2align 4,,15
 645              		.thumb
 646              		.thumb_func
 647              		.type	thread1, %function
 648              	thread1:
 649              	.LFB13:
 650              		.loc 1 144 0
 651              		.cfi_startproc
 652              		@ args = 0, pretend = 0, frame = 0
 653              		@ frame_needed = 0, uses_anonymous_args = 0
 654              	.LVL89:
 655 0000 10B5     		push	{r4, lr}
 656              		.cfi_def_cfa_offset 8
 657              		.cfi_offset 4, -8
 658              		.cfi_offset 14, -4
 659              		.loc 1 144 0
 660 0002 0446     		mov	r4, r0
 661              		.loc 1 146 0
 662 0004 3220     		movs	r0, #50
 663              	.LVL90:
 664 0006 FFF7FEFF 		bl	chThdSleep
 665              	.LVL91:
 666              		.loc 1 147 0
 667 000a 2046     		mov	r0, r4
 668 000c 0121     		movs	r1, #1
 669 000e FFF7FEFF 		bl	chEvtSignalFlags
 670              	.LVL92:
 671              		.loc 1 149 0
 672 0012 0020     		movs	r0, #0
 673 0014 10BD     		pop	{r4, pc}
ARM GAS  /tmp/ccs3WtaS.s 			page 13


 674              		.cfi_endproc
 675              	.LFE13:
 676              		.size	thread1, .-thread1
 677 0016 00BFAFF3 		.section	.text.evt3_execute,"ax",%progbits
 677      0080AFF3 
 677      0080
 678              		.align	2
 679              		.p2align 4,,15
 680              		.thumb
 681              		.thumb_func
 682              		.type	evt3_execute, %function
 683              	evt3_execute:
 684              	.LFB17:
 685              		.loc 1 263 0
 686              		.cfi_startproc
 687              		@ args = 0, pretend = 0, frame = 0
 688              		@ frame_needed = 0, uses_anonymous_args = 0
 689 0000 08B5     		push	{r3, lr}
 690              		.cfi_def_cfa_offset 8
 691              		.cfi_offset 3, -8
 692              		.cfi_offset 14, -4
 693              		.loc 1 269 0
 694 0002 0021     		movs	r1, #0
 695 0004 4FF0FF30 		mov	r0, #-1
 696 0008 FFF7FEFF 		bl	chEvtWaitOneTimeout
 697              	.LVL93:
 698              		.loc 1 270 0
 699 000c D0F10101 		rsbs	r1, r0, #1
 700 0010 38BF     		it	cc
 701 0012 0021     		movcc	r1, #0
 702 0014 0120     		movs	r0, #1
 703              	.LVL94:
 704 0016 FFF7FEFF 		bl	_test_assert
 705              	.LVL95:
 706 001a 00B1     		cbz	r0, .L22
 707              	.L18:
 708 001c 08BD     		pop	{r3, pc}
 709              	.L22:
 710              		.loc 1 271 0
 711 001e 0146     		mov	r1, r0
 712 0020 4FF0FF30 		mov	r0, #-1
 713 0024 FFF7FEFF 		bl	chEvtWaitAnyTimeout
 714              	.LVL96:
 715              		.loc 1 272 0
 716 0028 D0F10101 		rsbs	r1, r0, #1
 717 002c 38BF     		it	cc
 718 002e 0021     		movcc	r1, #0
 719 0030 0220     		movs	r0, #2
 720              	.LVL97:
 721 0032 FFF7FEFF 		bl	_test_assert
 722              	.LVL98:
 723 0036 0028     		cmp	r0, #0
 724 0038 F0D1     		bne	.L18
 725              		.loc 1 273 0
 726 003a 0146     		mov	r1, r0
 727 003c 4FF0FF30 		mov	r0, #-1
 728 0040 FFF7FEFF 		bl	chEvtWaitAllTimeout
ARM GAS  /tmp/ccs3WtaS.s 			page 14


 729              	.LVL99:
 730              		.loc 1 274 0
 731 0044 D0F10101 		rsbs	r1, r0, #1
 732 0048 38BF     		it	cc
 733 004a 0021     		movcc	r1, #0
 734 004c 0320     		movs	r0, #3
 735              	.LVL100:
 736 004e FFF7FEFF 		bl	_test_assert
 737              	.LVL101:
 738 0052 0028     		cmp	r0, #0
 739 0054 E2D1     		bne	.L18
 740              	.LBB4:
 741              	.LBB5:
 742              		.loc 1 275 0
 743 0056 0A21     		movs	r1, #10
 744 0058 4FF0FF30 		mov	r0, #-1
 745 005c FFF7FEFF 		bl	chEvtWaitOneTimeout
 746              	.LVL102:
 747              		.loc 1 276 0
 748 0060 D0F10101 		rsbs	r1, r0, #1
 749 0064 38BF     		it	cc
 750 0066 0021     		movcc	r1, #0
 751 0068 0420     		movs	r0, #4
 752              	.LVL103:
 753 006a FFF7FEFF 		bl	_test_assert
 754              	.LVL104:
 755 006e 0028     		cmp	r0, #0
 756 0070 D4D1     		bne	.L18
 757              		.loc 1 277 0
 758 0072 0A21     		movs	r1, #10
 759 0074 4FF0FF30 		mov	r0, #-1
 760 0078 FFF7FEFF 		bl	chEvtWaitAnyTimeout
 761              	.LVL105:
 762              		.loc 1 278 0
 763 007c D0F10101 		rsbs	r1, r0, #1
 764 0080 38BF     		it	cc
 765 0082 0021     		movcc	r1, #0
 766 0084 0520     		movs	r0, #5
 767              	.LVL106:
 768 0086 FFF7FEFF 		bl	_test_assert
 769              	.LVL107:
 770 008a 0028     		cmp	r0, #0
 771 008c C6D1     		bne	.L18
 772              		.loc 1 279 0
 773 008e 0A21     		movs	r1, #10
 774 0090 4FF0FF30 		mov	r0, #-1
 775 0094 FFF7FEFF 		bl	chEvtWaitAllTimeout
 776              	.LVL108:
 777              	.LBE5:
 778              	.LBE4:
 779              		.loc 1 281 0
 780 0098 BDE80840 		pop	{r3, lr}
 781              	.LBB7:
 782              	.LBB6:
 783              		.loc 1 280 0
 784 009c D0F10101 		rsbs	r1, r0, #1
 785 00a0 38BF     		it	cc
ARM GAS  /tmp/ccs3WtaS.s 			page 15


 786 00a2 0021     		movcc	r1, #0
 787 00a4 0620     		movs	r0, #6
 788              	.LVL109:
 789 00a6 FFF7FEBF 		b	_test_assert
 790              	.LVL110:
 791              	.LBE6:
 792              	.LBE7:
 793              		.cfi_endproc
 794              	.LFE17:
 795              		.size	evt3_execute, .-evt3_execute
 796              		.global	patternevt
 797              		.global	testevt3
 798              		.global	testevt2
 799              		.global	testevt1
 800 00aa 00BFAFF3 		.section	.rodata.patternevt,"a",%progbits
 800      0080
 801              		.align	2
 802              		.type	patternevt, %object
 803              		.size	patternevt, 16
 804              	patternevt:
 805 0000 00000000 		.word	testevt1
 806 0004 00000000 		.word	testevt2
 807 0008 00000000 		.word	testevt3
 808 000c 00000000 		.word	0
 809              		.section	.rodata.testevt2,"a",%progbits
 810              		.align	2
 811              		.type	testevt2, %object
 812              		.size	testevt2, 16
 813              	testevt2:
 814 0000 1C000000 		.word	.LC3
 815 0004 00000000 		.word	evt2_setup
 816 0008 00000000 		.word	0
 817 000c 00000000 		.word	evt2_execute
 818              		.section	.rodata.str1.4,"aMS",%progbits,1
 819              		.align	2
 820              	.LC0:
 821 0000 41424300 		.ascii	"ABC\000"
 822              	.LC1:
 823 0004 4100     		.ascii	"A\000"
 824 0006 0000     		.space	2
 825              	.LC2:
 826 0008 4576656E 		.ascii	"Events, timeouts\000"
 826      74732C20 
 826      74696D65 
 826      6F757473 
 826      00
 827 0019 000000   		.space	3
 828              	.LC3:
 829 001c 4576656E 		.ascii	"Events, wait and broadcast\000"
 829      74732C20 
 829      77616974 
 829      20616E64 
 829      2062726F 
 830 0037 00       		.space	1
 831              	.LC4:
 832 0038 4576656E 		.ascii	"Events, registration and dispatch\000"
 832      74732C20 
ARM GAS  /tmp/ccs3WtaS.s 			page 16


 832      72656769 
 832      73747261 
 832      74696F6E 
 833 005a 0000     		.section	.rodata.testevt1,"a",%progbits
 834              		.align	2
 835              		.type	testevt1, %object
 836              		.size	testevt1, 16
 837              	testevt1:
 838 0000 38000000 		.word	.LC4
 839 0004 00000000 		.word	evt1_setup
 840 0008 00000000 		.word	0
 841 000c 00000000 		.word	evt1_execute
 842              		.section	.rodata.evhndl,"a",%progbits
 843              		.align	2
 844              		.set	.LANCHOR1,. + 0
 845              		.type	evhndl, %object
 846              		.size	evhndl, 12
 847              	evhndl:
 848 0000 00000000 		.word	h1
 849 0004 00000000 		.word	h2
 850 0008 00000000 		.word	h3
 851              		.section	.rodata.testevt3,"a",%progbits
 852              		.align	2
 853              		.type	testevt3, %object
 854              		.size	testevt3, 16
 855              	testevt3:
 856 0000 08000000 		.word	.LC2
 857 0004 00000000 		.word	evt3_setup
 858 0008 00000000 		.word	0
 859 000c 00000000 		.word	evt3_execute
 860              		.section	.data.es1,"aw",%progbits
 861              		.align	2
 862              		.set	.LANCHOR0,. + 0
 863              		.type	es1, %object
 864              		.size	es1, 4
 865              	es1:
 866 0000 00000000 		.word	es1
 867              		.section	.data.es2,"aw",%progbits
 868              		.align	2
 869              		.set	.LANCHOR2,. + 0
 870              		.type	es2, %object
 871              		.size	es2, 4
 872              	es2:
 873 0000 00000000 		.word	es2
 874              		.text
 875              	.Letext0:
 876              		.file 2 "/usr/lib/gcc/arm-none-eabi/4.8.2/include/stddef.h"
 877              		.file 3 "/usr/include/newlib/machine/_default_types.h"
 878              		.file 4 "/usr/include/newlib/stdint.h"
 879              		.file 5 "../../os/ports/GCC/ARMCMx/chtypes.h"
 880              		.file 6 "../../os/kernel/include/chlists.h"
 881              		.file 7 "../../os/kernel/include/chthreads.h"
 882              		.file 8 "../../os/ports/GCC/ARMCMx/chcore_v7m.h"
 883              		.file 9 "../../os/kernel/include/chvt.h"
 884              		.file 10 "../../os/kernel/include/chschd.h"
 885              		.file 11 "../../os/kernel/include/chmtx.h"
 886              		.file 12 "../../os/kernel/include/chevents.h"
ARM GAS  /tmp/ccs3WtaS.s 			page 17


 887              		.file 13 "../../test/test.h"
